:020000040800F2
:10000000881800209D010008AF010008B101000818
:10001000B3010008B5010008B701000800000000A6
:10002000000000000000000000000000B90100080E
:10003000BB01000800000000BD010008495600088F
:10004000C1010008C1010008C1010008C101000888
:10005000C1010008C1010008C1010008C101000878
:10006000C1010008C1010008C1010008C101000868
:10007000C1010008C1010008C1010008C101000858
:10008000C1010008C1010008C1010008C101000848
:10009000C1010008C1010008C1010008B91A000827
:1000A000C1010008C1010008C1010008C101000828
:1000B00005580008C1010008C1010008C10100087D
:1000C000C1010008C1010008C1010008C101000808
:1000D000C1010008015B0008295E0008ED5E000810
:1000E000C1010008C1010008C1010008C1010008E8
:1000F000C1010008C1010008C1010008C1010008D8
:10010000C1010008C1010008C1010008C1010008C7
:10011000C1010008C1010008C1010008C1010008B7
:10012000C1010008C1010008C1010008C1010008A7
:10013000C1010008C1010008C1010008C101000897
:10014000C1010008C1010008C1010008C101000887
:10015000C1010008C1010008C1010008B960000820
:10016000C1010008C1010008C1010008C101000867
:10017000C1010008C1010008C1010008C101000857
:10018000C1010008C1010008DFF80CD000F00CFC30
:1001900000480047D5020108881800200948016876
:1001A00041F4700101600848804708480047FEE7B5
:1001B000FEE7FEE7FEE7FEE7FEE7FEE7FEE7FEE717
:1001C000FEE7000088ED00E0A9570008890100085B
:1001D0002DE9F0410024061B254671F1000605DAE1
:1001E00001240027D0EB070067EB0101161E73F115
:1001F000000605DA0027D2EB0702012567EB0303AF
:1002000000F074FA86460E4617469C46AC4204D06F
:100210000025D0EB050E65EB010624B10020D2EBE2
:10022000000760EB030C704631463A466346BDE872
:10023000F081D2B201E000F8012B491EFBD27047D9
:100240000022F6E710B513460A4604461946FFF7A2
:10025000F0FF204610BD30B504460020034600E004
:100260005B1C934203D2E05CCD5C401BF8D030BDF8
:100270002DE9FE4F804681EA0300C00F0C46009036
:1002800021F0004123F00045B8EB0200A94105D25E
:100290004046214690461C460B46024623F000404D
:1002A000104347D0270DC7F30A00C3F30A51029049
:1002B000401A019040286BDAC3F3130040F4801B0E
:1002C0000098924620B10023D2EB030A63EB0B0B9C
:1002D00001985946C0F14002504600F038FA0646EF
:1002E0000D4650465946019A00F050FA10EB0800AE
:1002F0006141002487EA115284EAE7731A4340D02F
:10030000009A62B3019A012A4FEA075215DC001BDA
:1003100061EB02014FF0004202EA0752CDE90042D0
:10032000001C41F5801132462B4600F087FA03B0DD
:10033000BDE8F08F40462146F9E7001B61EB020162
:10034000001C41F5801300185B412018A2F500172E
:1003500047EB030140EAD570B6196D4111E06D0815
:100360004FEA360645EAC0754FEA0752001B61EBBB
:100370000201001C41F5801149084FEA30000019C4
:10038000514132462B4603B0BDE8F04F00F047BA6A
:100390000098012240000023D0EB020263EBE073DF
:1003A000009821464FEAE074B8EB000061EB0401CD
:1003B000E9E783F000435BE781F0004158E72DE96E
:1003C000FE4F81EA030404F0004421F00041009450
:1003D0004FF0000B23F0004350EA01045ED052EAD4
:1003E00003045BD0C3F30A54C1F30A552C44A4F2AE
:1003F000F3340194A0FB0254C1F3130141F48011C2
:10040000C3F3130343F4801301FB024400FB034EC8
:10041000840A970A44EA815447EA8357A4FB076891
:1004200002958D0A05FB07854FEA932C04FB0C54BB
:100430002705029D4FEA065847EA1637B5EB08052F
:100440006EEB070C870E920E47EA811742EA831281
:10045000A7FB0201B6EB0B0164EB00042B0D43EA92
:100460000C335E1844EB1C50DA465146E7FB0201A0
:10047000C5F313044FEA0B3343EA14534FEA043233
:10048000019C43EA0603A4F10C040294009CCDE90C
:1004900000B400F0D3F903B0BDE8F08F00200146AE
:1004A000F9E72DE9F04D81EA030404F0004B21F057
:1004B000004514464FF0000A23F0004150EA0502BF
:1004C00020D054EA01021DD0C5F30A570246C5F3F5
:1004D0001303C1F31300C1F30A5640F4801543F42B
:1004E0008013A7EB0608101BD64608F2FD3873EB05
:1004F000050002D308F1010801E092185B41B8F150
:10050000000F03DA00200146BDE8F08D00204FF413
:100510008011064684460EE0171B73EB050705D3D2
:10052000121B63EB050306434CEA010C49084FEA32
:10053000300092185B4150EA0107EDD152EA030006
:1005400012D082EA040083EA0501084305D0101B9B
:10055000AB4106D20122002306E000224FF0004307
:1005600002E06FF0010253101AEB06004CEB085149
:1005700010EB0A0041EB0B01BDE8F04D00F04FB964
:100580000EB5C10F80EAE0700844CA07002140F2AE
:1005900033438DE80E000A460B4600F04FF903B0D6
:1005A00000BD0EB540F2334102910021CDE90011AA
:1005B0000A460B4600F042F903B000BD70B5C1F326
:1005C0000A5201F000450024C1F3130140F2FF3349
:1005D00041F480119A4201DA002070BD40F23343A9
:1005E0009A42A2F2334203DC524200F0BFF800E02C
:1005F00090402C43F1D0404270BDC1F30A5210B577
:10060000C1F3130140F2FF3341F480119A4201DA41
:10061000002010BD40F233439A42A2F2334203DC81
:10062000524200F0A3F810BD904010BD00F000420F
:1006300030F000400AD0C10D01F56071C0F3160022
:1006400042EA0151C20840071143704700200146A9
:100650007047000030B5041E71F1000404DB4FF058
:100660000044404264EB0101141E73F1000405DBF9
:100670001C464FF00043524263EB04038B4208BF19
:10068000824230BD30B5041E71F1000404DB4FF02E
:100690000044404264EB0101141E73F1000405DBC9
:1006A0001C464FF00043524263EB0403994208BFDB
:1006B000904230BD01F0004330B421F0004150EAD7
:1006C000010206D00A0DA2F56072C1F31301002ADF
:1006D00002DC30BC00207047440F44EAC104C10072
:1006E000E01830BC00EBC25000F062B82DE9F05FBA
:1006F0000546002092469B46884606468146402491
:100700001BE0284641464746224600F02FF8534654
:100710005A46C01A914110D311461846224600F09D
:1007200016F82D1A67EB01084F46224601200021DA
:1007300000F00DF817EB00094E41201EA4F1010452
:10074000DFDC484631462A464346BDE8F09F202A72
:1007500004DB203A00FA02F1002070479140C2F118
:10076000200320FA03F3194390407047202A04DB4A
:10077000203A21FA02F00021704721FA02F3D0401A
:10078000C2F120029140084319467047202A06DB37
:10079000CB17203A41FA02F043EAE07306E041FA4F
:1007A00002F3D040C2F1200291400843194670473D
:1007B0000029A8BF7047401C490008BF20F0010075
:1007C000704710B4B0FA80FC00FA0CF050EA010453
:1007D00004BF10BC704749B1CCF1200421FA04F4E5
:1007E00011FA0CF118BF012121430843A3EB0C01BE
:1007F000CB1D4FEA00614FEA102042BF002010BC21
:10080000704700EBC35010440029A4BF10BC7047D0
:10081000401C490008BF20F0010010BC704710B513
:10082000141E73F1000408DA401C41F10001921813
:100830005B411A4301D120F0010010BD2DE9F04DBC
:1008400092469B4611B1B1FA81F202E0B0FA80F211
:1008500020329046FFF77BFF04460F4640EA0A002D
:1008600041EA0B0153465A46084313D0114653EA56
:10087000010019D0C8F140025046FFF777FF054646
:100880000E46504659464246FFF761FF084305D0E1
:10089000012004E020463946BDE8F08D00200543E4
:1008A00046EAE0762C4337430A986305E40AA0EB56
:1008B00008000022FD0A44EA47540A3002D500200D
:1008C0000146E9E7010510196941DDE9084500190C
:1008D0006941BDE8F04DA2E770B521F00043034344
:1008E0000CD0C1F30A550024D5EB040564EB0403D6
:1008F000D617AD1AB34102DB0020014670BD2018A7
:1009000041EB025170BD2DE9F04D00231A461B1A30
:100910008A4103DB00200146BDE8F08DC1F30A5295
:10092000C1F3130141F480154FF0000BD10702D140
:1009300000186D41521E0027044640F2FF11384650
:1009400001EB620A3E468046024600204FF48011C9
:10095000FFF70CFFC2197141BB1846EB0100B4EB65
:10096000030C75EB000C04D3E41A65EB0005174685
:100970000E46241908F101006D4180463428E3DD5C
:10098000F91946EB0600091BA84103D24FF0FF32CC
:10099000134601E0002213461BEB070046EB0A5109
:1009A000BDE8F04DFFF73BBF064C074D06E0E068A1
:1009B00040F0010394E8070098471034AC42F6D3A6
:1009C000FFF7E6FB345201085452010870B58C1849
:1009D00010F8015B15F0070301D110F8013B2A1153
:1009E00006D110F8012B03E010F8016B01F8016B40
:1009F0005B1EF9D12B0705D40023521E0DD401F83C
:100A0000013BFAE710F8013BCB1A921C03E013F804
:100A1000015B01F8015B521EF9D5A142D8D3002039
:100A200070BD21B1826842F00102826003E08268F9
:100A300022F00102826070470021084A1168084ACA
:100A40001140D0E900231A4383681A43C3681A434C
:100A50001143044AC2F80413704700000423014004
:100A6000E030FCFF002001400146C86C80B27047B6
:100A70000246002013680B400BB1012000E000206B
:100A80007047000030B50246002000235068104C2B
:100A900020400D790C6844EA05242043506090689A
:100AA0000C4C2040D1E903542C438D682C434D79E4
:100AB00044EA450420439060D06A20F470000C7D25
:100AC000641EE4B2234340EA0350D06230BD00000C
:100AD000FFFEFFFCFDF7FFC0F0B504460D46002009
:100AE0000021092D11DDE068A5F10A0606EB460795
:100AF000072606FA07F18843A5F10A0606EB460623
:100B000003FA06F10843E0600CE0206905EB4507B5
:100B1000072606FA07F1884305EB450603FA06F1B6
:100B200008432061072A0FDA606B561E06EB860722
:100B30001F2606FA07F18843561E06EB860605FABD
:100B400006F10843606322E00D2A0FDA206BD61FFE
:100B500006EB86071F2606FA07F18843D61F06EB29
:100B6000860605FA06F10843206310E0E06AA2F168
:100B70000D0606EB86071F2606FA07F18843A2F149
:100B80000D0606EB860605FA06F10843E062F0BDA5
:100B9000816841F0804181607047000000B58DB0F0
:100BA0000121084602F0C6FC0121042002F0C2FC2B
:100BB0000121080202F0EEFC02200B9003208DF8C8
:100BC000300000208DF833000BA9154801F0C8FB58
:100BD0000121080202F0EEFC00214FF4807002F0C7
:100BE000E9FC002007900A9009904FF480300890AB
:100BF00007A8FFF721FF002001908DF808008DF86D
:100C000009000390059001208DF8180001A90548FE
:100C1000FFF738FF01210348FFF703FF0DB000BDC8
:100C2000000002400020014010B57D48408C24287F
:100C300076D017DC1A2861D00BDC142843D003DCF3
:100C400028B30A286DD131E0162845D01828F9D1EB
:100C50004BE01C285BD01E2864D020286BD02228B3
:100C6000F0D176E02E286FD008DC26286DD0282819
:100C70006CD02A286BD02C28E4D199E0302867D09A
:100C800032286FD044286ED04628DBD1BCE000F07B
:100C90007DFC4FF47A7011F0C7F8012061490870AB
:100CA0005F48408C401C5E494884B6E000205E49A5
:100CB00008705E4800785E4908705948408C401CB6
:100CC00057494884A9E0FF205A4908705448408C8D
:100CD000401C53494884A0E0802056490870504881
:100CE000408C401C4E49488497E0002051490870D0
:100CF0004B48408C401C4A4948848EE080204D4936
:100D000008704748408C401C4549488485E0FF20D6
:100D1000484908704248408C401C414948847CE066
:100D200022E074E08020434908703D48408C401C1C
:100D30003B49488471E000203E4908703848408CA7
:100D4000401C3749488468E03BE016E01EE026E09E
:100D500040E08020374908703148408C401C3049C1
:100D600048845AE03FE047E0FF20324908702C48B1
:100D7000408C401C2A4948844FE080202D4908704F
:100D80002748408C401C2649488446E000202949D9
:100D900008702348408C401C214948843DE0802055
:100DA000244908701E48408C401C1D49488434E08A
:100DB000FF20204908701A48408C401C184948847C
:100DC0002BE080201B4908701548408C401C1449BA
:100DD000488422E00020174908701148408C401CCC
:100DE0000F49488419E08020124908700C48408C53
:100DF000401C0B49488410E003F024F90848408C5B
:100E0000401C0749488408E000F09CFB05E00448CA
:100E1000408C401C0249488400BF00BF10BD000048
:100E2000E80B00206B03002021020020F2050020C7
:100E30001F0200202202002010B534480078082844
:100E400004DA33480078401C314908703048007893
:100E50000A2805D1FF202F49087000202E4908706C
:100E60002B480078092804DD29480078401C2849CF
:100E70000870274800780C2846DD032027490870B1
:100E80000A2027490870EB2026490870902026493F
:100E900008700A2025490870EB2025490870902029
:100EA000244908700A2024490870EB20234908705F
:100EB0009020234908700A2022490870EB2022491B
:100EC00008709020214908700020124908702048BD
:100ED000007808B9012000E000201D4908700C4886
:100EE00000780E2804D100201A4908700A490870B9
:100EF000074800780F2807DD002008490870012006
:100F0000154908700BF0B0FC10BD00000102002074
:100F1000F9050020F901002036060020F801002024
:100F20004302002044020020450200204602002027
:100F30004702002048020020490200204A02002007
:100F40004B0200204C0200204D0200204E020020E7
:100F5000770200206E0200201802002010B504F075
:100F60003FFB4FF4A06002F033F901F05FF940F26B
:100F7000DC51042001F022FF04F060FD04F084FE47
:100F800004F0C8FF0EF0A8FF0A2008F0ABFAFFF744
:100F900005FE4FF4FA7008F0A5FA002002F0ACF854
:100FA0000FF06AF800F006F801200149087010BD42
:100FB0003706002010B509A000F04EF84FF4E130DC
:100FC00000F084FA06480068012802D005A000F06D
:100FD00023F806A000F00EF810BD00003400000059
:100FE0007403002058474F4D494E49003132333485
:100FF0000000000010B50446214604A006F046F8A3
:10100000322008F06FFA00F019F810BD54544D3A30
:101010005057442D2573000010B50446214604A006
:1010200006F034F8322008F05DFA00F007F810BD41
:1010300054544D3A52454E2D2573000010B503A06F
:1010400006F024F8322008F04DFA10BD54544D3A01
:101050005253542D5359530010B50446214604A051
:1010600006F014F8322008F03DFAFFF7E7FF10BD54
:1010700054544D3A4250532D2573000010B586B09C
:1010800004460020029003900490059012480068E6
:101090000190002005E0411D625C011D01AB5A5426
:1010A000401C21788142F6DC00212078401D01AAF5
:1010B0001154012009490860322008F013FA002079
:1010C0000749C1F8B0024FF4167008F00BFA01A8F6
:1010D000FFF7A2FF06B010BDE0420108B082404217
:1010E0000080404230B52DED108B83B06D4890EDFF
:1010F000000AB5EEC00AF1EE10FA7DD16A4890ED13
:10110000000AB5EEC00AF1EE10FAF6D1674890ED8C
:10111000000AB5EEC00AF1EE10FAEED100249FED00
:10112000640BB0EE408AF0EE608A002519E0624858
:1011300000EBC50090ED001BB0EE410AF0EE610A35
:101140009FED5E1B53EC112B51EC100BFFF7A9F92F
:1011500041EC190B53EC182BFFF78AF841EC180BF4
:101160006D1C0A2DE3DB9FED570B53EC102B51EC5C
:10117000180BFFF76FFA16D29FED540B53EC102BA0
:1011800051EC180BFFF715F941EC1A0B9FED510BC1
:1011900053EC102BFFF713F941EC190BFFF70EFA84
:1011A0004E49087079E0012412E04D4800EB8400BC
:1011B00090ED000A10EE101A0846FFF737FA41ECDE
:1011C000190B53EC182BFFF745FA00D802E0641C0A
:1011D000102CEADB00BF601E414A02EB800090ED5C
:1011E000000A104600EB8400D0ED000A30EE600AE1
:1011F00010EE101A084600E050E0FFF717FA41EC35
:101200001C0B374800EB840090ED000A10EE101A1A
:101210000846FFF70BFA53EC182BCDE900019DEDC2
:10122000000B51EC100BFFF7C7F841EC1E0B601ED2
:101230002C4A02EB800090ED000A104600EB84007F
:10124000D0ED000A30EE600A10EE101A0846FFF7E3
:10125000EDF941EC1F0B53EC1E2BFFF7B0F841ECFE
:101260001D0B53EC1C2BFFF71CF941EC1A0B1D480E
:1012700000EB840090ED000A10EE101A0846FFF70C
:10128000D5F941EC1B0B53EC1A2BFEF7F1FF41ECA7
:10129000190BFFF793F91149087000BF03B0BDECBB
:1012A000108B30BDB0020020B4020020B802002034
:1012B00000000000000000004006002000000000C8
:1012C000000024409A9999999999194033333333FE
:1012D0003333164066666666666627400102002064
:1012E000E40200202403002010B52DED088B0446F5
:1012F000012008EE100A94ED000AD4ED010A30EE48
:10130000600A84ED080A94ED100A10EE101A0846DF
:10131000FFF78CF941EC190B94ED080A10EE101A46
:101320000846FFF783F941EC1B0BB0EE4B0AF0EED9
:101330006B0A06F0F9FCB0EE40AAF0EE60AA53EC9E
:10134000192B51EC1A0BFFF785F907D89FED3B0AD3
:1013500084ED080A9FED390A84ED0A0A94ED0A0A21
:10136000D4ED080A30EE200A84ED0A0A94ED0E0A44
:1013700010EE101A0846FFF759F941EC190B94EDDD
:10138000080A10EE101A0846FFF750F941EC1B0B43
:10139000B0EE4B0AF0EE6B0A06F0C6FCB0EE40AAC7
:1013A000F0EE60AA53EC192B51EC1A0BFFF76AF917
:1013B00002D2002008EE100A94ED020AD4ED080AC9
:1013C00020EE200AD4ED030A94ED0A1A60EE810A99
:1013D000B8EE481A00EE810AD4ED080A94ED091A15
:1013E00070EEC10A94ED041A01EE200A84ED0B0A96
:1013F00094ED080A84ED090A94ED0B0AD4ED0C0A69
:10140000B4EEE00AF1EE10FA04DD94ED0C0A84ED7E
:101410000B0A10E094ED0B0AD4ED0C0AF1EE600A11
:10142000B4EEE00AF1EE10FA05D294ED0C0AB1EE3A
:10143000400A84ED0B0ABDEC088B10BD00000000D3
:1014400010B52DED068B0421012001F015F804469E
:10145000FFF7A7F841EC1A0B9FED140B53EC102B80
:10146000FEF7ADFF41EC190B9FED120B53EC102B67
:10147000FEF7A5FF41EC180B9FED100B53EC102B62
:10148000FFF70FF80F4A104B1B7802EBC30203C2A1
:101490000D480078401CC0B20B4908700A2801D1E1
:1014A00000200870BDEC068B10BD00006666666605
:1014B00066660A40000000000000084000000000CE
:1014C0000000B04040060020900600201FB50446F2
:1014D00000210E4804F061FE00940020ADF80400E5
:1014E000ADF80600ADF80800ADF80C000C20ADF822
:1014F0000A006946054804F027FF0121034804F06B
:101500004CFE142007F0EEFF1FBD00000044004019
:1015100070B50446049DA14209DC944207DC601AC0
:10152000EE1A7043561A90FBF6F0184470BD8C42C8
:1015300001DA1846FAE7944201DD2846F6E74FF053
:10154000FF30F3E710B500F021F84FF4C87010F049
:101550006BFC0548006810B10120044908700020A8
:101560000349087010BD000070030020F70500203B
:10157000F9010020002004E00021034A22F81010A5
:10158000401C1E28F8DB7047E80B002008B500203F
:101590002649087080202649087026490870264987
:1015A00008802649087000202549087025490870E0
:1015B0002549087025490870254908702549087093
:1015C0002549087080202549087025490870FF20AA
:1015D000002373224B2100906C20FFF799FF2149D3
:1015E0000870802020490870204908702049087040
:1015F0009FED200A204880ED000A00201F49087056
:101600001F4908701F4908701F4908709FED1F0A85
:101610001F4880ED000A4FF4FA6010F005FC01202D
:101620001C490870FFF7A6FF08BD00000006002057
:101630001A0200201B020020680200201C02002069
:10164000260200202302002024020020280200207D
:101650002702002029020020250200201D02002070
:101660001E0200201F020020210200202002002074
:101670002202002000000000BC02002069030020BC
:101680006A030020680300206B03002000002F4441
:1016900078030020F801002030B503460C460021F5
:1016A00007E0585C655CA84200D101E0002030BD35
:1016B000491C9142F5DB0120F9E7000010B51B48F9
:1016C000C08830B10A280FD076281BD0782824D1C2
:1016D00020E0FFF75BFF0020154908701348C08821
:1016E000401C1249C8801EE09FED120A124880ED8E
:1016F000000AE020114908700C48C088401C0B49C2
:10170000C88010E002F09EFC0848C088401C0749D1
:10171000C88008E0FFF716FF05E00448C088401CB9
:101720000249C88000BF00BF10BD0000E80B0020C8
:101730001F0200200080D444780300201A020020F9
:1017400010B54B480078F0B14A480068D8B1484815
:101750000078401C4649087008460078232812D1BA
:1017600000200870444800784449087042480078D6
:10177000152803D101204049087004E03E48007854
:10178000401C3D4908703D4800780B2843D008DCD8
:1017900068D2DFE800F01F2225282B2E3134373A9B
:1017A0003D00112849D008DCA0F10C00052859D2D1
:1017B000DFE800F034373A3D4000142846D004DC1E
:1017C00012283DD013284DD13DE0152841D0FF28E7
:1017D00048D141E0FFF7CEFE48E000F069FE45E069
:1017E00000F096FE42E0FFF769FF3FE004F02AF8C0
:1017F0003CE001F00FFB39E003F0B6F936E004F00D
:10180000C5F833E004F044F830E004F0EBF82DE0E4
:1018100004F06AF82AE001F091FD27E003F0FEF8F9
:1018200024E005F089F821E003F042FC1EE003F01B
:1018300029FD1BE003F0EAFD18E0FFF7F5F915E0DC
:1018400000F0D0FA12E000F08FFF0FE003F0E6F9AD
:101850000CE005F02BF809E002F08AFC00200749B3
:10186000087003E000200549087000BF00BF10BDEC
:10187000F705002070030020F8050020F901002082
:101880000246094B9A4201D2084801E00648103846
:1018900001F000531BB1064B0B40C36002E0044B48
:1018A0000B408360704700001064024000600240FB
:1018B0007D0F7D0F21B1026842F00102026003E05A
:1018C000026822F00102026070470000016821F006
:1018D000010101600021016041608160C16001611E
:1018E000212141614A49884204D13D21484A103AA8
:1018F00091608CE046491831884205D14FF47461FB
:10190000434A103A916082E041493031884205D122
:101910004FF474113E4A103A916078E03C494831E6
:10192000884205D14FF07461394A103A91606EE0F7
:1019300037496031884204D13649354A103AD1607E
:1019400065E033497831884204D13349304A103A4E
:10195000D1605CE02E499031884204D12F492C4A55
:10196000103AD16053E02A49A831884205D14FF09E
:101970003D51274A103AD16049E02949884204D1B3
:101980003D21274A083A116041E025491831884233
:1019900005D14FF47461224A083A116037E02049BA
:1019A0003031884205D14FF474111D4A083A116054
:1019B0002DE01B494831884205D14FF07461184A27
:1019C000083A116023E016496031884204D1114978
:1019D000134A121F11601AE011497831884204D16C
:1019E0000D490F4A121F116011E00D4990318842D4
:1019F00004D10A490A4A121F116008E00849A831B7
:101A0000884204D14FF03D51054A121F11607047C2
:101A1000106002403D000020400F002000003D20EB
:101A200010640240014600200A6802F001020AB177
:101A3000012000E0002070470146486880B27047EE
:101A400010B500220268134B1A40CC680B68234380
:101A50004C6923438C692343CC6923430C6A234399
:101A60004C6A23438C6A23434C6B23438C6B234384
:101A70001A430260426922F00702D1E90B34234382
:101A80001A4342610B6943604B6883608B68C36093
:101A900010BD00003F801CF001B509E0002000E00F
:101AA000401C4CF250318842FAD30099491E0091F3
:101AB00000990029F2D108BD10B5802000F05AF835
:101AC00000283CD00A2007F00DFD80211C4800F0C2
:101AD000B2FC68B900201B4908701B49087001203E
:101AE0001A49087000201A4908700AF0BDFE23E068
:101AF0001448007800BB174890ED000AB1EE400A88
:101B0000154880ED000A154890ED000AB1EE400A34
:101B1000134880ED000A00200B4908700B4908703B
:101B200001200B4908700F4908600AF09DFE0EF075
:101B3000A3FA012003490870802000F015F810BDB9
:101B4000000002406E020020F80100201802002070
:101B500019020020D4060020B4050020D806002079
:101B6000B805002074030020014908607047000098
:101B7000143C0140014600200022074B1B6803EA89
:101B80000102054B14331B680B4013B10AB101204D
:101B900000E0002070470000003C01400021234984
:101BA0008279002A3AD00A46126803689A430B46A3
:101BB0001A600A1D126803689A430B1D1A600279A5
:101BC00011440A6803681A430A60184A0832126806
:101BD00003689A43154B08331A601A1D126803688C
:101BE0009A43124B0C331A604279102A0ED11A1FF5
:101BF000126803681A430D4B08331A601A1D1268E5
:101C000003681A43094B0C331A600DE00749427907
:101C100011440A6803681A430A6005E00279114416
:101C20000A6803689A430A6070470000003C01405C
:101C300070B505460C4622462821284612F0A2F926
:101C400070BD000030B10749096841F48061054A60
:101C5000116005E00349096821F48061014A1160BF
:101C600070470000003C024070B504460A4600265A
:101C7000082502B909E0012A01D1160205E0022A6D
:101C800001D1160201E04FF4407600F099F80546C4
:101C9000082D28D11548006820F4407013490860C9
:101CA00008460068304308600846006820F0F800E5
:101CB00008600846006844F0020108430B490860C8
:101CC0000846006840F48030086000F079F8054666
:101CD0000648006820F002000449086008460068D1
:101CE00020F0F8000860284670BD0000103C02405B
:101CF00008201049096801F48031B1F5803F01D115
:101D0000012015E00B49096801F0100109B1052017
:101D10000EE00849096801F0EF0109B1062007E06B
:101D20000449096801F0020109B1072000E0082018
:101D3000704700000C3C02400348006840F000403F
:101D40000149086070470000103C024030B502466F
:101D50000C46082500F034F80546082D19D10E4828
:101D6000006820F440700C4908600846006840F4A0
:101D7000007008600846006840F0010008601460C8
:101D800000F01EF805460448006820F001000249F2
:101D90000860284630BD0000103C0240054800683D
:101DA00000F0004028B1044802490C39086003489B
:101DB00008607047103C024023016745AB89EFCDB6
:101DC00008B508200090FFF793FF009002E0FFF7AE
:101DD0008FFF00909DF800000128F8D09DF80000CA
:101DE00008BD000010B5F948808C602871D02BDC4C
:101DF00020286FD013DC14286DD007DCF0B3052841
:101E000058D010286AD0122867D174E016286ED0F6
:101E100018286DD01C286CD01E28F5D1A5E05628B6
:101E200068D008DC22286FD024286ED026286DD0F8
:101E30002D28E9D1D3E0582869D05A2868D05C28E9
:101E400067D05E28E0D116E1742875D00EDCA0F1D1
:101E50006200112841D2DFE800F0F240F140F0408A
:101E6000EF40EE40ED40EC40EB40EA007E2876D0BB
:101E70000ADC762874D0782873D000E00BE07A284A
:101E800070D07C28C0D17DE187286CD08C286BD0A5
:101E90009128B9D1AEE1FFF779FBCD4800880FF06A
:101EA000C3FF0120CB490870C848808C401CC7493B
:101EB0008884A8E1C820C84908702820C74908704C
:101EC000FF20C7490870C148808C401CBF498884E6
:101ED00099E1D9E052E01DE000E08EE1DC20C1494B
:101EE0000870BA48808C401CB84988848BE11AE09D
:101EF00023E02BE085E0E620B9490870B348808CE8
:101F0000401CB24988847EE141E049E051E097E01D
:101F10009FE0A7E0FF20B2490870AC48808C401CCD
:101F2000AA4988846FE1E620AD490870A748808CF3
:101F3000401CA649888466E100E1FF20A84908709A
:101F4000A248808C401CA14988845CE12320A549DB
:101F500008709E48808C401C9C49888453E11AE19B
:101F6000F5E0FDE005E11FE127E1E6209C4908706E
:101F70009648808C401C9549888444E1FF2098490C
:101F800008709248808C401C904988843BE1E62090
:101F9000934908708D48808C401C8C49888432E1BC
:101FA000FF208F4908708948808C401C87498884AD
:101FB00029E14FF4FA700FF037FF8020894908704B
:101FC0006420874908701420844908708020824961
:101FD00008707E48808C401C7C49888413E140F264
:101FE000A4600FF021FF9FED800A804880ED000A79
:101FF000D8207F4908707548808C401C73498884BC
:1020000001E1C82074490870714800880FF00CFF86
:10201000FF207349087080207549087028206F4997
:1020200008706A48808C401C68498884EBE07CE03A
:1020300072E068E05EE054E04AE040E036E02CE028
:10204000DC20684908706148808C401C5F498884A6
:10205000D9E0E620624908705C48808C401C5B49EE
:102060008884D0E0E6205E4908705848808C401C87
:1020700056498884C7E0FF20594908705348808C2E
:10208000401C52498884BEE0E620554908704F48FC
:10209000808C401C4D498884B5E02320514908704C
:1020A0004A48808C401C49498884ACE0E6204C4971
:1020B00008704648808C401C44498884A3E0FF2077
:1020C000474908704148808C401C404988849AE008
:1020D000E620434908703D48808C401C3B49888479
:1020E00091E0FF203E4908703848808C401C3749F9
:1020F000888488E0DC203B4908703448808C401C90
:10210000324988847FE0E620354908702F48808C6A
:10211000401C2E49888476E0E620314908702B481F
:10212000808C401C294988846DE0FF202C49087070
:102130002648808C401C2549888464E0E620284994
:1021400008702248808C401C204988845BE0232052
:10215000244908701D48808C401C1C49888452E02A
:10216000E6201F4908701948808C401C1749888454
:1021700049E0FF201A4908701448808C401C13491C
:10218000888440E0E620164908701048808C401C86
:102190000E49888437E0FF20114908700B48808C75
:1021A000401C0A4988842EE064200B4908700748C7
:1021B000808C401C0549888425E001F043FF0348DA
:1021C000808C401C014988841DE00000E80B002041
:1021D000F40500206B0300201D0200201F020020D8
:1021E00021020020220200200080D4447803002035
:1021F0001A020020FFF7A6F905E00448808C401C75
:102200000249888400BF00BF10BD0000E80B002019
:1022100001B52DED020B01466A46002002E0135C79
:102220000B54401C0428FADB0EBD000000B585B03D
:102230000121084601F07EF90121022001F07AF91E
:102240000121042001F076F90121880301F0A2F9AF
:102250004FF44050039001208DF8100003208DF8BA
:10226000110000208DF8120002208DF8130003A940
:10227000344800F075F80020334908603349C1F84C
:10228000B40241F20250039002208DF8130003A91A
:102290002F4800F065F801202E49086000202D49E4
:1022A0000839086001202B49103908602A49C1F813
:1022B0008402C002039000208DF8100002208DF8E7
:1022C000110000208DF8130003A9214800F048F800
:1022D0004FF44040039001208DF8120003A91948E3
:1022E00000F03EF88020039000208DF810000220BE
:1022F0008DF8110000208DF8120003A9174800F096
:102300002FF80721002001F0EDFF80200190002030
:102310008DF8080010208DF8090001208DF80A00C2
:1023200001A8FFF73BFC17208DF8000001208DF875
:1023300001008DF802008DF80300684600F00CFFE4
:1023400005B000BD00040240B0824042008040421F
:1023500000080240B0024142000041420000024039
:10236000F0B50A4600210023002400BF3DE001250E
:1023700005FA01F3156805EA03049C4234D10568A7
:102380004F000326BE40B543056015794E00B540A9
:102390000668354305601579012D02D01579022DA7
:1023A00016D185684F000326BE40B5438560557938
:1023B0004E00B540866835438560456801268E40ED
:1023C000B5434560456896798E40B6B23543456061
:1023D000C5684F000326BE40B543C560D5794E00A1
:1023E000B540C6683543C560491C1029BFD3F0BD50
:1023F000F0B5002300244D07ED0E02FA05F3CE10D0
:1024000000F1200555F826504E07F70E0F26BE4066
:10241000B543CF1000F1200646F82750CE1000F14A
:10242000200555F8265045EA0304CE1000F120059A
:1024300045F82640F0BD0246002013690B400BB161
:10244000012000E00020704710B504460723012258
:1024500021460848FEF740FB0648FEF799FB00BFFF
:1024600002210448FEF704FB0028F9D00148FEF7DA
:10247000FBFA10BD002001402DE9F04106460C4654
:102480000027012E0DD1002508E00120FFF7DCFF19
:1024900007440A2007F034F8681CC5B2A542F4DBF3
:1024A00000E000BF00BFB7FBF4F080B2BDE8F081F0
:1024B00010B51548408820B1282811D02A281AD1F3
:1024C00016E0FFF763F80020104908704FF416700B
:1024D0000FF0AAFC0C484088401C0B49488010E0D3
:1024E00001F0B0FD08484088401C0749488008E0DA
:1024F000FFF728F805E004484088401C024948805E
:1025000000BF00BF10BD0000E80B00201F0200202C
:1025100010B51548808820B1262811D028281AD156
:1025200016E0FFF733F8FF20104908704FF41670DB
:102530000FF07AFC0C488088401C0B49888010E022
:1025400009488088401C0849888001F07BFD08E02C
:10255000FEF7F8FF05E004488088401C02498880A7
:1025600000BF00BF10BD0000E80B00201F020020CC
:102570006B48007800287AD002206A4908706848C1
:10258000007801282DD168480078A8B1674890EDFF
:10259000020ADFED670A30EE600A80ED020A654844
:1025A00090ED020ADFED620A30EE600A80ED020A69
:1025B00000205D49087014E05C4890ED020ADFEDF0
:1025C0005C0A30EE200A80ED020A5A4890ED020AB9
:1025D000DFED570A30EE200A80ED020A0120524951
:1025E00008704F48007802282DD14F480078A8B1D4
:1025F000514890ED020ADFED4E0A30EE600A80EDA0
:10260000020A4E4890ED020ADFED490A30EE600AF8
:1026100080ED020A00204449087014E0464890ED1D
:10262000020ADFED430A30EE200A80ED020A434839
:1026300090ED020ADFED3E0A30EE200A80ED020A3C
:1026400001203949087036480078032867D1364898
:102650000078B8B9384890ED020ADFED350A30EE5F
:10266000200A80ED020A354890ED020A00E053E0AE
:10267000DFED2F0A30EE200A80ED020A01202A4900
:1026800008704CE028480078012815D12A4890EDC0
:10269000020ADFED270A30EE600A80ED020A2748C1
:1026A00090ED020ADFED220A30EE600A80ED020AA8
:1026B00002201D49087032E01B480078022815D11D
:1026C0001A4890ED020ADFED1A0A30EE200A80ED7A
:1026D000020A184890ED020ADFED150A30EE200AD2
:1026E00080ED020A03201049087018E00F4890EDB1
:1026F000020ADFED0F0A30EE600A80ED020A0D4893
:1027000090ED020ADFED0A0A30EE600A80ED020A5F
:1027100000200549087002E0002003490870704756
:10272000FB050020F8010020FA050020E800002049
:1027300000002042480100201801002078010020FC
:1027400002460021918921F00C0141F004019181A0
:102750000020704702460021918921F00C0141F0D0
:10276000080191810020704710B5C748C08C91289E
:102770006FD01BDC50286DD00BDC32286DD003DC11
:1027800088B30A2868D137E0462876D04B28F9D19B
:1027900080E05F286ED004DC55286CD05A28F1D137
:1027A0009AE0642868D08C28ECD1B3E0AF286ED0D2
:1027B0000CDCA0286CD004DC96286AD09B28E1D1E0
:1027C000C6E0A52870D0AA28DCD1DFE0D5286CD0DF
:1027D00004DCC8286AD0D128D4D103E1D82870D02D
:1027E000DC28CFD144E1FFE7FEF7D0FEA648C08C3D
:1027F000401CA549C88444E10320A44908708020F6
:10280000A3490870AA20A3490870EB20A2490870C8
:102810005F20A2490870A520A1490870EB20A149BA
:1028200008708020A0490870EB20A049087046205D
:102830009F49087080209F490870EB209E490870CE
:1028400046209E4908709048C08C401C8E49C88420
:1028500017E169E02BE000E00DE1FF2098490880D6
:1028600082208C4908708848C08C401C8649C884E6
:1028700007E102E03AE025E042E09248007886492C
:1028800008708148C08C401C7F49C884F9E087E00B
:1028900068E053E08C4800787F4908707A48C08C23
:1028A000401C7949C884ECE066E0C5E082E08548D8
:1028B0000078794908707448C08C401C7249C884FB
:1028C000DFE0CDE080480078734908706E48C08C26
:1028D000401C6D49C884D4E07A4800786E4908707D
:1028E0006948C08C401C6849C884CAE076480078B2
:1028F000694908706448C08C401C6349C884C0E0C2
:1029000070480078644908705F48C08C401C5E497C
:10291000C884B6E06B4800785F4908705A48C08C9C
:10292000401C5949C884ACE0674800785A4908708F
:102930005548C08C401C5449C884A2E061480078C6
:10294000554908705048C08C401C4F49C88498E0D5
:102950005D480078504908704B48C08C401C4A497B
:10296000C8848EE0574800784B4908704648C08CB0
:10297000401C4549C88484E05348007846490870A3
:102980004148C08C401C4049C8847AE04D480078DA
:10299000414908703C48C08C401C3B49C88470E0E9
:1029A000494800783C4908703748C08C401C36497B
:1029B000C88466E0802036490870AA20354908702E
:1029C000B92035490870802034490870A520344961
:1029D0000870B920334908702B48C08C401C2A4924
:1029E000C8844EE080202A490870AA20294908702E
:1029F000B92029490870802028490870A520284955
:102A00000870B92027490870802027490870EB20FA
:102A100026490870822026490870802025490870C0
:102A2000EB20254908708220244908701648C08C84
:102A3000401C1549C88424E00320144908708020F4
:102A40001F49088015490870A52015490870AA205B
:102A5000144908700C48C08C401C0B49C88410E015
:102A600001F0F0FA0848C08C401C0749C88408E00F
:102A7000FEF768FD05E00448C08C401C0249C8848C
:102A800000BF00BF10BD0000E80B0020F8010020CF
:102A9000450200204402002043020020480200209A
:102AA00047020020460200204B0200204A0200207C
:102AB000490200204E0200204D0200204C0200205E
:102AC00068020020F1050020F2050020054B1B786C
:102AD0001BB1130A03700A7002E0130A0B70027034
:102AE000704700002407002010B50F48008840F40C
:102AF00000700D4908800846008840F48070088006
:102B000000F040F90848801E008840F40070064933
:102B1000891E088000F036F90348008840F40070F0
:102B20000149088010BD00001A04024010B50F488A
:102B3000008840F400700D490880881E008840F429
:102B40008070891E088000F01DF90848801E0088EA
:102B500040F400700549891E088000F013F903480D
:102B6000008840F400700149088010BD1A0402403A
:102B700070B5082500241948008840F48070174972
:102B800008801BE06006040E1448801C008840F496
:102B900000701249891C088000F0F4F80F48008882
:102BA00040F400700D4908800C480838006800F4B3
:102BB000807008B144F0010400F0DAF8281EA5F195
:102BC0000101CDB2DED10548801C008840F40070C0
:102BD0000249891C0880204670BD0000180402408C
:102BE00070B50446082527E01A48008840F40070B4
:102BF0001849088000F0C6F804F0800040B115487C
:102C0000801E008840F480701249891E088005E00B
:102C10001048008840F480700E4908806006040E59
:102C200000F0B0F80B48801E008840F4007009499D
:102C3000891E088000F0A6F8281EA5F10101CDB27A
:102C4000D2D10448008840F400700249088000F0A6
:102C500099F870BD1A04024010B51948008840F474
:102C60008070174908800846008840F4007008808A
:102C700000F092F812480838006800F4807008B933
:102C8000002010BD0E48801C008840F480700C4964
:102C9000891C088000F080F809480838006800F4B2
:102CA000807008B10020ECE70548801C008840F4E3
:102CB00080700349891C088000F06EF80120E0E76D
:102CC0001804024010B50E48008840F400700C490A
:102CD00008800846008840F48070088000F05CF8A6
:102CE0000748801E008840F400700549891E08804E
:102CF0000846008840F48070088000F04DF810BD50
:102D00001A04024010B51948008840F400701749B1
:102D1000088000F02DF81548801E008840F480706F
:102D20001249891E088000F023F81048801E008890
:102D300040F400700D49891E088000F019F80B4816
:102D40000A38006800F4807038B10848008840F400
:102D5000007006490880002010BD0448008840F437
:102D60000070024908800120F6E700001A040240C2
:102D700008B50720009000BF0098411E0091002870
:102D8000FAD108BD08B50E20009000BF0098411E82
:102D900000910028FAD108BD08B51C20009000BFA2
:102DA0000098411E00910028FAD108BD4CF6CC4095
:102DB00001490860704700000030004070B50546CA
:102DC0000C4645F2555000F01FF8284600F010F868
:102DD000204600F013F800F003F8FFF7E7FF70BD9E
:102DE0004AF6AA2001490860704700000030004000
:102DF0000149486070470000003000400149886088
:102E00007047000000300040014908607047000032
:102E10000030004010B51748408920B1372815D040
:102E20003C281ED11AE0FEF7B1FB00200EF0FCFF9B
:102E3000962011490870B3EE090A104880ED000A87
:102E40000C484089401C0B49488110E009484089E2
:102E5000401C0849488101F0F5F808E0FEF772FBD4
:102E600005E004484089401C0249488100BF00BF7A
:102E700010BD0000E80B002026020020FC0100200D
:102E800043888B4200DC41804388934200DB4280D0
:102E900070470000904890ED000AF2EE000A80EEC4
:102EA000201A8E4890ED030AB4EEC01AF1EE10FA23
:102EB00006DB60208A49087040208A4908700AE1D0
:102EC000854890ED000AF2EE000A80EE201A834851
:102ED00090ED030AB4EEC01AF1EE10FA56D27E4815
:102EE00090ED000AF0EE080A20EE200AF2EE000A49
:102EF00080EE201A794890ED030AB4EEC01AF1EE84
:102F000010FA43DB744890ED000AF2EE000A80EEFE
:102F1000201A724890ED030A30EE410ADFED720A82
:102F200020EE200A6C48D0ED000AB1EE001AC0EE87
:102F3000811AC0EE210ABDEEE00A10EE100A6030E0
:102F4000674908706448D0ED000AB2EE001A80EEBE
:102F5000810A6248D0ED030A30EEC00ADFED630A51
:102F600020EE200A5C48D0ED000AB1EE001AC0EE57
:102F7000811AC0EE210A9FED5E0A30EE800ABCEE97
:102F8000C00A10EE100A57490870A4E0524890EDAC
:102F9000000AF0EE080A20EE200AF2EE000A80EEA7
:102FA000201A4E4890ED030AB4EEC01AF1EE10FA62
:102FB0007DD2494890ED000AF1EE0C0A20EE200A7D
:102FC000F2EE000A80EE201A444890ED030AB4EEB7
:102FD000C01AF1EE10FA78DB3F4890ED000AF0EEEF
:102FE000080A20EE200AF2EE000A80EE201A3B4882
:102FF00090ED030A30EE410ADFED3B0A20EE200A95
:103000003548D0ED000AB0EE001AC0EE811AC0EECD
:10301000210ABDEEE00A10EE100AC0F1C0003049EE
:1030200008702D4890ED000AF0EE080A20EE200A04
:10303000F2EE000A80EE201A284890ED030AB4EE62
:10304000C01AF1EE10FA18D2234890ED000AF1EE02
:10305000040A60EE200AB2EE001A80EE810A1F48D0
:10306000D0ED030AB4EEE00AF1EE10FA05DBB2EEA1
:10307000080A204880ED010A2DE0174890ED000A6B
:10308000F1EE040A20EE200AF2EE000A80EE201A89
:10309000124890ED030A30EE410ADFED140A20EEEB
:1030A000200A0D48D0ED000AB1EE001A00E00CE055
:1030B000C0EE811AC0EE210ABDEEE00A10EE100A41
:1030C000C0F1C0000749087005E06020044908709D
:1030D000402004490870704778030020E800002071
:1030E0001D0200201E0200200000C042000000431C
:1030F00000008042BC01002070B504460DF02CFD9C
:10310000C5B20222372168200CF03AFF0220FEF7F8
:10311000C3FCF5B978200EF0EBFA78200DF002FC34
:1031200064200EF08BFA06F06FFB0A480DF096F85B
:10313000064606F0C3FD40F2731006F00DFA642057
:1031400006F0ECFC012C01D10EF07CFC01200EF00D
:1031500071F970BD0C07002070B5002100230F220B
:10316000C4781CB3174C246804F4E064C4F5E0642C
:10317000C4F30721C1F10404E3B20A4144789C403E
:10318000E1B28478144021430C07210E0E4C0578DF
:103190006155047804F01F050124AC4005786D11D9
:1031A000AD0005F1E025C5F8004109E0047804F020
:1031B0001F050124AC40054D0678761145F82640E0
:1031C00070BD00000CED00E000E400E080E100E0F4
:1031D00002490143024A1160704700000000FA05ED
:1031E0000CED00E010B5FDF727FE40480068002810
:1031F00058D13F480078082807DD3E48007808B9D4
:10320000012000E000203B4908703B48007801287D
:1032100005D1FF2039490870002039490870364827
:10322000007802282AD103203649087040F24C4029
:103230000EF0FAFD002034490870F220334908707E
:103240009C2033490870052032490870F220324929
:1032500008709C2031490870002031490870F22024
:10326000304908709C203049087000202F490870B0
:10327000F2202F4908709C202E4908701E480078C3
:10328000032802D100202C4908701B480078401CFC
:10329000C0B219490870082822D1002013497C3196
:1032A00008601DE01448007868B1012015490870D5
:1032B0002149087000200EF0B7FD01201049087068
:1032C000FF200E49087000200B49087001200749B3
:1032D0007C3108600B48007810B101200549087066
:1032E0000448007801498431086010BD2C02414235
:1032F0000102002077020020F0050020F9010020E3
:1033000036060020F801002043020020440200207D
:10331000450200204602002047020020480200200B
:10332000490200204A0200204B0200204C020020EB
:103330004D0200204E0200206E02002010B56D48A4
:10334000C08A642878D00BDC1E284BD003DC80B107
:103350000A2872D115E0322874D05A28F9D180E0B9
:103360006E286CD082286BD09B286AD0A028F0D120
:10337000B4E0FEF70BF95F48C08A401C5D49C88283
:10338000B5E05D4800785D49088003205C4908701D
:1033900080205C490870FF205B49087064205B490D
:1033A000087080205A490870FF205A49087064202C
:1033B00059490870802059490870FF205849087001
:1033C000642058490870802057490870FF205749E9
:1033D00008706420564908704648C08A401C454918
:1033E000C88284E06E2047490870FF204649087073
:1033F000642046490870922045490870DC20454900
:1034000008708C2044490870922044490870DC20E0
:10341000434908708C20434908706E204249087067
:10342000FF20424908706420414908703148C08A31
:10343000401C3049C8825AE022E052E002E02EE00F
:103440003CE043E0FF2035490870DC203449087037
:103450008C20344908702748C08A401C2549C882FE
:1034600045E0FA202D490870DC202D4908708220A3
:103470002C4908701F48C08A401C1E49C88236E08B
:10348000FA2026490870DC20254908708C2025493F
:1034900008701848C08A401C1649C88227E06E2070
:1034A0001E490870FF201E49087064201D490870DD
:1034B0001048C08A401C0F49C88218E00EF01EFA5E
:1034C0000C48C08A401C0B49C88210E000F0BAFDCD
:1034D0000848C08A401C0749C88208E0FEF732F855
:1034E00005E00448C08A401C0249C88200BF00BFF2
:1034F00010BD0000E80B0020F60500206802002047
:10350000F801002045020020440200204302002070
:103510004802002047020020460200204B02002003
:103520004A020020490200204E0200204D020020E5
:103530004C02002029B1064A12680243044B1A606B
:1035400004E0034A12688243014B1A60704700008E
:103550003038024029B1064A12680243044B1A600F
:1035600004E0034A12688243014B1A60704700006E
:103570004038024029B1064A12680243044B1A60DF
:1035800004E0034A12688243014B1A60704700004E
:103590002038024029B1064A12680243044B1A60DF
:1035A00004E0034A12688243014B1A60704700002E
:1035B0004438024029B1064A12680243044B1A609B
:1035C00004E0034A12688243014B1A60704700000E
:1035D00024380240F0B500210022002402250026F4
:1035E0000223324F3F6807F00C0121B1042905D0B6
:1035F000082937D105E02E4F076036E02D4F0760D0
:1036000033E02A4F3F1F3F68C7F38056274F3F1FC5
:103610003F6807F03F036EB1264FB7FBF3F7DFF8C3
:103620008CC0ACF1040CDCF800C0CCF3881C07FBA8
:103630000CF40CE01E4FB7FBF3F7DFF870C0ACF1F1
:10364000040CDCF800C0CCF3881C07FB0CF4174F0B
:103650003F1F3F68C7F301477F1C7D00B4FBF5F7B0
:10366000076002E0124F076000BF00BF0F4F3F68C6
:1036700007F0F0010909104F7A5C0768D7404760EE
:103680000A4F3F6807F4E051890A0B4F7A5C47689C
:10369000D7408760054F3F6807F46041490B064FEC
:1036A0007A5C4768D740C760F0BD00000838024028
:1036B0000024F40000127A003C070020F0B52DED44
:1036C000108B9FB09FEDFE0AB0EE40CA9FEDFC0A42
:1036D000F0EE40CA9FEDFA0AB0EE40DA9FEDF80A2C
:1036E000F0EE40DA9FEDF60AB0EE40EA9FEDF40A04
:1036F000F0EE40EA9FEDF20AB0EE40FA9FEDF00ADC
:10370000F0EE40FA9FEDEE0A8DED1E0A9FEDEC0AF9
:10371000B0EE408A9FEDEA0AF0EE408A9FEDE80A9B
:10372000B0EE409A9FEDE60A8DED1D0A9FEDE40A8A
:103730008DED1C0A9FEDE20A8DED1B0A9FEDE00A5C
:1037400010EE104A9FEDDE0A10EE105A9FEDDC0AD3
:1037500010EE106A9FEDDA0AF0EE409A9FEDD80A5B
:10376000B0EE40AA9FEDD60AF0EE40AA9FEDD40A33
:103770008DED1A0A9FEDD20AB0EE40BA9FEDD00A45
:10378000F0EE40BA00201790189019901490159000
:1037900016901190129013900E900F90109007F0C9
:1037A000ABF8C848007828B9C748007810B9C748AE
:1037B0000078E8B3C64890ED000AC648D0ED000A8C
:1037C00080EE201A9FEDC40A21EE000A10EE107A56
:1037D0003846FCF72BFFCDE904019DED040B05F005
:1037E000D7F88DED080BBD4890ED080A10EE101AC1
:1037F0000846FCF71BFFCDE906019DED080B53ECD5
:10380000102B9DED060B51EC100BFCF7D8FD9FED36
:10381000B40B53EC102BCDE90A019DED0A0B51ECD2
:10382000100BFCF73EFECDE90C019DED0C0B00E00A
:1038300005E051EC100BFCF73DFFA8490860A248D9
:103840000078E8B3A848D0ED000AA84890ED001A27
:1038500080EE810ADFEDA00A20EE200A10EE107A39
:103860003846FCF7E3FECDE904019DED040B05F0BD
:103870008FF88DED080B994890ED090A10EE101A9B
:103880000846FCF7D3FECDE906019DED080B53EC8D
:10389000102B9DED060B51EC100BFCF790FD9FEDEE
:1038A000900B53EC102BCDE90A019DED0A0B51EC66
:1038B000100BFCF7F6FDCDE90C019DED0C0B00E0C3
:1038C00005E051EC100BFCF7F5FE844948607F4899
:1038D0000078002864D0814890ED0A0AD0ED0B0AE8
:1038E00030EE200AF0EE000A80EE201A11EE107A77
:1038F0003846FCF79BFECDE90A017D4890ED000AB1
:103900007C4890ED001AC0EE010A9FED730A20EE8C
:10391000800A10EE107A3846FCF788FECDE90001E7
:103920009DED000B05F034F88DED040B6B4890ED28
:103930000A0AD0ED0B0A30EE600A10EE101A0846A3
:10394000FCF774FECDE902019DED040B53EC102B46
:103950009DED020B51EC100BFCF731FD9FED660B5A
:1039600053EC102BCDE906019DED060B51EC100B2D
:10397000FCF797FDCDE908019DED0A0B53EC102BE8
:103980009DED080B51EC100BFCF772FCCDE90C011E
:103990009DED0C0B51EC100BFCF78CFE4F49886031
:1039A0004E4890ED000AD0ED080AB4EEE00AF1EEC0
:1039B00010FA03DD90ED080A80ED000A474890ED0B
:1039C000000AD0ED080AF1EE600AB4EEE00AF1EE6A
:1039D00010FA05D290ED080AB1EE400A80ED000A17
:1039E0003E4890ED010AD0ED090AB4EEE00AF1EE8E
:1039F00010FA03DD90ED090A80ED010A374890EDD9
:103A0000010AD0ED090AF1EE600AB4EEE00AF1EE27
:103A100010FA05D290ED090AB1EE400A80ED010AD4
:103A20002E4890ED020AD0ED0B0AB4EEE00AF1EE5A
:103A300010FA03DD90ED0B0A80ED020A274890EDA5
:103A4000020AD0ED0A0AB4EEE00AF1EE10FA03D24F
:103A500090ED0A0A80ED020A204890ED050AD0EDAB
:103A60000C0AB4EEE00AF1EE10FA03DD90ED0C0A58
:103A700080ED050A194890ED050AD0ED0C0AF1EE2B
:103A8000600AB4EEE00AF1EE10FA05D290ED0C0AED
:103A9000B1EE400A80ED050A104890ED060AD0ED1F
:103AA0000D0AB4EEE00AF1EE10FA03DD90ED0D0A16
:103AB00080ED060A094890ED060AD0ED0D0A1FE0D8
:103AC0000000000027020020280200202902002018
:103AD0009403002088030020C3F5C840BC010020E7
:103AE0000000000000000040980300208C0300202C
:103AF0009C0300209003002000000000000008400C
:103B0000F1EE600AB4EEE00AF1EE10FA05D290EDA3
:103B10000D0AB1EE400A80ED060AFE4890ED070A54
:103B2000D0ED0E0AB4EEE00AF1EE10FA03DD90EDEE
:103B30000E0A80ED070AF74890ED070AD0ED0E0A4D
:103B4000F1EE600AB4EEE00AF1EE10FA05D290ED63
:103B50000E0AB1EE400A80ED070AEE4890ED000A29
:103B6000B1EE400A8DED1D0A90ED010AB1EE400A5A
:103B70008DED1C0A90ED020AB1EE400A8DED1B0A94
:103B800090ED050AB1EE400ADFEDE30A20EE200ACF
:103B900010EE104A90ED060AB1EE400ADFEDDE0AA3
:103BA00020EE200A10EE105A90ED070AB1EE400AFE
:103BB000DFEDD90A20EE200A10EE106A2046FCF74D
:103BC00035FDCDE90A019DED0A0B04F0E1FE8DED16
:103BD0000C0B9DED0C0B51EC100BFCF76BFD09EE83
:103BE000900A2046FCF722FDCDE90A019DED0A0B63
:103BF00004F036F88DED0C0B9DED0C0B51EC100B19
:103C0000FCF758FD0AEE100A2846FCF70FFDCDE937
:103C10000A019DED0A0B04F0BBFE8DED0C0B9DED32
:103C20000C0B51EC100BFCF745FD0AEE900A2846F0
:103C3000FCF7FCFCCDE90A019DED0A0B04F010F83D
:103C40008DED0C0B9DED0C0B51EC100BFCF732FDC8
:103C50001A903046FCF7EAFCCDE90A019DED0A0B0B
:103C600004F096FE8DED0C0B9DED0C0B51EC100B42
:103C7000FCF720FD0BEE100A3046FCF7D7FCCDE92F
:103C80000A019DED0A0B03F0EBFF8DED0C0B9DED92
:103C90000C0B51EC100BFCF70DFD0BEE900A9DED9B
:103CA0001A0A20EE2B0AB0EE40CA2BEEAA0A20EE2A
:103CB000290A0AEE4B0AF0EE40CA29EE8B0A6AEE98
:103CC0002B0A00EEAA0AB0EE40DA9DED1A0A20EEA9
:103CD0000B0AF0EE40DA2BEE290A20EE2A0A0AEE51
:103CE0002B0AB0EE40EAB1EE6B0A20EE290A6AEE2A
:103CF0002A0A00EE8B0AF0EE40EAB1EE6A0AB0EE54
:103D000040FA9DED1A0A20EE290AF0EE40FA9DEDE8
:103D10001A0A20EE0A0A8DED1E0A9FED800A8DED2B
:103D2000170A9FED7F0A8DED180A1FED9B0A8DED96
:103D3000190A9FED7A0A8DED140A9FED7A0A8DED2E
:103D4000150A1FEDA10A8DED160A9FED770A8DED7C
:103D5000110A9FED740A8DED120A1FEDA70A8DED71
:103D6000130A9FED710A8DED0E0A9FED6D0A8DED20
:103D70000F0A1FEDAD0A8DED100A9DED170AB0EE8A
:103D8000408A9DED180AF0EE408A9DED190AB0EECA
:103D9000409A2CEE080A0CEEA80A0DEE090ADDED99
:103DA0001D0A30EE200A8DED170A2DEE880A0EEE60
:103DB000280A0EEE890ADDED1C0A30EE200A8DED90
:103DC000180A2FEE080A0FEEA80ADDED1E0A00EE13
:103DD000890ADDED1B0A30EE200A8DED190A9DEDF2
:103DE000140AB0EE408A9DED150AF0EE408A9DED72
:103DF000160AB0EE409A2CEE080A0CEEA80A0DEE58
:103E0000090ADDED1D0A30EE200A8DED140A2DEEB3
:103E1000880A0EEE280A0EEE890ADDED1C0A30EE45
:103E2000200A8DED150A2FEE080A0FEEA80ADDED27
:103E30001E0A00EE890ADDED1B0A30EE200A8DED28
:103E4000160A9DED110AB0EE408A9DED120AF0EEC1
:103E5000408A9DED130AB0EE409A2CEE080A0CEE53
:103E6000A80A0DEE090ADDED1D0A30EE200A8DEDDF
:103E7000110A2DEE880A0EEE280A0EEE890ADDEDF3
:103E80001C0A30EE200A8DED120A2FEE080A0FEE02
:103E9000A80ADDED1E0A00EE890ADDED1B0A30EEF0
:103EA000200A8DED130A9DED0E0AB0EE408A9DEDBD
:103EB0000F0AF0EE408A9DED100AB0EE409A2CEE0B
:103EC000080A0CEEA80A0DEE090ADDED1D0A30EE17
:103ED000200A8DED0E0A2DEE880A0EEE280A0EEE4F
:103EE000890ADDED1C0A30EE200A8DED0F0A2FEE57
:103EF000080A0FEEA80ADDED1E0A00EE890ADDEDC4
:103F00001B0A30EE200A8DED100A9DED170ADFED39
:103F1000070A0DE0BC01002035FA8E3C0000824209
:103F20000000B4410000B4C10000AAC200009642E3
:103F300030EE600A3248D0ED000A30EE200A3148F7
:103F400080ED080A9DED180A5FED0B0A30EE600A5D
:103F500080ED090A9DED190A80ED0A0A9DED140A0B
:103F60005FED0E0A30EE600A2548D0ED010A30EE12
:103F7000200A254880ED080A9DED150A5FED180A14
:103F800030EE200A80ED090A9DED160A80ED0A0A3E
:103F90009DED110A5FED1B0A30EE200A1848D0EDA6
:103FA000020A30EE200A194880ED080A9DED120A37
:103FB0005FED250A30EE200A80ED090A9DED130A17
:103FC00080ED0A0A9DED0E0A5FED280A30EE200A08
:103FD0000B48D0ED030A30EE200A0D4880ED080AA8
:103FE0009DED0F0A5FED320A30EE600A80ED090A9E
:103FF0009DED100A80ED0A0A1FB0BDEC108BF0BDDC
:10400000A8010020E800002018010020480100203D
:10401000780100207FB582B004460D461646022086
:10402000012305AA2946009020460FF062FF0020D8
:1040300006B070BD10B50446382120460DF082FC54
:1040400010BD000008B580202B4908702B4908706E
:104050002B49087000202B4908702B4908702B4908
:1040600008702B4908702B4908702B4908702B49A0
:10407000087080202A4908802A4908702A49087057
:10408000FF20002373224B2100906C20FDF740FAA3
:10409000264908708020264908702649087026495C
:1040A00008709FED260A264880ED000A9FED230A3E
:1040B000244880ED000A9FED210A234880ED000A84
:1040C00000202249087022490870224908702249BC
:1040D00008709FED220A224880ED000A9FED210A18
:1040E000214880ED000A4FF416700DF09DFE01206E
:1040F0001E49087008BD00001A0200201B020020A3
:104100001C0200202602002023020020240200209E
:10411000250200202702002028020020290200207A
:10412000680200201D0200201E0200201F02002045
:104130002102002020020020220200200000004373
:10414000D8040020900400202005002069030020EE
:104150006A030020680300206B03002000000000B9
:10416000BC02002000002F4478030020F80100204A
:1041700010B5002002490860FFF764FF10BD000081
:104180007003002001461C48814201D20020704784
:104190001A48814201D20820F9E71948814201D228
:1041A0001020F4E71748814201D21820EFE71648A3
:1041B000814201D22020EAE71448814201D228201E
:1041C000E5E71348814201D23020E0E711488142FF
:1041D00001D23820DBE71048814201D24020D6E7E7
:1041E0000E48814201D24820D1E70D48814201D2D8
:1041F0005020CCE75820CAE70040000800800008A3
:1042000000C00008000001080000020800000408C7
:10421000000006080000080800000A0800000C085A
:1042200000000E0830B503460C461546002206E095
:10423000184600F007F844F822001B1D521CAA4241
:10424000F6D330BD01460868704700002DE9F047FD
:1042500004460E4617464FF008080025A946B4F15B
:10426000006F02D304F0030008B1BDE8F087FDF74A
:1042700095FD0020FDF7E6FC254604EB870918486C
:10428000854215D211E02846FFF7DCFF401C58B1EB
:104290002846FFF777FF82460221FDF7E5FC8046BE
:1042A000B8F1080F01D002E02D1D4D45EBD300BF42
:1042B000B8F1080F0CD108E020463168FDF746FD43
:1042C000082800D003E0241D361D4C45F4D300BF60
:1042D0000120FDF7B7FCFDF72FFD00BFC5E700008B
:1042E0000000FF1F30B500228B071C0F0F2303FABD
:1042F00004F20B4B8C1053F824309343084C8D1070
:1043000044F8253023468C1053F824308C07240FB2
:1043100000FA04F42343024C8D1044F8253030BDDC
:104320000838014070B505460E4600240F48FEF7D8
:1043300011FA00BF40210D4801F09EFF0028F9D07E
:1043400000240CE0295D094802F06DF800BF40210F
:10435000064801F091FF0028F9D0601CC4B2B442B5
:10436000F0DB0248FEF7ECF9012070BD00100140BF
:1043700010B540480078322832DD3F48006844F6E6
:104380002061884213D23B480078142190FBF1F25F
:1043900001FB120058B93948007808B9012000E043
:1043A00000203649087008460078354908603248D0
:1043B000006844F6206188420CD92F48006845F215
:1043C0000821884206D201202C490870084600784E
:1043D0002B49086001202B49087000202A490870E9
:1043E0002A4890ED1A0A2A48D0ED000AB4EE600A75
:1043F000F1EE10FA26D1254890ED180A2548D0EDA7
:10440000000AB4EE600AF1EE10FA1BD11F4890EDDD
:10441000190A2148D0ED000AB4EE600AF1EE10FA54
:1044200010D114480078401C1249087008460078E2
:10443000FE281ED1332008700BF04EFD0020FEF741
:104440005BFE16E000200B4908700E4908700F480B
:1044500090ED1A0A0E4880ED000A0C4890ED180AFB
:104460000C4880ED000A094890ED190A0A4880EDD1
:10447000000A10BDDE050020B005002077020020F4
:10448000B0024142DD0500206B020020640B0020D9
:10449000E0050020E8050020E40500202DE9F041BA
:1044A0002DED0C8B84B000240127F74800880128EB
:1044B00003DBF5480088032807DDF3480088082857
:1044C0007DDBF14800880A2879DCEF480088012864
:1044D00076D000200190029003900021EB4A1088D2
:1044E00010E00246401CEA4B1B689A5C01AB5A5430
:1044F000FF2806DD0246C31700EB13631B12A0EB77
:104500000320491CE04A12889142EADBDE48008819
:10451000082837DBDC4800880A2833DC0422DD4821
:10452000016801A8FDF7B8F830B301A9DA4A12888A
:104530001144C81E0322D9490968FDF7ADF8D8B166
:104540004FF00408D0480078C01FC6B2002510E024
:10455000701B401EC1B20A200DF0BEF941464A1C34
:1045600002F0FF0801AA515C303910FB0140C4B2CF
:104570006D1CB542ECDB43E0002004B0BDEC0C8BBD
:10458000BDE8F081002537E029466D1C01AA515C89
:10459000A1F13000FBF7F4FF41EC1B0BBA4909888D
:1045A000491B481EFBF7ECFF41EC1D0BB0EE4D1A0A
:1045B000F0EE6D1A9FEDBA0B03F0C2FB01E0B0E123
:1045C0001FE0B0EE40CAF0EE60CA53EC1B2B51EC7A
:1045D0001C0BFBF7F4FE41EC190B2046FBF7E1FF47
:1045E00041EC1A0B53EC192BFBF742FE41EC180B74
:1045F000FCF703F8C4B26D1CA34800888542C3DBF6
:1046000004E0A3480068A1490988445C0E2C7BD2D1
:10461000DFE804F0073C5B7B9ABAD0E6FEFCFBFACD
:10462000F9F88020A0490870A04908709FEDA00A01
:10463000A04880ED000A80209F49087000209F4913
:1046400008709F4908709F4908709F490870802032
:104650009E4908709E4908709E4908709E490870DE
:104660009E4908709E49087000209E4908709E4926
:1046700008709E4908709920964908704FF4FA60B6
:104680000DF0D2FB01209A4908703DE1D8208649FF
:104690000870884890ED000AB5EEC00AF1EE10FAF5
:1046A00002D1802084490870002084490870844920
:1046B000087084490870844908708E4908700DF0AC
:1046C000B3FB01208A4908701EE128207649087052
:1046D000784890ED000AB5EEC00AF1EE10FA02D16A
:1046E000802075490870002074490870744908706A
:1046F00074490870744908707E4908700DF094FB85
:1047000001207B490870FFE0FCE0D8206749087071
:10471000684890ED000AB5EEC00AF1EE10FA02D139
:104720008020654908700020644908706449087059
:1047300064490870644908706E4908700DF074FB94
:1047400001206B490870DFE02820584908700020DC
:104750005A490870574890ED000AB5EEC00AF1EECC
:1047600010FA02D180205449087000205449087082
:1047700054490870544908705E4908700DF054FBA4
:1047800001205B490870BFE0B6EE000A494880EDA1
:10479000000A0020494908704949087049490870D1
:1047A00049490870534908700DF03EFB01205049FB
:1047B0000870A9E0BEEE000A3E4880ED000A002025
:1047C0003E4908703E4908703E4908703E490870ED
:1047D000484908700DF028FB01204549087093E016
:1047E000B5203749087080202F4908702F4908707C
:1047F000314908704FF4FA600DF016FB01203C4976
:10480000087081E07AE03BE030E025E012E0FFE76D
:10481000B5202C490870802023490870234908706E
:10482000254908704FF4FA600DF0FEFA0120304976
:10483000087069E0B5202449087080201A49087082
:104840001A4908701C4908704FF4FA600DF0ECFA30
:1048500001202749087057E01E480078FF2804DA35
:104860001C48007828301B4908704DE01948007832
:10487000002804DD1748007828381649087043E0FE
:1048800001201D4908703FE0260600202406002074
:104890001C0600200C060020180600201006002030
:1048A00000000000000024401A0200201B0200202B
:1048B00000000000BC0200201C0200202602002094
:1048C0002302002024020020250200201D020020D7
:1048D0001E0200201F0200202102002020020020D2
:1048E00022020020690300206A03002068030020E0
:1048F000F80100202A0200206B02002000200A4953
:10490000087001E0002700BF00BF322C03DC00204C
:104910000649087006E0A4F1320004490870012736
:1049200000E00027384628E66B020020F90100204D
:104930000CB50020019000903448006840F48030AD
:104940003249086000BF3148006800F40030009030
:104950000198401C0190009818B90198B0F5704F6B
:10496000F1D12A48006800F4003010B10120009015
:1049700001E0002000900098012846D123484030F3
:10498000006840F0805021494031086020480068AC
:1049900040F480401E4908601C48083000681B49EC
:1049A000083108600846006840F400400860084686
:1049B000006840F4A05008601648091F0860081FEE
:1049C000006840F08070091F086000BF0F48006851
:1049D00000F000700028F9D040F205600E49086030
:1049E0000A480830006820F00300084908310860D0
:1049F0000846006840F00200086000BF0348083025
:104A0000006800F00C000828F8D10CBD0038024006
:104A10000070004008544007003C024010B5424876
:104A2000008B502842D003DC38B10A2874D10CE046
:104A3000552865D05A286FD16BE0FCF7A7FD3A489E
:104A4000008B401C384908836CE0384800783849AE
:104A50000880032037490870802037490870AA2051
:104A600036490870EB2036490870802035490870B7
:104A7000AA2035490870EB20344908708020344959
:104A80000870EB20334908704620334908708020B5
:104A900032490870EB2032490870462031490870CD
:104AA0002148008B401C204908833BE0802022499C
:104AB0000870642021490870CD20214908708020A9
:104AC00020490870642020490870CD201F490870D3
:104AD00080201F490870B4201E49087078201E49A4
:104AE000087080201D490870B4201D490870782086
:104AF0001C4908700C48008B401C0B49088311E0CE
:104B00000CF0FCFE0848008B401C0749088309E0B4
:104B100002E0FCF717FD05E00348008B401C02494A
:104B2000088300BF00BF10BDE80B0020F605002081
:104B300068020020F8010020450200204402002005
:104B400043020020480200204702002046020020C5
:104B50004B0200204A020020490200204E020020A1
:104B60004D0200204C02002010B52A4880891E28E2
:104B70002AD005DC58B10A2814D0142842D11AE0F2
:104B800028282AD0322831D03C283BD137E0FCF706
:104B9000FDFC0020204908701E488089401C1D49EA
:104BA000888135E099201C4908701A488089401C8A
:104BB000184988812CE00020174908701548808921
:104BC000401C1449888123E099201349087011483A
:104BD0008089401C0F4988811AE000200E49087026
:104BE0000C488089401C0B49888111E099200A49B2
:104BF000087008488089401C0649888108E0FCF755
:104C0000A1FC05E003488089401C0249888100BF5F
:104C100000BF10BDE80B00201F02002010B5FE48A9
:104C2000008D37287ED00DDC21287CD005DCC0B17A
:104C300005281ED01E2877D14BE0242875D02828BF
:104C4000F9D1E8E0732871D006DC46286FD05528EA
:104C50006ED06428EFD195E18C286AD09128EAD1F2
:104C600011E2FCF793FCEC48008D401CEA490885F2
:104C700012E20320E9490870FF20E94908808020FA
:104C8000E8490870F020E84908701420E7490870E6
:104C90008020E7490870F020E64908701420E649B2
:104CA00008708020E5490870F020E549087014205C
:104CB000E44908708020E4490870F020E349087056
:104CC0001420E3490870D448008D401CD24908855F
:104CD000E2E10020D24908800320D049087000207A
:104CE000CF4908808020CF490870AA20CE4908709B
:104CF000EB20CE4908708020CD490870AA20CD490C
:104D00000870EB20CC4908708020CC4908708C20BA
:104D1000CB490870DC20CB4908708020CA49087054
:104D20008C2007E0A7E010E0B0E141E057E1CFE0E0
:104D3000FBE0A0E1C5490870DC20C5490870B64811
:104D4000008D401CB4490885A6E10020B4490880C4
:104D50000320B24908700020B14908808020B14981
:104D60000870AA20B0490870EB20B0490870802074
:104D7000AF490870AA20AF490870EB20AE4908700F
:104D80008020AE490870BE20AD490870C820AD49EA
:104D900008708020AC490870BE20AC490870C8205B
:104DA000AB4908709C48008D401C9B49088573E105
:104DB00000209B49088003209849087000209849EA
:104DC0000880802097490870AA2097490870EB2036
:104DD00096490870802096490870AA209549087065
:104DE000EB2095490870802094490870DC20944994
:104DF0000870AA2093490870802093490870DC202D
:104E000092490870AA20924908708348008D401C7E
:104E10008149088540E1FF208149088003207F49BE
:104E200008702D207F490870A0207F490870EB2072
:104E30007E4908702D207E490870A0207D490870A9
:104E4000EB207D49087080207C490870E6207C4971
:104E50000870AA207B49087080207B490870E620F2
:104E60007A490870AA207A4908706B48008D401C66
:104E70006949088510E10320684908702D206949B7
:104E80000870A02068490870B420684908702D2077
:104E900067490870A02067490870B4206649087007
:104EA000802066490870E62065490870AA20654997
:104EB0000870802064490870E62064490870AA20C0
:104EC000634908705448008D401C53490885E3E04D
:104ED0000320524908702D2052490870A0205249E1
:104EE0000870EB20514908702D2051490870A0200E
:104EF00050490870EB205049087080204F490870D5
:104F0000E6204F490870AA204E49087080204E497B
:104F10000870E6204D490870AA204D4908703E48A7
:104F2000008D401C3C490885B6E003203B490870D1
:104F30002D203C490870A0203B490870B4203B4913
:104F400008702D203A490870A0203A490870B42012
:104F500039490870802039490870E62038490870BE
:104F6000AA2038490870802037490870E620374960
:104F70000870AA20364908702748008D401C264931
:104F8000088589E00320254908702D2025490870EF
:104F9000A02025490870EB20244908702D202449C1
:104FA0000870A02023490870EB2023490870802056
:104FB00022490870E62022490870AA202149087079
:104FC000802021490870E62020490870AA20204945
:104FD00008701148008D401C0F4908855CE00320D3
:104FE0000E4908702D200F490870A0200E49087046
:104FF000EB200E4908702D200D490870A0200D49A6
:105000000870EB200C49087080200C490870E620DD
:105010000B490870AA201DE0E80B0020F8010020D1
:1050200068020020450200204402002043020020C4
:105030004802002047020020460200204B020020C8
:105040004A020020490200204E0200204D020020AA
:105050004C02002011490870802011490870E62098
:1050600010490870AA20104908701048008D401C93
:105070000E49088510E0FEF7E5FF0C48008D401C46
:105080000A49088508E0FCF75DFA05E00748008D4D
:10509000401C0649088500BF00BF10BD4902002022
:1050A0004E0200204D0200204C020020E80B0020A0
:1050B00010B56448808B822875D007DC68B105285C
:1050C00013D00A2842D06E286ED170E0B4286CD07C
:1050D000BC286BD0BE28F7D1A9E0FCF757FA594895
:1050E000808B401C57498883AAE05748007857496D
:1050F00008800320564908708020564908702320F4
:1051000055490870FA2055490870802054490870A4
:10511000232054490870FA205349087080205349CD
:105120000870BE2052490870A020524908708020A3
:1051300051490870BE2051490870A020504908709C
:105140004048808B401C3F49888379E003204049D8
:10515000087080203F49087023203F490870FA20DA
:105160003E49087080203E49087023203D49087060
:10517000FA203D49087080203C490870BE203C4917
:105180000870A0203B49087080203B490870BE2071
:105190003A490870A0203A4908702A48808B401C80
:1051A000284988834CE01AE044E030E037E0802072
:1051B00028490870A02028490870E1202749087074
:1051C000802027490870A02026490870E120264940
:1051D00008701C48808B401C1A49888330E080206E
:1051E00022490870FF2022490870EB2021490870ED
:1051F000802021490870FF2020490870EB202049B9
:1052000008701048808B401C0E49888318E00CF011
:1052100075FB0C48808B401C0A49888310E0FEF720
:1052200011FF0848808B401C0649888308E0FCF782
:1052300089F905E00348808B401C0249888300BF40
:1052400000BF10BDE80B0020F6050020680200201A
:10525000F801002045020020440200204302002003
:105260004802002047020020460200204B02002096
:105270004A020020490200204E0200204D02002078
:105280004C02002010B55C48C08B20B17E2811D0A4
:1052900080281AD116E0FCF779F94FF448700CF029
:1052A000C3FD0120554908705348C08B401C52492A
:1052B000C8839EE0FEF7C6FE4F48C08B401C4E4997
:1052C000C88396E0FCF73EF993E04B49C88BC117C1
:1052D00000EBD1614911A0EB411101F0030000285E
:1052E00016D1881008287DD2DFE800F0041322319F
:1052F000404F5E6D8C204249087032204149087051
:10530000FA20414908703C48C08B401C3A49C88388
:1053100068E0B4203A49087064203A490870BE2019
:10532000394908703448C08B401C3349C88359E060
:10533000DC203349087096203249087080203249B9
:1053400008702D48C08B401C2B49C8834AE0B4200C
:105350002B49087096202B49087041202A49087073
:105360002548C08B401C2449C8833BE08C2024493D
:1053700008709620234908700020234908701E48B1
:10538000C08B401C1C49C8832CE050201C4908706D
:1053900096201C49087041201B4908701648C08B94
:1053A000401C1549C8831DE01E2015490870962031
:1053B000144908708020144908700F48C08B401CA5
:1053C0000D49C8830EE050200D49087064200D4936
:1053D0000870BE200C4908700748C08B401C064965
:1053E000C88300BF00BF0448C08B401C0249C8836B
:1053F00000BF00BF10BD0000E80B00206B030020C1
:105400001D0200201F0200202102002010B55E486E
:10541000008C20B1BE2811D0C0281AD116E0FCF7AC
:10542000B5F84FF4E1700CF0FFFC0120574908700B
:105430005548008C401C54490884A2E0FEF702FE47
:105440005148008C401C504908849AE0FCF77AF8D7
:1054500097E04D48008C302190FBF1F201FB1200E7
:1054600018284BD007DC68B106281AD00C2827D0A2
:1054700012287FD133E01E284FD024285CD02A2860
:1054800078D168E080204249087090204149087036
:10549000FF20414908703C48008C401C3A49088470
:1054A00068E0BE203A4908703C203A4908708020E4
:1054B000394908703448008C401C3349088459E04D
:1054C000FF2033490870902032490870002032498B
:1054D00008702D48008C401C2B4908844AE0BE20EF
:1054E0002B490870C8202B49087080202A49087071
:1054F0002548008C401C244908843BE08020244936
:1055000008709020234908700020234908701E4825
:10551000008C401C1C4908842CE040201C49087069
:105520003C201C49087080201B4908701648008CDC
:10553000401C154908841DE0002015490870902082
:1055400014490870FF20144908700F48008C401C53
:105550000D4908840EE040200D490870C8200D490F
:10556000087080200C4908700748008C401C0649D0
:10557000088400BF00BF0448008C401C0249088416
:1055800000BF00BF10BD0000E80B00206B0300202F
:105590001E0200201F020020200200202DE9FE43F1
:1055A00004460D46164698460A9F324601A9481CF5
:1055B000FDF78CFA00220DF10601481CFDF786FA72
:1055C0003A4602A9481CFDF781FA062001AB2A22BF
:1055D0002946009020460EF079FABDE8FE830000CF
:1055E00030B5164800684FF47A72B0FBF2F1481EED
:1055F000B0F1807F01D301201BE0481E4FF0E02274
:10560000506150170F22002807DA13071D0E0C4BAC
:1056100000F00F04241F1D5503E013071C0E094B57
:105620001C5400BF00204FF0E02290610720106161
:10563000002008B100BFFEE730BD000028070020B1
:1056400018ED00E000E400E010B545480088401C7B
:1056500080B243490880032805D1012041490870E0
:1056600000203F49088040480088401C80B23E49E5
:105670000880142807D1FDF7B3FB01203B490870CF
:105680000020394908803A480088401C80B23849D7
:105690000880322805D1012036490870002034499D
:1056A000088035480088401C80B233490880B0F536
:1056B000FA7F05D101203149087000202E49088069
:1056C0002F480078002846D02E480088401C80B221
:1056D0002C490880052805D101202B49087000209D
:1056E0002849088029480088401C80B22749088042
:1056F000322805D10120264908700020234908805E
:1057000024480088401C2349088008460088B0F5DA
:105710007A7F14DD00211F4A11801F4909881F4A22
:10572000118000211C4A1180002000BF04E00021EC
:105730001B4A22F81010401C0C28F8DB00BF194847
:1057400000680021401C894108DA16480068401CA6
:105750001449086002E000201249086010BD0000F2
:1057600080020020710200208402002070020020CC
:1057700088020020760200208A02002075020020A4
:105780006E020020820200207202002086020020A9
:105790006F0200207A0200207C0200207E0200209E
:1057A000D00B0020B005002010B51248006840F072
:1057B00001001049086000200E49083108600D48BA
:1057C00000680D4908400B4908600C48091D086035
:1057D000081F006820F48020091F08600020054988
:1057E0000C310860FFF7A4F84FF00060044908602E
:1057F00010BD000000380240FFFFF6FE103000240C
:1058000008ED00E010B50121880700F009F818B193
:105810000121880700F001F810BDCA4302827047D9
:1058200030B50246002000230024158A05EA010352
:10583000958905EA010413B10CB1012000E00020B4
:1058400030BD000010B50F48008910B1962810D166
:105850000CE0FBF79BFE9FED0C0A0C4880ED000A64
:1058600008480089401C0749088108E0FBF76AFEE8
:1058700005E004480089401C0249088100BF00BFC0
:1058800010BD0000E80B00209A99193FBC020020CF
:1058900010B51348008A20B13A280DD03C2816D103
:1058A00012E0FBF773FEB5200E4908700C48008A21
:1058B000401C0B49088210E0FEF7C4FB0848008A30
:1058C000401C0749088208E0FBF73CFE05E004485D
:1058D000008A401C0249088200BF00BF10BD0000C2
:1058E000E80B00202402002010B52448808A3C28C0
:1058F00025D003DC38B11E2838D114E058282AD02E
:105900005A2833D12FE0FBF741FEB5201C4908701F
:1059100000201C4908701C4908701848808A401CE7
:105920001649888228E0002015490870B5201549DD
:1059300008701248808A401C104988821CE00020B0
:1059400010490870B520104908700C48808A401C26
:105950000A49888210E0FEF775FB0848808A401CDF
:105960000649888208E0FBF7EDFD05E00348808AE0
:10597000401C0249888200BF00BF10BDE80B002018
:1059800023020020240200202502002010B5134825
:10599000C08920B13A280DD03C2816D112E0FBF77F
:1059A000F5FDB5200E4908700C48C089401C0B4914
:1059B000C88110E0FEF746FB0848C089401C074933
:1059C000C88108E0FBF7BEFD05E00448C089401C23
:1059D0000249C88100BF00BF10BD0000E80B0020D5
:1059E0002302002010B51348408A20B13A280DD078
:1059F0003C2816D112E0FBF7C9FDB5200E4908700E
:105A00000C48408A401C0B49488210E0FEF71AFB04
:105A10000848408A401C0749488208E0FBF792FD8D
:105A200005E00448408A401C0249488200BF00BF8C
:105A300010BD0000E80B00202502002000B587B053
:105A400001210846FDF776FD01211020FDF7A2FD9A
:105A5000072209212748FCF7CBFC07220A21254809
:105A6000FCF7C6FC00208DF80A0001208DF80B0021
:105A700002208DF808004FF4C060019002208DF8DC
:105A8000090001A91B48FCF76BFC1B4800F09AFBBE
:105A90001A4803900020ADF81000ADF81200ADF8E0
:105AA0001400ADF818000C20ADF8160003A9124838
:105AB00000F04AFC0121104800F015FC01210E48BD
:105AC00000F06BFB012240F225510B4800F017FC5F
:105AD00025208DF8000000208DF8010003208DF8AE
:105AE000020001208DF803006846FDF735FB07B082
:105AF00000BD0000000002400010014040420F00C5
:105B000010B5002440F22551554800F0C2FB002892
:105B10007ED0534800F082FCC4B252480078082876
:105B200077D2DFE800F004111E24303B434BFF2CFA
:105B300006D101204B490870FF204B49087002E054
:105B400000204849087083E0FF2C06D10220454917
:105B50000870FF204449487002E000204149087065
:105B600076E04148847003203E49087070E0042CC0
:105B700005D104203B4908703B49C87002E0002071
:105B80003849087064E02CB9052036490870364859
:105B9000047102E000203349087059E03248447132
:105BA0003248047006202F49087051E02E48847155
:105BB0002F48047007202B49087049E02A48807854
:105BC0002949C97808442849097908442649497966
:105BD0000844254989790844264908800846007800
:105BE0002549087008460078C04308701E48C471F3
:105BF00008460078844223D11D48007800021F49DE
:105C000008801A4800781E4908801E48007801E084
:105C100024E019E040B91449887819490A881749DD
:105C2000098800F06DFC0BE016480078012807D1C8
:105C30000D49887812490A881049098800F0F8FB54
:105C400000200849087003E000200649087000BFE2
:105C500000BF40F22551024800F090FA10BD00004C
:105C6000001001409A0200208C02002098020020BF
:105C7000990200209C0200209E0200209402002035
:105C800096020020DC05002000B597B001210846EF
:105C9000FDF750FC01214804FDF75CFC012148059B
:105CA000FDF748FC072202215A48FCF7A1FB072216
:105CB00003215848FCF79CFB0C20159002208DF81E
:105CC00058008DF8590000208DF85A0001208DF8F9
:105CD0005B0015A94F48FCF743FB4FF41650119099
:105CE0000020ADF84800ADF84A00ADF84C00ADF822
:105CF00050000C20ADF84E0011A9474800F024FBDD
:105D00000121454800F049FA012240F2244142486D
:105D100000F0F5FA26208DF8400002208DF84100B1
:105D20008DF8420001208DF8430010A8FDF714FA09
:105D300001224021384800F03CFA012280213648F7
:105D400000F037FA3548FBF7C1FD00BF3348FBF7D9
:105D500069FE0028FAD14FF0006001902E48001D26
:105D600002902F480390002004904FF4807005901B
:105D7000002006904FF48060079000200890099062
:105D80004FF480700A904FF440300B9000200C903C
:105D900003200D9000200E900F9001A91F48FBF7E3
:105DA0004FFE01211D48FBF785FD1C481830FBF70D
:105DB0008DFD00BF19481830FBF734FE0028F9D1DB
:105DC0004FF0006001901448001D029015480390A8
:105DD0004020049080000590002006904FF48060E1
:105DE00007900020089009900A904FF480300B90A3
:105DF00000200C900D900E900F9001A907481830CC
:105E0000FBF71EFE012105481830FBF753FD17B0C4
:105E100000BD0000000002400044004088600240D5
:105E2000240E0020240F002070B500BF40F2244152
:105E3000244800F02EFA002842D022480588001D90
:105E400005882148FBF7F8FDC0F5807084B21F4833
:105E500000881F49098808441C49088008460088B2
:105E6000FF2808DD0888C11700EB11610912A0EBBB
:105E70000121164A118015480088A04205DA13480E
:105E80000088201A1249088006E004F580700F4946
:105E90000988401A0E4908800E480F4908600B48CF
:105EA00000880E4908800A4800880D49088000F0E3
:105EB0009BFF01200B4908700B490348FBF7E0FCEE
:105EC00070BD0000004400408860024028060020A9
:105ED0002C060020240E00201C0600202406002092
:105EE000260600202A06002000003D1010B500BF45
:105EF00040F22551064800F0CCF940B140F225515E
:105F0000034800F03BF9024800F088FAC4B210BD23
:105F10000048004000B597B001210420FDF70AFBBE
:105F200001212020FDF736FB01218805FDF702FB4A
:105F3000082206215B48FCF75BFA08220721594832
:105F4000FCF756FAC020159002208DF858008DF805
:105F5000590000208DF85A0001208DF85B0015A92A
:105F60005048FCF7FDF9504800F02CF94FF4E130AF
:105F700011900020ADF84800ADF84A00ADF84C0093
:105F8000ADF850000C20ADF84E0011A9464800F0C5
:105F9000DBF90121444800F000F9012240F22441DC
:105FA000414800F0ACF947208DF8400002208DF800
:105FB000410001208DF842008DF8430010A8FDF744
:105FC000CBF801224021384800F0F3F8012280216B
:105FD000354800F0EEF83548FBF778FC00BF334851
:105FE000FBF720FD0028FAD14FF0206001902E48E9
:105FF000001D02902E480390002004904FF4807002
:106000000590002006904FF48060079000200890D3
:1060100009904FF480700A904FF440300B900020AC
:106020000C9003200D9000200E900F9001A91F48A6
:10603000FBF706FD01211D48FBF73CFC1B486030C7
:10604000FBF744FC00BF19486030FBF7EBFC00286D
:10605000F9D14FF0206001901348001D02901548BF
:1060600003904020049080000590002006904FF49B
:10607000806007900020089009900A904FF48030CB
:106080000B9000200C900D900E900F9001A90748E6
:106090006030FBF7D5FC012104486030FBF70AFCB7
:1060A00017B000BD000802400014014040640240E7
:1060B000240C0020240D002070B500BF40F22441C4
:1060C000244800F0E6F8002842D022480588001D48
:1060D00005882148FBF7B0FCC0F5807084B21F48EA
:1060E00000881F49098808441C4908800846008820
:1060F000FF2808DD0888C11700EB11610912A0EB29
:106100000121164A118015480088A04205DA13487B
:106110000088201A1249088006E004F580700F49B3
:106120000988401A0E4908800E480F4908600B483C
:1061300000880E4908800A4800880D49088000F050
:1061400053FE01200B4908700B490348FBF798FBED
:1061500070BD00000014014040640240140600209D
:1061600018060020240C00201C0600202406002015
:10617000260600201606002000003D1010B5002263
:10618000002340F66A14A14200D100BF0A12012484
:106190009440A3B2DC43048010BD21B1828942F453
:1061A0000052828104E082894DF6FF731A40828199
:1061B00070471AB1838A0B43838202E0838A8B4340
:1061C0008382704710B504462548844208D10121D6
:1061D0001020FDF7EFF900211020FDF7EBF93EE06C
:1061E0002048844209D101214804FDF7C3F9002168
:1061F0004FF40030FDF7BEF931E01B48844209D16D
:1062000001218804FDF7B6F900214FF48020FDF745
:10621000B1F924E01548844209D10121C804FDF7F1
:10622000A9F900214FF40020FDF7A4F917E0104868
:10623000844209D101210805FDF79CF900214FF4A2
:106240008010FDF797F90AE00A48844207D101213E
:106250002020FDF7AFF900212020FDF7ABF910BD9C
:10626000001001400044004000480040004C004045
:10627000005000400014014002460020B1F5007FAC
:1062800000D100BF13880B400BB1012000E00020BB
:10629000704770B50246002400230025002040F618
:1062A0006A16B14200D100BFC1F3421501F01F03CD
:1062B000012606FA03F3012D02D19689334006E048
:1062C000022D02D1168A334001E0968A33400C1227
:1062D000012606FA04F41688344013B10CB10120EB
:1062E00000E0002070BD21B1828A42F00802828263
:1062F00004E0828A4FF6F7731A4082827047F0B545
:106300000346002400260025002040F66A17B94203
:1063100000D100BF1846C1F3421401F01F06012747
:1063200007FA06F5012C01D10C3004E0022C01D152
:10633000103000E014301AB107682F43076002E004
:106340000768AF430760F0BD2DE9FF4705460E46DD
:106350000024A14600BFA046B08900B100BF2C8A2E
:1063600024F44054F08804432C82AC8941F20C6040
:106370008443B08831890843718908430443AC8160
:10638000AC8A24F44074B0890443AC826846FDF7BB
:1063900021F92048854202D01F48854202D1DDF80C
:1063A0000C9001E0DDF80890A88900F4004040B1AD
:1063B00009EBC90000EB091031684900B0FBF1F7A7
:1063C00007E009EBC90000EB091031688900B0FB58
:1063D000F1F76420B7FBF0F004012009642101FB10
:1063E0001078A88900F4004040B1322000EBC800CA
:1063F000B0FBF1F000F00700044308E0322000EBAE
:1064000008106421B0FBF1F000F00F0004432C8170
:10641000BDE8FF8700100140001401400146888854
:10642000C0F308007047C1F3080282807047000083
:1064300010B503468C18A0B2B0F57A7F02DDA0F546
:106440007A74A0B21F2B2ED00EDC152B22D006DCC6
:106450000B2B16D00C2B17D00D2B36D117E0162B8B
:106460001BD0172B31D11BE0292B25D004DC202B8E
:106470001CD0212B29D11CE02A2B20D02B2B24D15E
:1064800020E0134C608121E0124C60811EE0124C30
:1064900060811BE0114C608118E0114C608115E0B7
:1064A000104C608112E0104C60810FE00F4C608155
:1064B0000CE00F4C608109E00E4C608106E00E4C50
:1064C000608103E00D4C608100E000BF00BF10BDA3
:1064D000400000204C0000205800002064000020F4
:1064E000700000207C000020880000209400002024
:1064F000A0000020AC000020B8000020C400002054
:1065000010B51F2834D00EDC152825D006DC0B284A
:1065100016D00C2818D00D2842D119E016281FD00B
:1065200017283DD120E029282ED004DC202823D0B4
:10653000212835D124E02A282AD02B2830D12BE05D
:106540008B18194CE3802CE08B18184CE38028E062
:106550008B18174CE38024E08B18164CE38020E066
:106560008B18154CE3801CE08B18144CE38018E06A
:106570008B18134CE38014E08B18124CE38010E06E
:106580008B18114CE3800CE08B18104CE38008E072
:106590008B180F4CE38004E08B180E4CE38000E076
:1065A00000BF00BF10BD0000400000204C000020D4
:1065B0005800002064000020700000207C000020B3
:1065C0008800002094000020A0000020AC000020E3
:1065D000B8000020C400002000B52DED088B83B06A
:1065E000A148A249A24BA34ACDE90010A249A34861
:1065F00003F016F99D48007800F0080048B19E4865
:1066000000889F4908809C48408848809A48808834
:1066100088809648008800F4807000287DD09548D6
:1066200090ED000AB8EEC00ADFED960A80EE201A5F
:10663000954880ED001A8F4890ED010AB8EEC00A27
:10664000DFED900A80EE201A904880ED001A89480C
:1066500090ED020AB8EEC00ADFED8A0A80EE201A39
:106660008B4880ED001A834890ED030AB8EEC00A0B
:10667000DFED840A80EE201A864880ED001A8348F8
:1066800090ED000AF8EE000A20EE200A8148D0EDD5
:10669000000A20EE200A7C48D0ED000AB0EE001A75
:1066A00060EE810A7A4890ED001A00EE810A10EE41
:1066B000101A0846F9F7BAFF41EC1A0BB0EE4A0A75
:1066C000F0EE6A0A00F0B8FEB0EE409AF0EE609A82
:1066D0009FED710B53EC102B51EC190BF9F76FFE7A
:1066E00041EC180BF9F7E6FF6D490860674890ED3B
:1066F000000AF8EE000A20EE200AD0ED000A20EE93
:10670000200A6348D0ED000AB0EE001A60EE810A5C
:1067100090ED001A00EEC10A00E0A2E0F7EE000AD8
:1067200030EE200A10EE101A0846F9F77FFF41EC10
:106730001A0B574890ED000AF0EE000A20EE200AEE
:106740005448D0ED000A20EE200A4F48D0ED000A50
:10675000B0EE001A60EE810A4C4890ED001A00EE8F
:10676000810A10EE101A0846F9F760FF41EC1B0B86
:10677000B0EE4A1AF0EE6A1AB0EE4B0AF0EE6B0A6F
:1067800001F076F9B0EE409AF0EE609A9FED420B80
:1067900053EC102B51EC190BF9F711FE41EC180BCF
:1067A000F9F788FF3F490860374890ED000A20EE6E
:1067B000000A3648D0ED000A90ED001A00EE810A7A
:1067C0003348D0ED000A90ED001A00EEC10A3148BE
:1067D000D0ED000A90ED001A00EEC10A10EE101A7A
:1067E0000846F9F723FF41EC1A0B284890ED000A00
:1067F0002748D0ED000A20EE200A2348D0ED000AF9
:10680000244890ED001A00EE810AF0EE000A20EE16
:10681000200A10EE101A0846F9F708FF41EC1B0B8E
:10682000B0EE4A1AF0EE6A1AB0EE4B0AF0EE6B0ABE
:1068300001F01EF9B0EE409AF0EE609A9FED160B53
:1068400053EC102B51EC190BF9F7B9FD41EC180B77
:10685000F9F730FF14490860002003B0BDEC088B45
:1068600000BD0120F9E70000FA060020F80600202C
:10687000E806002068140020F2060020EC06002044
:10688000160700200000804EFC06002000070020B4
:1068900004070020080700206666666666A64C406E
:1068A000D4060020D8060020DC06002010B51C48C5
:1068B000408D30B10A280FD082281ED0872827D1DA
:1068C00023E0FAF763FE6020164908701448408DF3
:1068D000401C1349488521E00120134908709FEDB1
:1068E000130A134880ED000AE020124908700C4892
:1068F000408D401C0A49488510E0FDF7A3FB08487D
:10690000408D401C0649488508E0FAF71BFE05E06B
:106910000348408D401C0249488500BF00BF10BDA0
:10692000E80B00201F02002000060020008009451F
:10693000780300201A02002010B58148408B6E2891
:1069400078D00DDC322862D005DCC0B10A281ED018
:106950001E2870D14CE0462872D05A28F9D17FE029
:10696000B6286AD006DC822868D0962867D09B2893
:10697000EFD1B1E0C32872D0C828EAD1D4E0FAF749
:1069800005FE6F48408B401C6D494883D5E06D483B
:1069900000786D49088003206C49087080206C499C
:1069A0000870B4206B49087094206B4908705F2010
:1069B0006A490870A5206A490870942069490870DE
:1069C000802069490870C820684908708220684999
:1069D0000870802067490870C820674908708220C5
:1069E000664908705648408B401C55494883A4E0CE
:1069F0008020574908703220564908705A2056495D
:106A000008704F48408B401C4D49488395E040F644
:106A1000AC500BF009FA50204D49087032204D4916
:106A200008705A204C4908704548408B401C444926
:106A3000488382E023E07AE002E05CE02EE03CE084
:106A4000C820434908703220424908705A20424900
:106A500008703B48408B401C394948836DE05BE03F
:106A600050203B49087032203A4908705A203A4970
:106A700008703348408B401C314948835DE0C82092
:106A8000334908703220334908705A20324908705F
:106A90002B48408B401C2A4948834EE050202C490B
:106AA000087032202B4908705A202B49087024485E
:106AB000408B401C2249488300BFC82024490870ED
:106AC0003220244908705A20234908701C48408B02
:106AD000401C1B49488330E080201D490870B420C9
:106AE0001C49087094201C4908701548408B401CB4
:106AF0001349488321E00AF001FF802017490870FC
:106B0000A520174908709620164908700C48408B3C
:106B1000401C0B49488310E0FDF794FA0848408B6D
:106B2000401C0749488308E0FAF70CFD05E00448DB
:106B3000408B401C0249488300BF00BF10BD0000CD
:106B4000E80B0020F605002068020020F801002074
:106B50004502002044020020430200204802002099
:106B600047020020460200204B0200204A0200207B
:106B7000490200204E0200204D0200204C0200205D
:106B80002DE9F041C6B0002600254FF4807106A81B
:106B9000F9F756FB0027142101A8F9F751FBA84685
:106BA0008A48008868B1002405E08948005D06A98C
:106BB0000855601C84B285480088844201DA142C90
:106BC000F3DB84480688002416E03046711C8EB240
:106BD00081490968085C7D490988214406AA505406
:106BE000FF2E07DD3046F11706EB11610912A6EB07
:106BF00001218EB2601C84B2784800888442E4DBB4
:106C000000240CE006A8005D552806D10A2D04DA00
:106C100001A820F81540681C85B2601C84B26F483A
:106C200000886A4909880844A042EBDC0120ADF8DD
:106C300004006A4800886549098808441FFA80F8FA
:106C40000025B8E00020ADF8040001A830F81500D8
:106C500006A9085C6249087001A830F81500401CBC
:106C600006A9085C5E49487001A830F81500801C30
:106C700006A9085C5A49488000240BE0E01C01A9E1
:106C800031F81510084406A9095C5548001D015546
:106C9000601C84B252484088801FA042EEDC5048FD
:106CA0004088C01E01A931F81510084406A9085CE7
:106CB0004B4981F8040108464088801E01A931F83B
:106CC0001510084406A9085C454981F805010846E5
:106CD0004088401E01A931F81510084406A9085C37
:106CE0003F4981F8060108460078552802D1084638
:106CF000407818B131203B4988705AE0384890F804
:106D0000050120B9364890F80601AA2822D02F485C
:106D1000A0F800800088152818DA002411E001A8E6
:106D200030F81500204406A9085C2949085534B9F3
:106D30000846005D552802D0002024490880601CC8
:106D400084B2224800888442E9DB02E000201F4927
:106D500008802EE022484088092803DA31202149A2
:106D6000887026E01E488778002406E01C48001D35
:106D7000005D3844C7B2601C84B219484088801F47
:106D8000A042F3DCF843C7B2154890F80401B842BA
:106D900003D03120134988700BE011484088A8EBDC
:106DA00000001FFA80F80020084908800BF06CF9F9
:106DB00000BF681C85B201A830F8150010B10A2D7B
:106DC000FFF640AF012046B0BDE8F0813406002058
:106DD00038140020240600201C060020260600206F
:106DE000241000203106002010B50D480078A0B115
:106DF0000024FFF7C5FE48B9FDF750FB28B9094844
:106E00000079012801D10AF0F3FE10BD0648008880
:106E1000012801D1FDF742FB00BF00BFF5E70000EC
:106E200036060020241000202606002010B5B0EE03
:106E3000000A814880ED100A804890ED1A0A8048C7
:106E4000D0ED000A30EE600A7E4880ED000A90ED39
:106E5000000ADFED7D0AB4EEE00AF1EE10FA0FDB76
:106E60007A4890ED000A7748D0ED000A30EE200A0B
:106E7000DFED770A30EE600A744880ED000A24E006
:106E8000704890ED000ADFED730AB4EEE00AF1EE0F
:106E900010FA0FD86D4890ED000A6A48D0ED000A4C
:106EA00030EE200ADFED6A0A30EE200A674880EDF6
:106EB000000A0AE0654890ED000A6248D0ED000A39
:106EC00030EE200A614880ED000A634890ED000A28
:106ED000B5EEC00AF1EE10FA12D1604890ED000A4A
:106EE000B5EEC00AF1EE10FA0AD15D48006838B973
:106EF0005C4890ED000AB5EEC00AF1EE10FA7DD0C4
:106F00005948007840B1514890ED000A574880ED4B
:106F1000000A0020544908704F4890ED000AB5EE71
:106F2000C00AF1EE10FA18D14C4890ED000AB5EE07
:106F3000C00AF1EE10FA10D14948006868B9494812
:106F400090ED000AB5EEC00AF1EE10FA05D0B0EEF1
:106F5000000A394880ED020A04E09FED450A3648F0
:106F600080ED020A3C4890ED000AB5EEC00AF1EE51
:106F700010FA10DD394890ED000AB5EEC00AF1EEC6
:106F800010FA08D19FED3B0A2B4880ED100A9FEDC7
:106F90003A0A80ED020A354890ED000A2F48D0EDFC
:106FA000000A30EE200A314880ED000A90ED000A18
:106FB000214880ED000A254890ED000A1E4880ED2A
:106FC000010AFAF791F91C4890ED0B0ADFED2B0A44
:106FD000B4EEE00AF1EE10FA03DD9FED290A80ED30
:106FE0000B0A154890ED0B0ADFED260AB4EEE00A15
:106FF000F1EE10FA05D29FED230A00E00FE080EDDC
:107000000B0A0D4890ED0B0ADFED1C0A30EE200A4A
:10701000BCEEC00A10EE100A1B49087005E0012002
:1070200011490870802018490870044890ED1A0A28
:10703000034880ED000A10BD68050020640B0020A5
:10704000C8020020D002002000008743CC020020AC
:107050000000B443000087C3B0020020BC0200203F
:10706000AC020020B4020020C4020020C0020020B4
:10707000CDCC8C40CDCC4C40CDCC6C4000000043FE
:107080000000FE42000000C31C0200200FB4054BAC
:1070900010B503A9044A029802F078F910BC5DF813
:1070A00014FB000009A100084C07002003B401985C
:1070B0004100009850EAC12018BF04204A0D18BFB3
:1070C00040F0010040F2FF72B2EB515F08BF40F0A8
:1070D0000200012808BF052002B070470000000030
:1070E00010B5B94A2DED020B2DED0C8B82B00F9926
:1070F00021F000409FEDB6CB90422CDBA0F1405335
:107100000E9AA3F17F631A430FD0B349884202DC81
:1071100016D10E98A0B19DED0E0B02B0BDEC0C8BFC
:1071200002B0BDE8104002F0D7B80029C1BF9FED02
:10713000AC0B02B0BDEC0C8B02B0C8BF10BD16E0AA
:10714000012002F01DF902B0BDEC0C8B02B0BDE8CD
:10715000104002F0D5B8A44A9FEDA59B9FEDA6ABC9
:1071600090425EDAA6499FEDA8CB814208DBB0EEE3
:107170004C0AF0EE6C0A02B0BDEC0C8B02B010BDF4
:107180009DED0E0B53EC102B51EC100BF9F717F98A
:1071900041EC180B9E480621B0EE480AF0EE680A52
:1071A000784401F06DFF53EC182B51EC100BF9F7FC
:1071B00006F941EC1B0B9748B0EE480AF0EE680A5E
:1071C0000421784401F05CFF53EC182B51EC100BB8
:1071D000F9F7F5F853EC192BF9F74AF841EC100BD5
:1071E00051EC1B0B53EC102BF9F75BF941EC100B36
:1071F00053EC102B9DED0E0B51EC100BF9F7DFF853
:1072000053EC1A2BF9F7D8F89DED0E1B53EC112B0C
:10721000F9F7D2F853EC1C2BF9F7CEF841EC100B30
:10722000A9E79FED7D8B9FED7EBB9DED0E0B0029A9
:1072300053EC192B51EC100B52DAF9F719F853EC07
:10724000182BF9F7BCF841EC180B77480621B0EE83
:10725000480AF0EE680A784401F012FF53EC182B4C
:1072600051EC100BF9F7ABF841EC1D0B6F48B0EE89
:10727000480AF0EE680A0421784401F001FF53EC5B
:10728000182B51EC100BF9F79AF853EC192BF8F76F
:10729000EFFF41EC190B51EC180B0CF0F3FD41EC36
:1072A000180B53EC192B51EC1D0BF9F7FAF853ECB2
:1072B000182BF9F784F853EC1A2BF9F77AF841EC0C
:1072C000100B51EC180B53EC102BF8F7D1FF53ECCB
:1072D0001B2BF9F774F853EC1C2BF9F76DF86DE0E4
:1072E000F9F76AF853EC182BF9F769F841EC180B29
:1072F0000CF0C8FD41EC1A0B00208DED00AB0090A6
:107300009DED000B51EC1A0B53EC102BF8F7B0FF6E
:107310009DED000B41EC1C0B53EC102B51EC100BB2
:10732000F9F74DF853EC182BF9F746F853EC1C2BF2
:10733000F9F7B7F841EC1C0B3D48B0EE480AF0EE07
:10734000680A0621784401F09BFE53EC182B51EC9F
:10735000100BF9F734F841EC1D0B3648B0EE480A33
:10736000F0EE680A0421784401F08AFE53EC182BF1
:1073700051EC100BF9F723F853EC192BF8F778FFC1
:1073800041EC100B51EC1D0B53EC102BF9F789F865
:1073900053EC1A2BF9F713F853EC1C2BF8F768FF92
:1073A00041EC100B53EC102B9DED000B51EC100B2E
:1073B000F8F75EFF53EC1B2BF9F701F841EC100BCB
:1073C000D9E60000000000000000F03F00000000CF
:1073D000182D4454FB2109400000F07F00000000FC
:1073E00000000000000000000000E03F000000007E
:1073F000000000000000F03F075C143326A6913C1B
:107400000000603C00000000182D4454FB21F93FAF
:107410009CDD0000AADD0000000000000000E03F4D
:107420000000000000000040E6DC0000F4DC00008A
:10743000F8DB000006DC000070B5C1482DED020B42
:107440002DED0E8B82B0119D25F000449FEDBEDB2B
:107450009FEDBFEB84423EDBA4F140511098A1F1B7
:107460007F6108430FD0BC48844202DC28D11098C9
:1074700030B39DED100B02B0BDEC0E8B02B0BDE839
:10748000704001F029BF9DED100B53EC1D2B51EC0A
:10749000100BF8F794FF9DED100B41EC180B53EC1B
:1074A0001E2B51EC100BF8F78AFF53EC182BF8F752
:1074B000DFFE41EC100B02B0BDEC0E8B02B070BDD4
:1074C000012001F05DFF02B0BDEC0E8B02B0BDE803
:1074D000704001F015BFA1489FEDA18B844256DAA0
:1074E0009DED100BB4F1795F0ADA51EC100BFFF748
:1074F000DDFD042808BF01F023FF9DED100BDAE746
:1075000053EC102B51EC100BF8F759FF41EC190B11
:1075100095480621B0EE490AF0EE690A784401F078
:10752000AFFD53EC192B51EC100BF8F748FF41EC71
:107530001A0B8E48B0EE490AF0EE690A042178442D
:1075400001F09EFD53EC192B51EC100BF8F737FFAF
:1075500053EC182BF8F78CFE41EC100B51EC1A0B86
:1075600053EC102BF8F79DFFCDE900019DED000BCA
:1075700053EC102B9DED100B51EC100BF8F71FFF87
:107580009DED101B53EC112BF8F772FED2E09DED30
:10759000100B51EC100B02F0ABFD53EC182BF8F76D
:1075A0000BFF9FED730BCDE9000153EC102B9DED0C
:1075B000000B51EC100BF8F702FF41EC190B6E4871
:1075C0000621B0EE490AF0EE690A784401F058FD50
:1075D00053EC192B51EC100BF8F7F1FE41EC1B0B9F
:1075E0006648B0EE490AF0EE690A0421784401F0D9
:1075F00047FD53EC192B51EC100BF8F7E0FE53EC60
:10760000182BF8F735FE41EC1C0B51EC190B0CF064
:1076100039FC41EC180B5A489FED5BABA04222DCD1
:1076200053EC1C2B51EC1B0BF8F73BFFCDE9000191
:107630009DED000B51EC180B53EC102BF8F7BFFE2F
:1076400053EC182BF8F714FE53EC1A2BF8F7B7FE8F
:1076500053EC1D2BF8F7ADFE53EC1E2BF8F7ACFEE8
:1076600041EC100B5FE08DED008B002000909DED54
:10767000000B51EC180B53EC102BF8F7F9FD9DEDB6
:10768000000B41EC1E0B53EC102B51EC100BF8F7D8
:1076900096FE53EC192BF8F78FFE53EC1E2BF8F7E0
:1076A00000FF41EC190B53EC1C2B51EC1B0BF8F7B2
:1076B000F8FE41EC1B0B53EC1A2B51EC190BF8F7AD
:1076C0007EFE53EC1D2BF8F777FE41EC190B53ECC3
:1076D0001A2B51EC180BF8F772FE53EC1B2BF8F732
:1076E0006EFE53EC192BF8F764FE9DED000B41EC98
:1076F000180B53EC1A2B51EC100BF8F760FE9FEDB2
:10770000249B53EC192BF8F757FE41EC100B51EC6E
:10771000180B53EC102BF8F74CFE53EC192BF8F721
:107720004BFE41EC100B002D3FF7C5AE51EC100B9A
:1077300081F0004141EC100BBDE6000000000000AC
:107740000000F03F00000000075C143326A6913CC7
:10775000182D4454FB21F93F0000F07F0000E03F6A
:10776000000000000000F03F70DA00007EDA000048
:10777000000000000000E03FC2D90000D0D90000A6
:107780003333EF3F00000000000000000000004025
:10779000182D4454FB21E93F70B59B482DED020B99
:1077A0002DED068B079D25F00044A04218DC97487C
:1077B000844202DC0AD1069840B19DED060BBDEC77
:1077C000068B02B0BDE8704001F086BD002DCCBF35
:1077D0009FED8F0B9FED900BBDEC068B02B070BD43
:1077E0008F48A04215DD8F48A042D8BF4FF0FF342C
:1077F00058DD9DED060B51EC100BFFF757FC0428EC
:1078000008BF01F09DFD9DED060BBDEC068B02B09F
:1078100070BD9DED060B51EC100B02F069FCCDE93B
:10782000060181489FED828BA0423CDD8248A04248
:107830001FDD00249FED82AB9DED060B53EC1A2B50
:1078400051EC100BF8F714FD9DED060B41EC190BF4
:1078500053EC1A2B51EC100BF8F7B1FD53EC182B2D
:10786000F8F7A7FD53EC192BF8F71BFECDE906013D
:1078700049E09DED060B012453EC182B51EC100B45
:10788000F8F7F6FC9DED060B41EC190B53EC182BA9
:1078900051EC100BF8F78DFD53EC192BF8F701FEA6
:1078A000CDE906012FE06848A0421FDD02249FEDCC
:1078B000689B9DED060B53EC192B51EC100BF8F760
:1078C0007EFD53EC182BF8F7D3FC9DED060B41EC35
:1078D000180B53EC192B51EC100BF8F76AFD53EC15
:1078E000182BF8F7DEFDCDE906010CE09DED060B47
:1078F000032453EC102B9FED580B51EC100BF8F7B1
:10790000D0FDCDE906019DED060B53EC102B51EC9B
:10791000100BF8F754FD41EC180B53EC182BF8F74B
:107920004EFD41EC190B4E480621B0EE490AF0EE2F
:10793000690A784401F0A4FB53EC182B51EC100BAE
:10794000F8F73DFD41EC180B4648B0EE490AF0EE61
:10795000690A0521784401F093FB53EC192B51EC93
:10796000100BF8F72CFD41EC100B51EC180B53ECFD
:10797000102B002C0EDAF8F77BFC9DED061B53EC68
:10798000112BF8F71CFD9DED061B53EC112BF8F79E
:1079900013FD35E0F8F76CFC9DED061B53EC112B45
:1079A000F8F70DFD41EC100B2F48784400EBC400B4
:1079B00090ED001B51EC100B53EC112BF8F7F9FC78
:1079C0009DED061B53EC112BF8F7F3FC41EC100B6B
:1079D0002648784400EBC40090ED001B51EC100BDE
:1079E00053EC112BF8F7E8FC41EC100B002DA2BF73
:1079F000BDEC068B02B070BD51EC100B81F0004164
:107A000041EC100B01E70000000010440000F07F83
:107A1000182D4454FB21F93F182D4454FB21F9BF84
:107A20000000DC3F0000203E0000F33F00000000AB
:107A3000000000000000F03F0000E63F00000000F2
:107A40000000000000000040008003400000000033
:107A5000000000000000F83F000000000000F0BF40
:107A60009AD7000050D70000DAD6000092D6000066
:107A700070B56B4E2DED040B2DED028B82B0DDF851
:107A80001CC0DDE905235C422CF000411C4341EAA7
:107A9000D474049D22F00040B44205D86C422C43BB
:107AA00040EAD474B4420BD99DED061B9DED040B46
:107AB00002B0BDEC028B04B0BDE8704001F016BC12
:107AC000ACF14054A4F17F641C430BD0022404EABF
:107AD000AC7444EAD27405439FED538B9FED542B55
:107AE00007D015E09DED040B51EC100B01F0B9FC33
:107AF00042E0002C11BF012C9DED040B02B0BDEC47
:107B0000028B04BF04B070BD022C38D0032C3BD0D4
:107B10000B439FED491B9FED4A0B0AD0B14218D190
:107B2000B04209D121F0804120F0804007910590BA
:107B30000FE0002A15DA10E0434B7B44002C08BF0D
:107B400093ED000B0DD0012C10D0022C17D0032C7C
:107B50001AD0B0421DD1002A03DAB0EE410AF0EE8D
:107B6000610A02B0BDEC028B04B070BD93ED000B56
:107B700051EC100B81F0004141EC100BF1E7B0EE3D
:107B8000480AF0EE680AECE7B0EE420AF0EE620A4C
:107B9000E7E7401A00153C28C8BF8DED000B19DC43
:107BA000BCF1000FBEBF10F13C0F9FED290B8DED16
:107BB000000B0FDB9DED060B53EC102B9DED040B22
:107BC00051EC100BF8F76DFC02F092FA01F049FC51
:107BD000CDE90001002C08BF9DED000BC1D0012CA8
:107BE00010D0022C9FED1C0B53EC102B9DED000BC5
:107BF00051EC100B0DD0F8F7DCFB53EC182BF8F719
:107C0000D8FBB9E7019880F0004001909DED000B92
:107C1000A7E7F8F7CEFB53EC182BF8F7CDFBABE753
:107C20000000F07F00000000182D4454FB210940A3
:107C3000182D4454FB2109C0182D4454FB21F9BFD1
:107C4000182D4454FB21F93FF2D50000000000003C
:107C50000000000000000000075C143326A6A13CD1
:107C600010B52F499FED2C1B2DED020B84B005980C
:107C700020F000408842D8BF9DED040B2DDD29493E
:107C8000884209D1049840B94FF0010001F078FB17
:107C900001F036FB06B010BD05DB9DED040B01F0D5
:107CA0001BFB06B010BD68469DED040B00F014FFF1
:107CB00010F0030004BF9DED021B9DED000B0CD0E6
:107CC00001280ED09DED021B9DED000B022817D060
:107CD000012001F051FA06B010BD01F019F906B00B
:107CE00010BD9DED021B9DED000B012001F044FA3B
:107CF00051EC100B81F0004106B041EC100B10BDAF
:107D000001F006F951EC100B81F0004106B041EC96
:107D1000100B10BD0000000000000000000000007B
:107D2000FB21E93F0000F07F2DED020B019820F0D0
:107D3000004001909DED000B02B070470000000074
:107D40002DE9F04D2DED040B2DED0E8B96B0DDE9F8
:107D50002550279CDDF890A025F0004624F000482F
:107D6000BAF1000F14BF0121002101EB4502FC49CB
:107D700053184A1093422AD3002814BF012300232A
:107D800003EB44030B44F7498B4220D358EA00012C
:107D90009FEDF59B76D0DFF8D8B35D4503D1BAF1FE
:107DA000000F05D188E0BAF1000F08BF002100D014
:107DB000012101EB450111F5001F08D8002814BF6F
:107DC0000121002101EB440111F5001F0BD99DEDAC
:107DD000261B9DED240B16B0BDEC0E8B04B0BDE848
:107DE000F04D01F083BA0027002DBCBFE149884562
:107DF00021DAE1498845A8BF02271CDAC3451ADC0D
:107E0000DE4901EB2851142908DDC1F1340220FAC2
:107E100002F101FA02F282420DD108E058B9C1F133
:107E2000140228FA02F101FA02F2424503D101F0EC
:107E30000101C1F1020756EA0A0124D1002C22DA1D
:107E4000002D18BF022F01D0012F0AD0022001F00F
:107E500097FA16B0BDEC0E8B04B0BDE8F04D01F002
:107E600023BA022001F08CFA01F01EFA51EC100B3B
:107E700081F0004141EC100B16B0BDEC0E8B04B04C
:107E8000BDE8F08D18E09FEDBEAB9FEDBF8B0028E5
:107E900071D1B848804522D105F1804010F580109D
:107EA00008BFBAF1000F07D0B3450ADC002CA8BF09
:107EB0009DED260BE0DA0DE0B0EE490AF0EE690A1E
:107EC000DAE7002C06DA9DED260B51EC100B81F061
:107ED00000416FE0AE48784490ED000BCCE7D84508
:107EE0004DD1002C48DA2EB186423AD1BAF1000FBA
:107EF00042D126E0BAF1000F13D0022001F040FA7F
:107F000001F00EFA8DED020B9DED240B8DED000BB3
:107F100010EE900A039961F31E0003909DED020B91
:107F2000AAE78DED02AB9DED240B1AEE901A10EE30
:107F3000900A8DED000B61F31E0003909DED020B86
:107F40009AE78DED028B9DED240B18EE901A10EE42
:107F5000900A8DED000B61F31E0003909DED020B66
:107F60008AE709DA9DED240B51EC190B53EC102B29
:107F7000F8F797FA1EE020E09DED240B7CE786429F
:107F80001BDAB4F1804F0DD0A4F10050B0F1FF50D6
:107F900013D1002D11DB9DED240B51EC100B0BF0D8
:107FA00071FF07E09DED240B53EC102B51EC100BEF
:107FB00000F0C2BC41EC100B5EE79DED240B51ECD0
:107FC000100B02F095F8BAF1000FCDE90E0142D185
:107FD0009FED710B46B3A6F1E040B0F17F600CD08D
:107FE0005E4538D1002D00DAA7B3022F0CBF012067
:107FF0004FF0FF30F8F7C4FADCE7002D01DD002C6C
:108000000DDA002D01DD002C1FDB002D16DA002C0F
:1080100014DB012F08BF9FED620B3FF42DAFB0EED4
:108020004A0AF0EE6A0A27E7022F18BF002D0CD08B
:10803000012F0AD1002DFFF61FAF06E0002DB8BFBB
:10804000002C08DA012F3FF417AFB0EE480AF0EE2B
:10805000680A11E71BE0012000EBE57050EA070118
:1080600015D0791EB0EE498AF0EE698A084308BF40
:108070009FED4D8B4E480025804570DD4D494E48A3
:10808000884514DDB0420DDB002C19DB2FE0012008
:1080900001F076F916B0BDEC0E8B04B0BDE8F04DE2
:1080A00001F02EB9B34502DC002C09DC1FE086424A
:1080B00002DA002C1BDA03E05E452BDD002C16DD16
:1080C000022001F05DF901F02BF98DED020B53EC6C
:1080D0001A2B51EC180BF8F772F9CDE9000103994E
:1080E000019861F31E0003909DED020BC4E602208F
:1080F00001F046F901F024F910EE901A18EE900AFA
:108100008DED020B8DED008B61F31E0003909DED54
:10811000020BB1E69DED0E0B53EC192B51EC100B3D
:10812000F8F747F99FED260BCDE9080153EC102B2A
:108130009DED080B51EC100BF8F741F99FED221B58
:1081400053EC112BF8F738F99DED081B53EC112B6C
:10815000F8F735F99FED1E1B53EC112B3CE08CE03A
:10816000FFFF1F00FFFF0F00000000000000F03FB6
:108170000000F03F0000F07F0000404301FCFFFFE3
:10818000000000000000F07F000000000000000080
:1081900056D2000000000000000000000000008037
:1081A000000000000000F0FF000000000000F0BF31
:1081B0000000E0410000F043FFFFEF3F000000003F
:1081C000000000000000D03F555555555555D53F8E
:1081D000000000000000E03FF8F7EEF89DED080B0E
:1081E00041EC1A0B53EC102B51EC100BF8F7E7F89D
:1081F00053EC1A2BF8F7E3F841EC1A0B9FEDFE0B4A
:1082000053EC102B9DED080B51EC100BF8F7D7F841
:1082100041EC1B0B9FEDFA0B51EC1A0B53EC102B9E
:10822000F8F7CDF841EC1A0B9FEDF70B53EC102B40
:108230009DED080B51EC100BF8F7C1F853EC1A2B1D
:10824000F8F7B7F841EC1A0B51EC1B0B53EC1A2B57
:10825000F8F70EF80690CDE906519DED060B53ECAC
:108260001B2B51EC100BF8F7A4F853EC1A2BF8F772
:10827000A3F841EC100B00F0A1B90020B6F5801F67
:108280000EDA9FEDE30B53EC102B9DED0E0B51EC32
:10829000100BF8F794F8CDE90E016FF034000E469C
:1082A00000EB2650A0F2FF37C6F31300DA4940F086
:1082B0007F6646F040568842D8BF002408DDD74983
:1082C0008142C8BF012403DC0024A6F580167F1C70
:1082D000D348784400EBC4000F9690ED00CB9DEDA1
:1082E0000E0B53EC1C2B51EC100BF8F762F89DEDC4
:1082F0000E0B41EC1B0B53EC1C2B51EC100BF7F746
:10830000B7FF41EC100B51EC190B53EC102BF8F7A5
:10831000C8F841EC1D0B51EC1B0B53EC1D2BF8F76F
:108320004EF841EC1A0BBF488DED10AB7844109518
:1083300090ED000B4FF0005040EA660000EB8440E7
:108340008DED080B00F5002009909DED080B53EC16
:108350001C2B51EC100BF8F72CF89DED0E1B53EC79
:10836000112BF8F729F841EC100B53EC102B9DED75
:10837000100B51EC100BF8F722F89DED080B41ECB7
:108380001C0B53EC102B9DED100B51EC100BF8F760
:1083900016F853EC1B2BF8F70FF853EC1C2BF8F7DF
:1083A00008F853EC1D2BF8F70AF841EC1C0B53ECC2
:1083B0001A2B51EC1A0BF8F702F841EC1B0B9A48F8
:1083C0000621B0EE4B0AF0EE6B0A784400F058FE3E
:1083D000B0EE401AF0EE601AB0EE41DAF0EE61DA7B
:1083E00053EC1B2B51EC1B0BF7F7E9FF53EC1D2B48
:1083F000F7F7E5FF9DED100B41EC1B0B53EC1A2B2F
:1084000051EC100BF7F734FF53EC1C2BF7F7D7FFA9
:1084100053EC1B2BF7F72CFF9DED100B41EC1B0BC6
:1084200053EC102B51EC100BF7F7C9FF41EC1D0B6F
:108430009FED7FEB53EC1E2BF7F71AFF53EC1B2B32
:10844000F7F716FF0890CDE908519DED080B53ECA6
:108450001E2B51EC100BF7F7ACFF53EC1D2BF7F76D
:10846000A8FF53EC1B2BF7F7A7FF9DED080B41EC82
:108470001D0B53EC102B9DED100B51EC100BF7F76F
:108480009EFF41EC1B0B53EC1A2B51EC1D0BF7F725
:1084900096FF9DED080B41EC1A0B53EC102B51ECA1
:1084A0001C0BF7F78CFF53EC1A2BF7F7E1FE41ECAE
:1084B0001A0B51EC1B0B53EC1A2BF7F7D9FE0C904F
:1084C000CDE90C519DED0C0B53EC1B2B51EC100B1B
:1084D000F7F76FFF53EC1A2BF7F76EFF41EC1B0B0E
:1084E0009FED550B53EC102B9DED0C0B51EC100B2D
:1084F000F7F765FF41EC1A0B9FED510B51EC1B0B8D
:1085000053EC102BF7F75BFF41EC1B0B9FED4E0B71
:1085100053EC102B9DED0C0B51EC100BF7F74FFFAC
:1085200053EC1B2BF7F7A4FE41EC100B48487844A2
:1085300000EBC40090ED001B51EC100B53EC112B21
:10854000F7F796FE41EC1B0B3846F8F719F8CDE922
:10855000080153EC1B2B51EC1A0BF7F789FE41EC89
:10856000100B3C48784400EBC40090ED00CB51EC7C
:10857000100B53EC1C2BF7F77BFE9DED081B53EC07
:10858000112BF7F775FE0690CDE906519DED080B0E
:1085900053EC102B9DED060B51EC100BF7F709FF78
:1085A00053EC1C2BF7F705FF53EC1A2BF7F701FFE1
:1085B00053EC1B2BF7F700FF41EC100B9DED261B36
:1085C00053EC102B8DED001B00959DED260B51EC0F
:1085D000100BF7F7F4FE9DED000B41EC1A0B53EC7A
:1085E000102B9DED260B51EC100BF7F7E2FE9DEDE5
:1085F000061B53EC112B2FE0000000604715F73FDE
:10860000FE822B654715F73F44DF5DF80BAE543E05
:1086100000000000000040438E9803007AB60B0073
:108620000ACD000000CE000042CC00000000000097
:108630000000000000000840000000E009C7EE3F15
:10864000FD033ADC09C7EE3FF5015B14E02F3EBEA7
:10865000CECA000088CA0000F7F7B1FE53EC1A2B0F
:10866000F7F706FE9DED060B41EC1A0B53EC102BB1
:108670009DED000B51EC100BF7F7A1FECDE90C01BD
:108680009DED0C0B51EC1A0B53EC102BF7F7F0FD92
:10869000CDE902010C46AA498C422FDB611A08433E
:1086A00018D19DED0C0B53EC102B9DED020B51ECF2
:1086B000100BF7F77EFE41EC1B0B9FEDA30B51EC6B
:1086C0001A0B53EC102BF7F7D3FD53EC1B2BF7F7DA
:1086D000D9FF2DD2022000F053FE00F021FE10EE53
:1086E000901A18EE900A8DED020B8DED008B61F360
:1086F0001E0003909DED020BFFF7BEBB944A24F0D1
:108700000041914214D39349214408437FF4EFACD4
:108710009DED0C0B53EC102B9DED020B51EC100B4F
:10872000F7F747FE53EC1A2BF7F7ACFF7FF6DFACF9
:1087300024F000408849894A002601EB20518242FA
:108740002BDA481C4FF4801121FA00F02044844AAF
:10875000C0F30A517A44A1F2FF3192ED000B814A35
:108760008DED080BCA4020EA0202C0F3130040F46A
:108770008010C1F1140120FA01F60992002CB8BF53
:1087800076429DED080B53EC102B9DED0C0B51EC3C
:10879000100BF7F70EFECDE90C019DED0C0B51EC23
:1087A0001A0B53EC102BF7F763FD9FED6F0B08903E
:1087B000CDE9085153EC102B9DED080B51EC100B3B
:1087C000F7F7FDFD41EC1B0B9FED690B53EC102BF4
:1087D0009DED080B51EC100BF7F7F1FD9DED0C0B27
:1087E00041EC1C0B53EC102B9DED080B51EC100BC6
:1087F000F7F7DFFD53EC1A2BF7F7DEFD9FED5E1B5D
:1088000053EC112BF7F7DBFD53EC1C2BF7F730FD86
:1088100041EC1A0B51EC1B0B53EC1A2BF7F728FD0C
:10882000CDE902019DED020B53EC1B2B51EC100B1B
:10883000F7F7BFFD53EC1A2BF7F7BEFD9DED020BCA
:1088400041EC1A0B53EC102B51EC100BF7F7B7FD62
:10885000CDE908014A489DED080B0521784400F058
:108860000FFC9DED081B51EC100B53EC112BF7F78F
:10887000A6FD9DED021B53EC112BF7F79DFDCDE9F5
:1088800006019DED020B53EC1A2B51EC100BF7F780
:1088900096FD53EC1A2BF7F7EBFC9FED3B0B41ECED
:1088A0001A0B53EC102B9DED060B51EC100BF7F748
:1088B00080FD9DED060B41EC1B0B53EC102B9DED49
:1088C000020B51EC100BF7F77AFD53EC1B2BF7F76B
:1088D000E8FD53EC1A2BF7F76CFD9DED021B53ECF2
:1088E000112BF7F766FD53EC192BF7F765FDCDE972
:1088F000020101EB065001150029C8BF039015DCE9
:108900009DED020B324651EC100BF7F7E5FFFEF739
:10891000CDFB042808BF00F013FD32469DED020B8D
:1089200051EC100BF7F7D8FFCDE902019DED020BDA
:1089300051EC180B53EC102BF7F741FDFFF73ABB46
:108940000000904000000000FE822B654715973C18
:1089500000CC904000346F3F01FCFFFF0000E03F7F
:10896000D8C90000FFFF0F0000000000432EE63FC3
:10897000396CA80C615C20BEEF39FAFE422EE63F4E
:10898000E0C7000000000000000000000000004000
:1089900010B52F499FED2C1B2DED020B84B00598CF
:1089A00020F000408842DCBF00209DED040B32DD4A
:1089B0002849884209D1049840B94FF0010000F0DD
:1089C000DFFC00F09DFC06B010BD05DB9DED040B47
:1089D00000F082FC06B010BD68469DED040B00F06F
:1089E0007BF810F0030011D0012818D09DED021B78
:1089F0009DED000B02281AD000F08AFA51EC100B02
:108A000081F0004106B041EC100B10BD9DED021B42
:108A10009DED000B012000F0AFFB06B010BD9DEDF9
:108A2000021B9DED000B00F073FA06B010BD012093
:108A300000F0A2FB51EC100B81F0004106B041ECBC
:108A4000100B10BD0000000000000000000000003E
:108A5000FB21E93F0000F07F00B52DED048BB0EE67
:108A6000409AF0EE609A83B051EC190BF7F74BFF88
:108A700041EC180B18EE100A18EE901A8DED008BD1
:108A8000002818BF0120084320F00040C0F17F609B
:108A900000F1E040C00F14D019EE101A19EE900A40
:108AA0008DED009B002918BF0121084320F00040F4
:108AB000C0F17F6000F1E040C00F04BF012000F072
:108AC0005FFCB0EE480A03B0F0EE680ABDEC048B20
:108AD00000BD0000000000002DE9F14F04462DED1F
:108AE000020B2DED088B8AB09FEDE70B80ED020B9A
:108AF000139EE74826F0004585420ADC9DED120BE7
:108B0000002084ED000B0AB0BDEC088B03B0BDE87B
:108B1000F08FE0489FEDE0AB9FEDE1BBA84247DD61
:108B2000E14F9FEDE39B9FEDE48B9DED120B53EC2A
:108B30001A2B51EC100B002E1CDDF7F73AFC41EC20
:108B4000100BBD4208D053EC1B2B51EC100BF7F768
:108B500030FCC4E900010BE053EC192B51EC100B75
:108B6000F7F727FC53EC182BF7F723FCC4E90001B7
:108B70000120C8E7F7F77CFB41EC100BBD4208D0A1
:108B800053EC1B2B51EC100BF7F772FBC4E90001FF
:108B90000BE053EC192B51EC100BF7F769FB53EC7E
:108BA000182BF7F765FBC4E900014FF0FF30AAE787
:108BB000C348A84279DB9DED120B51EC100B01F07C
:108BC00097FA41EC180B9FEDC00B53EC102BF7F705
:108BD000F6FB9FEDBF1B53EC112BF7F749FBF7F7A3
:108BE000EDFC0746F7F7CCFC41EC190B53EC1A2BC4
:108BF000F7F7E5FB53EC182BF7F7DEFB41EC180B0E
:108C000053EC1B2B51EC190BF7F7D9FBDFF8C8A27B
:108C100041EC100B4FEA15580125FA4453EC102B88
:108C200051EC180BF7F7C5FB032DC4E900013DD04B
:108C3000C1F30A5005EB4511A8EB00001139814240
:108C400034DA0AEB051BB0EE48AA9BED000BF0EE00
:108C500068AA53EC102B51EC190BF7F7B0FB41EC61
:108C60001B0B51EC1A0B53EC1B2BF7F7A2FB41EC3F
:108C7000180B51EC1A0B53EC182BF7F79AFB53EC2B
:108C80001B2BF7F796FB9BED020B41EC1A0B53ECF9
:108C9000102B51EC190BF7F792FB53EC1A2BF7F74B
:108CA00088FB41EC100B6D1CB8E70EE0002EA8BF4E
:108CB0003846BFF628AF94ED000B51EC100B81F055
:108CC0000041C4E9000178421DE7C6F3130040F4F7
:108CD000801EC6F30A50A0F2F530471100F01F05C0
:108CE000C5F12000DDF848B00890002006900790FC
:108CF0000520EC467949002D07EB0002794408BFB6
:108D000051F8221009D051F8223001EB8201AB401A
:108D10004A68089922FA01F11943A1FB0E26A1FB2A
:108D20000B131A449A4234BF0123002303EB0608B5
:108D30000CEB8003D3E901A60E448E4234BF01211F
:108D4000002192448A4411B1924502D903E0924530
:108D500001D2012100E00021C3E901A641444CF801
:108D60002010011EA0F10100C4DC029800F10050A7
:108D7000850F0298DDE903678000DDF81480F7F7BE
:108D8000FFFB41EC1A0B3046F7F70BFC9FED541B31
:108D900053EC112BF7F713FB41EC1B0B3846F7F79D
:108DA00000FC9FED511B53EC112BF7F708FB41EC36
:108DB000180B4046F7F7F5FB9FED4D1B53EC112BBD
:108DC000F7F7FDFA41EC190B51EC180B53EC192B8A
:108DD000F7F74EFA53EC1B2BF7F74AFA53EC1A2B22
:108DE000F7F746FACDE90801002008909DED080B41
:108DF00053EC1A2B51EC100BF7F7DBFA53EC1B2B4F
:108E0000F7F7D7FA53EC182BF7F7D3FA53EC192BE3
:108E1000F7F7D2FA9FED381B53EC112BF7F7CFFA87
:108E20009FED370B41EC180B53EC102B9DED080B0D
:108E300051EC100BF7F7C3FA53EC182BF7F718FAAD
:108E40009FED310B41EC180B53EC102B9DED080BF3
:108E500051EC100BF7F7B3FA53EC182BF7F708FAAD
:108E600041EC100B139810F0004F06D06D4251ECFE
:108E7000100B81F0004141EC100B284684ED000BF3
:108E800041E60000000000000000000000000000BB
:108E9000FB21E93F7CD9024000004054FB21F93F0F
:108EA0003163621A61B4D03DFB21F93F000000003C
:108EB0000000601A61B4D03D7370032E8A19A33B81
:108EC000FB2139410000000083C8C96D305FE43FD9
:108ED000000000000000E03F1AC5000068C4000068
:108EE000000000000000103E000000000000103CE8
:108EF000000000000000103A182D4454FB21F93DF9
:108F00003326A611460B113C00000054FB21F93D0D
:108F100010B52DED040B2DED088B82B0B0EE419A0B
:108F2000F0EE619A0B9820F000449FED4BABB4F14A
:108F3000795F11DA9DED0A0B51EC100BF7F73EFB50
:108F4000002801BFB0EE4A0AF0EE6A0A02B0BDEC9A
:108F5000088B04BF04B010BD9DED0A0B53EC102B21
:108F600051EC100BF7F72BFA41EC180B3C4806219B
:108F7000B0EE480AF0EE680A784400F081F853EC4D
:108F8000182B51EC100BF7F71AFA9DED0A0B41EC78
:108F90001B0B53EC192B51EC100BF7F710FA41ECAB
:108FA000190B53EC1B2B51EC180BF7F708FA53EC89
:108FB000192BF7F7FEF99FED2C0B41EC190B53EC35
:108FC000102B51EC180BF7F7FAF941EC100B28486D
:108FD000844210DA53EC192B51EC100BF7F7E9F936
:108FE00053EC1A2BF7F7E8F941EC100B02B0BDEC8B
:108FF000088B04B010BD1F48A042BCBF9FED1E1BD4
:109000008DED001B06DBA4F5001001900020009000
:109010009DED001B51EC100B53EC112BF7F7C9F928
:109020009DED000B41EC180B53EC102B51EC1A0B7F
:10903000F7F7BFF941EC1A0B53EC192B51EC180B55
:10904000F7F7B7F953EC1A2BF7F7B6F941EC100B19
:10905000CCE7000000000000000000000000F03F2E
:1090600084C1000000000000000000000000E03F9C
:109070003333D33F0000E93F000000000000D23F3F
:1090800070B504462DED028B4D1E00EBC500B0EE11
:10909000408AF0EE608A90ED000B35F0060017D0A4
:1090A00053EC182B51EC100BF7F789F941EC100B2E
:1090B0006D1E04EBC50090ED001B51EC100B53EC42
:1090C000112BF7F7D5F841EC100B35F00600E7D17E
:1090D000022D36D0042D1CD0062D1CBFBDEC028BFA
:1090E00070BD53EC182B51EC100BF7F768F994EDA9
:1090F0000A1B53EC112BF7F7BBF853EC182BF7F7BF
:109100005EF994ED081B53EC112BF7F7B1F841EC25
:10911000100B53EC182B51EC100BF7F750F994EDA2
:10912000061B53EC112BF7F7A3F853EC182BF7F7AA
:1091300046F994ED040B53EC102BF7F799F841EC3A
:10914000100B53EC182B51EC100BF7F738F994ED8A
:10915000021B53EC112BF7F78BF853EC182BF7F796
:109160002EF994ED001B53EC112BF7F781F8BDECB1
:10917000028B41EC100B70BD31B504462DED040B94
:109180002DED0A8BB0EE41BAF0EE61BA0B989DED71
:109190000A0B20F00040B0F1795F0DDA51EC100BB2
:1091A000FDF784FF042808BF00F0CAF89DED0A0B04
:1091B000BDEC0A8B05B030BD53EC102B51EC100BFD
:1091C000F7F7FDF841EC180B9DED0A0B53EC182B4B
:1091D00051EC100BF7F7F3F841EC190B2C48B0EEFB
:1091E000480AF0EE680A05217844FFF749FF9FED31
:1091F0002ACBB0EE40AAF0EE60AA9CB353EC1C2B35
:1092000051EC190BF7F7DBF841EC1C0B53EC1A2B64
:1092100051EC190BF7F7D3F89FED210B41EC190B2B
:1092200053EC102B51EC1B0BF7F7C9F853EC192B2F
:10923000F7F7BFF853EC182BF7F7C1F853EC1B2BDB
:10924000F7F7B7F853EC1C2BF7F7B3F89DED0A1BB3
:1092500053EC112BF7F7B0F8BDEC0A8B05B041ECDD
:10926000100B30BDFFE753EC1A2B51EC180BF7F73E
:10927000A6F853EC1C2BF6F7FBFF53EC192BF7F772
:109280009EF89DED0A1B53EC112BF6F7F1FFE3E777
:1092900014C0000000000000495555555555C5BF84
:1092A000000000000000E03F9FED070B10B553ECFD
:1092B000102B9FED070B51EC100BF7F7F2F841EC78
:1092C000100B10BD000000000000000000000000B6
:1092D000000000000000F03F10B553EC102B51ECE3
:1092E000100BF6F7C5FF41EC100B10BD10B553EC99
:1092F000112B51EC100BF6F7BBFF41EC100B10BD1E
:109300009FED050B10B553EC102B51EC100BF7F73C
:10931000C8F841EC100B10BD000000000000000078
:109320009FED050B10B553EC102B51EC100BF7F71C
:1093300046F841EC100B10BD00000000000000706A
:109340009FED050B10B553EC102B51EC100BF7F7FC
:1093500036F841EC100B10BD0000000000000010BA
:1093600002E008C8121F08C1002AFAD170477047EE
:10937000002001E001C1121F002AFBD1704700004C
:109380000149086070470000500700202DE9F84FA0
:109390009946924688460546002706E025280AD0C9
:1093A00051464A4690476D1C7F1C28780028F5D10D
:1093B0003846BDE8F88F002315F8011F18462E29FE
:1093C00015D115F8011F04232A290DD06FF02F02A3
:1093D0002978A1F13004092C09D800EB800002EBB8
:1093E000400008446D1CF3E758F8040B6D1C2A7804
:1093F000002ADDD0632A07D0732A0FD010465146C9
:109400004A4690477F1C2AE018F8042B8DF800206C
:1094100000218DF801106E46012103E058F8046B1D
:109420004FF0FF315A074FF0000401D409E0641CEB
:1094300084420BDA8C42FADB325D002AF7D105E078
:10944000641C8C42FCDB305D0028F9D1274404E029
:1094500016F8010B51464A469047641EF8D26D1C1F
:10946000A3E710B541EC100BFEF796F951EC100B89
:1094700010BD70B504460D462046F7F7BBFD70BD24
:109480002DE9F0410446E07800F0C006E07800F0F5
:109490003F05607800F0010098B1EF102846E91709
:1094A00005EB5171C910A5EBC101491C01F0FF0882
:1094B0000B48006820B10A48414602683846904788
:1094C00000BF607800F0080030B10548406818B16E
:1094D000B011034A516888470020BDE8F0810000C0
:1094E0004C14002010B5002107E04AF2104200BFE2
:1094F000131EA2F10102FBD1491C8142F5D310BD1C
:1095000010B5002106E02A2200BF131EA2F10102BD
:10951000FBD1491C8142F6D310BD38B5044664B175
:1095200020208DF8000028208DF8010030208DF8D3
:10953000020038208DF8030004E0A32204216846CD
:10954000F6F777FE6A46042140F69E2008F084F97B
:1095500007F01EFD38BD00003EB5044602208DF820
:109560000000CA208DF80100E3208DF802000920D8
:109570008DF803006A460421682008F06DF9A320E5
:109580008DF8000004F0400048B1C0208DF80100C3
:10959000C8208DF80200C2208DF8030006E0A32049
:1095A0008DF801008DF802008DF8030004F4C070FE
:1095B00048B1C4208DF80400CC208DF80500C620E9
:1095C0008DF8060006E0A3208DF804008DF8050054
:1095D0008DF80600A3208DF807008DF808008DF89F
:1095E00009006A460A2140F6A72008F035F904F080
:1095F000030018B120208DF8000002E0D8208DF87B
:1096000000006A46012140F6B62008F025F904F072
:10961000200018B1012000F0ADF802E0002000F0B9
:10962000A9F804F4C07008B304F4807060B1B220EB
:109630008DF800008B208DF80100B6208DF8020017
:109640009B208DF803000BE0B0208DF800008020F7
:109650008DF80100B4208DF8020090208DF80300F1
:109660006A46042140F6A22008F0F6F804F0010052
:1096700020B3F8208DF800006A4601214FF40B60FA
:1096800008F0EAF8FA21072000F02CFC072000F08F
:10969000F3FB012000F013FC642000F003FD4FF405
:1096A000FA7000F012FDC821304800F0A3FB28201A
:1096B00000F0BCFB0A2000F0CCFB08E0D8208DF8BD
:1096C00000006A4601214FF40B6008F0C5F804F071
:1096D000020018B1D9208DF8000002E0D8208DF8E2
:1096E00000006A46012140F23D7008F0B5F804F030
:1096F000040018B1012000F069F802E0002000F039
:1097000065F804F0100018B10120FFF706FF02E031
:109710000020FFF702FF44F008001549488107F0D8
:1097200037FC00201249887304F0400018B1084645
:10973000807B801D887304F4C07020B10C48807B4E
:10974000801D0B49887304F0140020B10848807B09
:1097500010300749887304F0030020B10448807B6F
:10976000001D0349887300203EBD000009E3CA02C2
:109770004C1400203EB504466CB10EA1D1E9002086
:109780008968CDE9002002916A4609214FF497606B
:1097900008F062F83EBD0AA2D2E900109268CDE955
:1097A000010200916A4609214FF4976008F054F8CD
:1097B000F0E70000B8AAB38DB4980D355D00000045
:1097C000B8AAAAAAB088C3C5C700000038B5044625
:1097D00064B1C0208DF80000C2208DF80100C420C3
:1097E0008DF80200C6208DF8030004E08B220421CE
:1097F0006846F6F71EFD6A46042140F6982008F0F8
:109800002BF807F0C5FB38BD10B5C8234FF48062B4
:10981000024940F6F63007F031FA10BD4443010822
:109820002DE9F04F8DB00746884615469946DDE98B
:10983000166B0024002030806B49887B5A4605A9AE
:1098400007F006FB18B1601E0DB0BDE8F08F66484A
:10985000807A00F01400002867D09DF814000006FC
:109860009DF8151040EA01409DF8161040EA0120CD
:109870009DF81710084328609DF8180000069DF811
:10988000191040EA01409DF81A1040EA01209DF8A5
:109890001B10084368609DF81C0000069DF81D1011
:1098A00040EA01409DF81E1040EA01209DF81F107B
:1098B0000843A8609DF8200000069DF8211040EAAA
:1098C00001409DF8221040EA01209DF82310084332
:1098D000E86004F11000C4B22868001401906868C0
:1098E00000140290A86800140390E8680014049023
:1098F00001984043029901FB0100039901FB01001B
:10990000049901FB010ABAF1706F02DBBAF1885FBA
:1099100005DD07F03DFB00203080401E94E7B6F9DE
:10992000000040F48070308000BF2F48807A00F043
:10993000400020B305A9601C085C095D40EA0120D5
:1099400000B2A8F8000005A9E01C095C05AAA01C4B
:10995000105C41EA002000B2A8F8020005A9601DD1
:10996000095C201D105C41EA002000B2A8F8040048
:10997000A01DC4B2B6F9000040F0080030801A48BB
:10998000408900F4C07008B305A9601C085C095D3B
:1099900040EA012000B2388005A9E01C095C05AA54
:1099A000A01C105C41EA002000B2788005A9601D6F
:1099B000095C201D105C41EA002000B2B880A01DA7
:1099C000C4B2B6F9000040F0700030800648807ADA
:1099D00000F0030018B105A90819FFF751FD48462A
:1099E00000F088FF00202FE74C14002070B588B0ED
:1099F000064601A806F0F4FFBDF804000021C903E3
:109A000041EA5045C4034448007A00F0030056F888
:109A1000200005904048007A00F0040010B105983D
:109A2000404205903C48007AC0F3C10056F820003F
:109A300006903948007A00F0200010B106984042A4
:109A400006903548007AC0F3811056F82000079040
:109A50003148008900F4807010B1079840420790A7
:109A60000598C117A0FB042301FB043100FB05107E
:109A7000810041EA927005900698C117A0FB04236B
:109A800001FB043100FB0510810041EA9270069051
:109A90000798C117A0FB042301FB043100FB05104C
:109AA000810041EA927007900598000E8DF8080039
:109AB0000598000C8DF809000598000A8DF80A0039
:109AC0000598C0B28DF80B000698000E8DF80C00BA
:109AD0000698000C8DF80D000698000A8DF80E000F
:109AE0000698C0B28DF80F000798000E8DF8100090
:109AF0000798000C8DF811000798000A8DF81200E5
:109B00000798C0B28DF8130002AA0C214FF42570FB
:109B100007F0A2FE08B070BD4C14002030B585B02F
:109B2000044616A207CA02AB07C3C82C03DD4FF0D8
:109B3000FF3005B030BDC82090FBF4F0401E85B268
:109B4000280A8DF80000E8B28DF801006A4602216B
:109B500040F2162007F080FE10B14FF0FF30E8E72A
:109B600002AA0C2140F6C12007F076FE10B14FF09A
:109B7000FF30DEE7044884810020DAE7FEF2ABC460
:109B8000AAF1DFDFBBAFDFDF4C1400201FB50446B6
:109B90004848007A00F0030054F82000019045483E
:109BA000007A00F0040010B1019840420190414851
:109BB000007AC0F3C10054F8200002903D48007ABA
:109BC00000F0200010B10298404202903948007A1B
:109BD000C0F3811054F8200003903648008900F447
:109BE000807010B10398404203903349019880FB84
:109BF0000101800F40EA810001902F49029880FB0B
:109C00000110820042EA917002902B49039880FB78
:109C10000110820042EA917003900198000E8DF8C5
:109C200000000198000C8DF801000198000A8DF8E1
:109C300002000198C0B28DF803006A4604214FF477
:109C4000747007F009FE18B14FF0FF3004B010BD7A
:109C50000298000E8DF800000298000C8DF80100AB
:109C60000298000A8DF802000298C0B28DF8030035
:109C70006A4604214FF4757007F0EEFD10B14FF005
:109C8000FF30E3E70398000E8DF800000398000C06
:109C90008DF801000398000A8DF802000398C0B205
:109CA0008DF803006A4604214FF4767007F0D4FD66
:109CB000CCE700004C14002009E3CA0210B586B0BE
:109CC000044647A00068039046A00068029046A0A2
:109CD0000068019045A00068009004F0030003A90B
:109CE000085C8DF8140003A8C4F3C101405C8DF832
:109CF000150003A8C4F38111405C8DF8160004F030
:109D0000030002A9085C8DF8100002A8C4F3C10189
:109D1000405C8DF8110002A8C4F38111405C8DF8FD
:109D2000120005AA032140F2264007F095FD18B164
:109D30004FF0FF3006B010BD04AA032140F22A40C4
:109D400007F08AFD10B14FF0FF30F3E7019805905E
:109D50000098049004F0040058B19DF8140040F0FD
:109D600001008DF814009DF8100040F001008DF8FE
:109D7000100004F0200058B19DF8150040F00100DB
:109D80008DF815009DF8110040F001008DF81100CC
:109D900004F4807058B19DF8160040F001008DF871
:109DA00016009DF8120040F001008DF8120005AA7F
:109DB00003214FF4886007F04FFD10B14FF0FF30E2
:109DC000B8E704AA032140F2314007F045FD10B185
:109DD0004FF0FF30AEE7064804810020AAE70000FC
:109DE0004CCD6C000CC92C00365676002646660019
:109DF0004C140020F8B505460E464FF47A7095FBDA
:109E0000F0F000FB06F4200E8DF80000200C8DF819
:109E10000100200A8DF80200E0B28DF803006A46C6
:109E200004214FF4AE7007F017FDF8BD38B50446B5
:109E3000052094FBF0F084B220128DF80000E0B20F
:109E40008DF801006A4602214FF4AD7007F004FD61
:109E500038BD38B50446052094FBF0F084B22012DA
:109E60008DF80000E0B28DF801006A4602214FF43F
:109E7000AC7007F0F1FC38BD38B504460020009006
:109E800004F0010020B19DF8000040F03000009087
:109E900004F0020020B19DF8000040F00C0000909A
:109EA00004F0040020B19DF8000040F00300009091
:109EB0006A4601214FF4A47007F0CEFC38BD38B5D6
:109EC0000446012C01DA012402E0042C00DD042404
:109ED000601EC0B200906A46012140F24F1007F0A8
:109EE000BBFC38BDF0B52DED028B83B006460F46A6
:109EF00006F0070010B1B7F5C86F05DD4FF0FF3071
:109F000003B0BDEC028BF0BD00EE107AB8EE400A53
:109F1000DFED5B0A80EE208A01A806F03BFD9DF88C
:109F20000400022806D0042817D0082828D01028BA
:109F30004CD138E09FED530A28EE000ABCEEC00A6F
:109F400010EE100A84B29FED500A28EE000ABCEE13
:109F5000C00A10EE100A85B23BE09FED4C0A28EED5
:109F6000000ABCEEC00A10EE100A84B29FED480A47
:109F700028EE000ABCEEC00A10EE100A85B228E0F6
:109F80009FED440A28EE000ABCEEC00A10EE100A4B
:109F900084B29FED410A28EE000ABCEEC00A10EE22
:109FA000100A85B215E09FED3D0A28EE000ABCEECE
:109FB000C00A10EE100A84B29FED390A28EE000A9A
:109FC000BCEEC00A10EE100A85B202E04FF0FF307E
:109FD00096E700BF20128DF80800E0B28DF8090066
:109FE00028128DF80A00E8B28DF80B0006F0010087
:109FF000A0B102AA02214FF4EA7007F02DFC10B1C3
:10A000004FF0FF307CE70DF10A0202214FF492700D
:10A0100007F022FC10B14FF0FF3071E706F00200AC
:10A02000A0B102AA02214FF4EC7007F015FC10B1A8
:10A030004FF0FF3064E70DF10A0202214FF49470F3
:10A0400007F00AFC10B14FF0FF3059E706F00400AA
:10A05000A0B102AA02214FF4EE7007F0FDFB10B18F
:10A060004FF0FF304CE70DF10A0202214FF49670D9
:10A0700007F0F2FB10B14FF0FF3041E700203FE75F
:10A0800000004843000080460000404600000046B3
:10A090000000C0450000804500004045000000452C
:10A0A0000000C04438B50446052094FBF0F085B2AA
:10A0B00028128DF80000E8B28DF801006A460221EE
:10A0C0004FF4EF7007F0C8FB38BD38B504460520E3
:10A0D00094FBF0F085B228128DF80000E8B28DF8FC
:10A0E00001006A4602214FF4ED7007F0B5FB38BD60
:10A0F00082B0CDE9000121F0004001909DED000B00
:10A1000002B051EC100B70471D4A1268012A06D0AC
:10A11000022A0FD0032A19D0062A2FD122E000BF2D
:10A12000184A128802F04002002AF9D0C2B2154B38
:10A130009A8023E000BF144A128802F04002002AED
:10A14000F9D0C2B2104B1B1D1A8017E000BF0F4A96
:10A15000128802F04002002AF9D0C2B20B4B1B1D3C
:10A160001A800BE000BF0A4A128802F04002002A5F
:10A17000F9D0C2B2064B1B1D1A8000BF00BF70474A
:10A1800094060020001001400044004000480040B8
:10A190000014014010B52DED088B7348B0F9000094
:10A1A00000EE100AB8EEC00AF0EE000A20EE200A17
:10A1B00010EE101A0846F6F739FA41EC1A0B9FED2B
:10A1C0006B0B53EC102BF6F76CF941EC190B9FED70
:10A1D000690B53EC102BF6F7F2F841EC180BF6F77D
:10A1E00069FA6649C8636048B0F9020000EE100AD7
:10A1F000B8EEC00AF8EE000A20EE200A10EE101A9F
:10A200000846F6F713FA41EC1A0B9FED580B53EC86
:10A21000102BF6F746F941EC190B9FED560B53EC5A
:10A22000102BF6F7CCF841EC180BF6F743FA53492C
:10A2300008644D48B0F9040000EE100AB8EEC00AF8
:10A24000F8EE000A20EE200A10EE101A0846F6F783
:10A25000EDF941EC1B0B9FED450B53EC102BF6F782
:10A2600020F941EC1A0B9FED430B53EC102BF6F742
:10A27000A6F841EC190B9FED420B53EC102BF6F7AF
:10A2800098F841EC180BF6F715FA3C4948643E483B
:10A290000068B0F5FA5F0ED2084690ED110AF9EEAB
:10A2A000040AB4EEE00AF1EE10FA04D2374800884E
:10A2B000401C3649088035480088B0F5967F20DD7F
:10A2C000334890ED000A3348D0ED000A30EE200A02
:10A2D000B1EE400A294880ED190A2F4890ED000A96
:10A2E0002E48D0ED000A30EE200AB1EE400A234895
:10A2F00080ED180A2A4890ED000A204880ED1A0ADD
:10A300001DE0234890ED000A2248D0ED000A30EE0F
:10A31000200A1A4880ED190A1F4890ED000A1F48CC
:10A32000D0ED000A30EE200AB1EE400A134880ED6D
:10A33000180A1B4890ED000A104880ED1A0A0F48D1
:10A3400090ED180A174880ED000A0C4890ED190AA4
:10A35000154880ED000A094890ED1A0A134880ED6F
:10A36000000ABDEC088B10BDF206002000000000C2
:10A370000000E0409A99999999992340640B002034
:10A380006666666666660240B0050020BE0500206F
:10A39000D4060020B4050020D8060020B80500200F
:10A3A000DC060020D4020020D8020020DC020020BD
:10A3B00030B52DED048B81B0FE48007800287DD1AA
:10A3C000FD4801F061F9FD4801F044FBFC4801F053
:10A3D00025FDFC4801F006FFFB480068F6F7E1F8B0
:10A3E00041EC190B9FEDF90B53EC102BF5F740FFE7
:10A3F00041EC180BF6F7E2F80446F3480068F6F76C
:10A40000D0F841EC190B9FEDF30B53EC102BF5F743
:10A41000D0FF41EC180BF6F7D1F805460020EF49C4
:10A4200000904888FF2322462946F7F771F8EC4947
:10A430000870EC480068F6F7B4F841EC190B9FED92
:10A44000EA0B53EC102BF5F713FF41EC180BF6F762
:10A45000B5F80546E3480068F6F7A3F841EC190B98
:10A460009FEDE30B53EC102BF5F7A3FF41EC180B1A
:10A47000F6F7A4F80446FF20DF490090488800233F
:10A480002A462146F7F744F8DC490870DC480068A2
:10A49000F6F787F841EC190B9FEDDA0B53EC102B14
:10A4A000F5F7E6FE41EC180BF6F788F80446D448B9
:10A4B0000068F6F776F841EC190B00E00CE29FED2E
:10A4C000D10B53EC102BF5F774FF41EC180BF6F79A
:10A4D00075F805460020CD4900904888FF232246A4
:10A4E0002946F7F715F8CA490870CA480068F6F710
:10A4F00058F841EC190B9FEDB70B53EC102BF5F707
:10A50000B7FE41EC180BF6F759F80446C14800684D
:10A51000F6F747F841EC190B9FEDAC0B53EC102B01
:10A52000F5F747FF41EC180BF6F748F80546FF2012
:10A53000B94900904888002322462946F6F7E8FFEB
:10A54000B6490870B6480068F6F72BF841EC190BCD
:10A550009FEDA70B53EC102BF5F78AFE41EC180B7F
:10A56000F6F72CF80446AE480068F6F71AF841EC06
:10A57000190B9FED9D0B53EC102BF5F71AFF41ECD7
:10A58000180BF6F71BF805460020A64900904888EE
:10A59000FF2322462946F6F7BBFFA3490870A348CC
:10A5A0000068F5F7FEFF41EC190B9FED960B53EC9D
:10A5B000102BF5F75DFE41EC180BF5F7FFFF044695
:10A5C0009A480068F5F7EDFF41EC190B9FED8D0BF4
:10A5D00053EC102BF5F7EDFE41EC180BF5F7EEFF01
:10A5E0000546FF20924900904888002322462946CC
:10A5F000F6F78EFF8F4908708F480068F5F7D1FF96
:10A6000041EC190B9FED730B53EC102BF5F730FE5B
:10A6100041EC180BF5F7D2FF054687480068F5F7BF
:10A62000C0FF41EC190B9FED690B53EC102BF5F7B4
:10A63000C0FE41EC180BF5F7C1FF0446FF207F492F
:10A640000090488800232A462146F6F761FF7C499E
:10A6500008707C480068F5F7A4FF41EC190B9FEDEA
:10A66000640B53EC102BF5F703FE41EC180BF5F7D8
:10A67000A5FF044673480068F5F793FF41EC190BFA
:10A680009FED590B53EC102BF5F793FE41EC180B93
:10A69000F5F794FF054600206B4900904888FF239A
:10A6A00022462946F6F734FF684908706848006872
:10A6B000F5F777FF41EC190B9FED520B53EC102B84
:10A6C000F5F7D6FD41EC180BF5F778FF0446604826
:10A6D0000068F5F766FF41EC190B9FED4A0B53EC50
:10A6E000102BF5F766FE41EC180BF5F767FF0546F2
:10A6F0000020584900904888FF2322462946F6F753
:10A7000007FF5549087055480068F5F74AFF41ECC6
:10A71000190B9FED2E0B53EC102BF5F7A9FD41EC17
:10A72000180BF5F74BFF04464C480068F5F739FF66
:10A7300041EC190B9FED270B53EC102BF5F739FE6D
:10A7400041EC180BF5F73AFF05460020444900900C
:10A750004888FF2322462946F6F7DAFE4149087069
:10A7600041480068F5F71DFF41EC190B9FED1E0BEA
:10A7700053EC102BF5F77CFD41EC180BF5F71EFFA1
:10A78000044639480068F5F70CFF41EC190B9FEDC2
:10A79000180B53EC102BF5F70CFE41EC180BF5F7EA
:10A7A0000DFF0546FF2031490090488800232246CE
:10A7B00029465DE0BC050020E800002018010020CB
:10A7C0004801002078010020100000209A999999F2
:10A7D0009999894014455114455184404000002006
:10A7E0005B02002014000020567E429C959F904002
:10A7F0004C67319DC57486404C0000205C020020EF
:10A8000018000020165EE1155EE17540580000203A
:10A810005D0200201C000020640000205E02002079
:10A8200020000020700000205F0200202400002093
:10A830007C0000206002002028000020880000200A
:10A84000610200202C000020940000206202002001
:10A8500030000020A000002063020020340000200F
:10A86000AC0000206402002038000020B800002066
:10A87000F6F74EFE1A4908701A480068F5F791FE7F
:10A8800041EC190B1FED210B53EC102BF5F7F0FCED
:10A8900041EC180BF5F792FE044612480068F5F7F4
:10A8A00080FE41EC190B1FED290B53EC102BF5F733
:10A8B00080FD41EC180BF5F781FE0546FF200A49A3
:10A8C00000904888002322462946F6F721FE0749D2
:10A8D000087001200649087001B0BDEC048B30BD42
:10A8E000650200203C000020C40000206602002019
:10A8F000BC0500207047000010B52DED088BC7483F
:10A900000078012835D19FEDC60AC64880ED070AB8
:10A910009FEDC30AC44880ED000AC44890ED190AAF
:10A92000C14880ED010AF6F7DFFCBE4890ED060A4B
:10A93000BD48D0ED0B0A30EE200ABA4880ED060A79
:10A940009FEDB70ABA4880ED000AB84890ED180AA2
:10A95000B74880ED010AF6F7C7FCB24890ED050A4A
:10A96000B348D0ED0B0A30EE200AAE4880ED050A60
:10A9700051E1AA480078022837D19FEDA90AA948D9
:10A9800080ED070AA94890ED190AA74880ED000A52
:10A99000A44890ED060AA44880ED010AF6F7A4FC4D
:10A9A000A04890ED060AA048D0ED0B0A30EE200A30
:10A9B0009C4880ED060A9D4890ED180A9C4880ED61
:10A9C000000A984890ED050A994880ED010AF6F7CB
:10A9D0008BFC944890ED050A9548D0ED0B0A30EEBB
:10A9E000200A904880ED050A15E192480078E8B900
:10A9F00091480078D0B991480078B8B9904890ED66
:10AA0000000AB5EEC00AF1EE10FA0FD18D4890EDB4
:10AA1000000AB5EEC00AF1EE10FA07D18A4890EDAF
:10AA2000000AB5EEC00AF1EE10FA7DD08648D0EDEE
:10AA3000000A864890ED001A80EE810ADFED840A54
:10AA400020EE200A10EE104A2046F5F7EFFD41EC0B
:10AA50001B0BB0EE4B0AF0EE6B0AFDF799FFB0EE60
:10AA6000409AF0EE609A6F4890ED0E0A10EE101AC0
:10AA70000846F5F7DBFD41EC1A0B53EC192BF5F703
:10AA80009EFC41EC180BF5F715FE6649C8616C4851
:10AA9000D0ED000A6F4890ED001A80EE810ADFEDDC
:10AAA0006C0A20EE200A10EE104A2046F5F7BEFD93
:10AAB00041EC1B0BB0EE4B0AF0EE6B0AFDF768FFA2
:10AAC000B0EE409AF0EE609A564890ED0D0A10EE06
:10AAD000101A0846F5F7AAFD41EC1A0B53EC192B96
:10AAE000F5F76DFC41EC180BF5F7E4FD4D49886175
:10AAF0005448D0ED000A584890ED001A80EE810AC3
:10AB0000DFED530A20EE200A10EE104A2046F5F73A
:10AB10008DFD41EC1B0BB0EE4B0AF0EE6B0AFDF71E
:10AB200037FFB0EE409A00E016E0F0EE609A3D4844
:10AB300090ED0C0A10EE101A0846F5F777FD41EC7F
:10AB40001A0B53EC192BF5F73AFC41EC180BF5F7FF
:10AB5000B1FD344948615EE04048007828B940487A
:10AB6000007810B93F480078F0B33F48007800EE15
:10AB7000100AB8EE400A3D4880ED010AF6F7B4FB32
:10AB80003A48D0ED0B0A3848007800EE100AB8EECB
:10AB9000400A30EE800ABCEEC00A10EE100A3249BC
:10ABA00008703348007800EE100AB8EE400A3148C9
:10ABB00080ED010AF6F798FB2E48D0ED0B0A2C48E1
:10ABC000007800EE100AB8EE400A30EE800ABCEEC3
:10ABD000C00A10EE100A264908702748007800EED7
:10ABE000100AB8EE400A00E015E0244880ED010AA2
:10ABF000F6F77AFB2148D0ED0B0A1F48007800EEEB
:10AC0000100AB8EE400A30EE800ABCEEC00A10EE20
:10AC1000100A19490870BDEC088B10BD6C030020A8
:10AC200000000000BC010020B8030020640B0020DD
:10AC30000004002065030020660300206703002055
:10AC4000A4030020A8030020A00300207C03002010
:10AC5000C3F5C8408003002084030020690300205E
:10AC60006A030020680300202102002090040020D5
:10AC700020020020D804002022020020200500200D
:10AC80002DE9F04F87B005460C46914601208DF81E
:10AC9000100000208DF81100FE4A1268517DFD4A17
:10ACA0005268107804AB022205F0D3F920B14FF0BE
:10ACB000FF3007B0BDE8F08FC820FEF713FC00207E
:10ACC0008DF81000F34A1268517CF24A52681078ED
:10ACD00004AB012205F0BDF910B14FF0FF30E8E7F9
:10ACE000EC4A12685179EB4A5268107804AB0122A1
:10ACF00005F0AFF910B14FF0FF30DAE7E54A12681E
:10AD0000517DE44A5268107804AB012205F0A1F9A4
:10AD100010B14FF0FF30CCE7DE4A1268917EDD4A79
:10AD20005268107804AB012205F093F910B14FF08E
:10AD3000FF30BEE7D74A12681179D64A52681078B8
:10AD400004AB012205F085F910B14FF0FF30B0E7F8
:10AD50000C208DF81000CF4A12681179CD4A526844
:10AD6000107804AB012205F074F910B14FF0FF30F8
:10AD70009FE70F20FEF7B6FBC648406B407A8DF880
:10AD80001000C44A12689178C24A5268107804AB25
:10AD9000012205F05EF910B14FF0FF3089E7BD48A0
:10ADA000406B007A8DF81000BA4A12685178B94A9F
:10ADB0005268107804AB012205F04BF910B14FF046
:10ADC000FF3076E7B9F1000F07D0B248406B807AC8
:10ADD00040F0E0008DF8100004E0AE48406B807A4F
:10ADE0008DF81000AB4A12689179AA4A526810781F
:10ADF00004AB012205F02DF910B14FF0FF3058E7F8
:10AE0000B9F1000F07D0A348406BC07A40F0E000D2
:10AE10008DF8100003E0A048C07A8DF810009D4A1C
:10AE20001268D1799B4A5268107804AB012205F070
:10AE300010F910B14FF0FF303BE7B9F1000F02D02D
:10AE4000C820FEF74FFB40208DF81000914A126891
:10AE50001179904A5268107804AB012205F0F9F894
:10AE600010B14FF0FF3024E778208DF81000894AA8
:10AE700012685179874A5268107804AB012205F0B4
:10AE8000E8F810B14FF0FF3013E783498889FEF7E7
:10AE900029FB00208DF810007E4A126851797D4A06
:10AEA0005268107804AB012205F0D3F810B14FF0CE
:10AEB000FF30FEE6774A1268117B764A52681078B6
:10AEC00004AB022205F0B2F810B14FF0FF30F0E60B
:10AED0009DF811009DF8101040EA012B0C209BFBFF
:10AEE000F0F0C6B20020A86068602860A0606060D2
:10AEF0002060824665E0674A1268517B654A526865
:10AF0000107804AB0C2205F091F810B14FF0FF302F
:10AF1000CFE69DF811009DF8101040EA012000B224
:10AF2000ADF808009DF813009DF8121040EA0120CA
:10AF300000B2ADF80A009DF815009DF8141040EA23
:10AF4000012000B2ADF80C00BDF9081020680844DB
:10AF50002060BDF90A10606808446060BDF90C10FB
:10AF6000A0680844A0609DF817009DF8161040EAFC
:10AF7000012000B2ADF800009DF819009DF81810EE
:10AF800040EA012000B2ADF802009DF81B009DF8D8
:10AF90001A1040EA012000B2ADF80400BDF900101B
:10AFA000286808442860BDF9021068680844686091
:10AFB000BDF90410A8680844A8600AF1010000F077
:10AFC000FF0AB24597DB3448D0F800C02868C117A3
:10AFD000090441EA10410704624600233846F5F7A8
:10AFE000F7F832460023CDE90201F5F7F1F82860C1
:10AFF0002948D0F800C06868C117090441EA104127
:10B000000704624600233846F5F7E2F8324600238B
:10B01000CDE90201F5F7DCF868601F48D0F800C000
:10B02000A868C117090441EA1041070462460023D9
:10B030003846F5F7CDF832460023CDE90201F5F7A1
:10B04000C7F8A8601448D0F804C02168C8170004E5
:10B0500040EA11480F046246002338464146F5F79E
:10B06000B7F832460023CDE90201F5F7B1F82060C8
:10B070000948D0F804C06068C117090441EA1041CA
:10B080000704624600233846F5F7A2F8324600234B
:10B0900004E00000980600201C430108CDE90201ED
:10B0A000F5F796F860601148D0F804C0A068C117A1
:10B0B000090441EA10410704624600233846F5F7C7
:10B0C00087F832460023CDE90201F5F781F8A06048
:10B0D000A068002804DDA068A0F58030A06003E02F
:10B0E000A06800F58030A0600020E2E51C43010864
:10B0F00010B52DED0C8BFA48007800287ED1F94868
:10B100000068F5F793FA41EC1B0B9FEDF70B53EC3E
:10B11000102BF5F754F941EC190BF2480068F5F7DC
:10B1200085FA41EC1D0B9FEDF20B53EC102BF5F75C
:10B1300046F941EC1B0BF0480068F5F777FA41EC53
:10B140001C0B53EC1B2BF5F734F941EC1A0B53ECA9
:10B15000192BF5F78DF841EC180BF5F7ABFAE74929
:10B160004861E74890ED000ADE48D0ED000A30EE75
:10B17000200A084680ED060ADA480068F5F756FA14
:10B1800041EC1B0B9FEDD80B53EC102BF5F717F987
:10B1900041EC190BD3480068F5F748FA41EC1D0B58
:10B1A0009FEDD30B53EC102BF5F709F941EC1B0B7A
:10B1B000D1480068F5F73AFA41EC1C0B53EC1B2B15
:10B1C000F5F756F841EC1A0B53EC192BF5F750F83C
:10B1D00041EC180BF5F76EFACA494861C84890ED82
:10B1E000000AC048D0ED000A30EE200A084680ED83
:10B1F000060ABC480068F5F719FA00E076E041EC71
:10B200001B0B9FEDB90B53EC102BF5F7D8F841EC65
:10B21000190BB4480068F5F709FA41EC1D0B9FEDD6
:10B22000B40B53EC102BF5F7CAF841EC1B0BB248EA
:10B230000068F5F7FBF941EC1C0B53EC1B2BF5F701
:10B2400017F841EC1A0B53EC192BF5F711F841ECF8
:10B25000180BF5F72FFAAC494861A94890ED000AA0
:10B26000A048D0ED000A30EE600A084680ED060ADC
:10B270009C480068F5F7DAF941EC1B0B9FED9A0B3F
:10B2800053EC102BF5F79BF841EC190B954800682F
:10B29000F5F7CCF941EC1D0B9FED950B53EC102B02
:10B2A000F5F78DF841EC1B0B93480068F5F7BEF9F4
:10B2B00041EC1C0B53EC1B2BF5F77BF841EC1A0B04
:10B2C00053EC192BF4F7D4FF41EC180BF5F7F2F916
:10B2D0008E4948618A4890ED000A8248D0ED000A04
:10B2E00030EE600A084680ED060ABAE0884890ED24
:10B2F0000E0A10EE101A0846F5F798F941EC1A0BF1
:10B3000084480068F5F792F941EC1C0B9FED820B25
:10B3100053EC102BF5F753F841EC1B0B53EC1A2BA5
:10B32000F5F74DF841EC190BF5F7C4F908EE100AE2
:10B3300018EE100AF5F77AF941EC1C0B9FED6C0B37
:10B3400053EC102BF5F73BF841EC1A0B6A480068F8
:10B35000F5F76CF941EC1B0B53EC1A2BF5F729F8B8
:10B3600041EC190BF5F7A6F964494861644890ED82
:10B37000000A30EE080A084680ED060A18EE100AA8
:10B38000F5F754F941EC1C0B9FED590B53EC102BC6
:10B39000F5F715F841EC1A0B57480068F5F746F930
:10B3A00041EC1B0B53EC1A2BF4F762FF41EC190B29
:10B3B000F5F780F953494861514890ED000A30EEA5
:10B3C000080A084680ED060A18EE100AF5F72EF96D
:10B3D00041EC1C0B9FED460B53EC102BF4F7EFFFE9
:10B3E00041EC1A0B44480068F5F720F941EC1B0BBF
:10B3F00053EC1A2BF4F73CFF41EC190BF5F75AF913
:10B40000414948613E4890ED000A30EE480A08463E
:10B4100080ED060A18EE100AF5F708F941EC1C0B4E
:10B420009FED330B53EC102BF4F7C9FF41EC1B0BD2
:10B4300031480068F5F7FAF841EC190B53EC1B2B77
:10B44000F4F7B7FF41EC1A0BF5F734F92F494861CF
:10B450002B4890ED000A30EE480A084680ED060AB7
:10B4600000BF2F480078002838D101202C490870EF
:10B470002C48007898BB00202B4908702B4890ED91
:10B48000000AF1EE000A80EE201A1C4880ED031A33
:10B49000264890ED000AF1EE000A80EE201A1A48C4
:10B4A00080ED031A214890ED000AF0EE080A20EE24
:10B4B000200AF1EE000A80EE201A124880ED031AED
:10B4C0001A4890ED000AF0EE080A20EE200AF1EE8C
:10B4D000000A80EE201A0D4880ED031A5CE027E098
:10B4E000DD050020B80200209A9999999999B93FF1
:10B4F000DF4F8D976E12E73FB0020020E80000207A
:10B50000B40200201801002048010020780100202A
:10B51000BC010020BC020020666666666666F63FD7
:10B520006403002000060020C005002078030020EE
:10B530004D48007801282FD19FED4C0A4C4880EDF2
:10B54000000A9FED4C0A4C4880ED030A484890EDF4
:10B55000000AF0EE000A20EE200AF1EE000A80EE6A
:10B56000201A464880ED031A414890ED000AF0EE9B
:10B57000080A20EE200AF1EE000A80EE201A404868
:10B5800080ED031A3A4890ED000AF1EE000A80EED1
:10B59000201A3C4880ED031A374890ED030AD0ED9D
:10B5A000040A30EE200A80ED030A344890ED030AC5
:10B5B000D0ED040A30EE200A80ED030A304890ED09
:10B5C000030AD0ED040A30EE200A80ED030A2D486C
:10B5D00090ED030AD0ED040A30EE200A80ED030A54
:10B5E000254890ED030A2248D0ED000AB4EEE00AA7
:10B5F000F1EE10FA04DB9FED1F0A1F4880ED030AED
:10B600001E4890ED030A1A48D0ED000AB4EEE00A95
:10B61000F1EE10FA04DB9FED170A184880ED030ADB
:10B62000174890ED030A1248D0ED000AB4EEE00A84
:10B63000F1EE10FA04DB9FED0F0A114880ED030ACA
:10B64000104890ED030A0A48D0ED000AB4EEE00A73
:10B65000F1EE10FA04DB9FED070A0A4880ED030AB9
:10B66000BDEC0C8B10BD00000006002000800945D9
:10B670007803002000000000E800002018010020EE
:10B68000480100207801002030B52DED108B87B0E7
:10B69000044694ED000AF0EE409A94ED010AB0EEF3
:10B6A00040AA94ED020AF0EE408AD44890ED000AD8
:10B6B000F4EEC08AF1EE10FA03D290ED000AF0EE3B
:10B6C000408A9FEDCF0A30EE4A0A20EE000A08EECB
:10B6D000A80A10EE101A0846F4F7A8FF41EC1C0B5C
:10B6E000B0EE4C0AF0EE6C0AFDF7B6F9B0EE40BAD7
:10B6F000F0EE60BA51EC1B0BF4F7DCFF08EE100A19
:10B700009FEDBF0A30EE4A0AC0EE080A10EE905ACA
:10B710002846F4F78BFF41EC1B0BB0EE4B0AF0EE22
:10B720006B0AFBF789FE8DED020B9FEDB60AC0EEAA
:10B73000080A10EE905A2846F4F778FF41EC1B0BEC
:10B74000B0EE4B0AF0EE6B0AFBF7CAFCB0EE40FA23
:10B75000F0EE60FA9DED020B53EC102B51EC1F0B39
:10B76000F4F727FE9FEDA80B53EC102BCDE9040155
:10B770009DED040B51EC100BF4F71BFE41EC1C0B80
:10B7800081F0004141EC1E0BF4F794FF09EE100A22
:10B7900019EE100AF4F74AFF41EC1E0BB0EE4E0A08
:10B7A000F0EE6E0AFCF75CFAB0EE40BAF0EE60BA6A
:10B7B00019EE100AF4F73AFFCDE900019DED000BF8
:10B7C000FDF7E6F88DED020B9FED910B53EC102B7E
:10B7D0009DED020B51EC100BF4F7F1FDCDE90401E6
:10B7E00018EE900AF4F722FF41EC1E0B9DED040BBE
:10B7F00053EC102BF4F73CFD41EC1F0B53EC1B2BCF
:10B80000F4F74FFE41EC1C0BF4F754FF08EE900ADE
:10B810009FED810A38EE800A20EE000A09EEA90A9F
:10B8200010EE101A0846F4F701FF41EC1C0BB0EEC5
:10B830004C0AF0EE6C0AFDF70FF9B0EE40BAF0EEEC
:10B8400060BA51EC1B0BF4F735FF08EE100A89EED5
:10B85000880A10EE105A2846F4F7E8FE41EC1B0B5C
:10B86000B0EE4B0AF0EE6B0AFBF7E6FDB0EE40EAF5
:10B87000F0EE60EA9FED690A08EE080ADFED680A5B
:10B8800030EE600ADFED670A68EE200A80EE201ACB
:10B8900011EE105A2846F4F7C9FE41EC1C0BB0EE2D
:10B8A0004C0AF0EE6C0AFBF71BFCB0EE40BAF0EE6F
:10B8B00060BA51EC1B0B81F0004141EC1F0B53ECC3
:10B8C0001E2BF4F7D5FCCDE904019DED040B51ECE2
:10B8D000100BF4F7EFFE0DEE100A9FED530A08EE81
:10B8E000480ADFED520A80EE201A11EE105A28465F
:10B8F000F4F79CFE41EC1C0BB0EE4C0AF0EE6C0A27
:10B90000FBF7EEFBB0EE40EAF0EE60EA9FED3E0B97
:10B9100053EC102B51EC1E0BF4F74EFD41EC1B0BBE
:10B92000F4F7C8FE0AEE900A9FED410A2AEE800A5B
:10B93000DFED400A20EE200ADFED3F0A80EE201AFC
:10B94000BDEEC10A10EE100A3C49098808443C4982
:10B9500048809FED370A2DEE000ADFED360A20EE13
:10B96000200ADFED350A80EE201ABDEEC10A10EE86
:10B97000100A34490988081A334948809FED2C0A77
:10B9800029EE000ADFED2B0A20EE200ADFED2A0A5D
:10B9900080EE201ABDEEC10A10EE100A2B4909886C
:10B9A00008442B4948802548008800F5806082B211
:10B9B00022480088A0F5806081B22148F7F760FA3C
:10B9C0002048008800F5806082B21E480088A0F5FB
:10B9D000806081B21C48F7F753FA1C48008800F2D7
:10B9E000AA2082B219480088A0F2AA2081B2184881
:10B9F000F7F746FA07B0BDEC108B30BDC405002048
:10BA0000CDCCFCC1CDCCFC4100000060FB21F93F56
:10BA1000000000A099993F4000000000000061452F
:10BA200000C8AF450000F0420024104600A00C46BC
:10BA30000000804500003443265F8D441000002044
:10BA400040000020140000204C00002018000020BE
:10BA50005800002030B52DED108B87B0044694EDD2
:10BA6000000AF0EE409A94ED010AB0EE40AA94ED7F
:10BA7000020AF0EE408AD44890ED000AF4EEC08A43
:10BA8000F1EE10FA03D290ED000AF0EE408A9FED3D
:10BA9000CF0A3AEE400A20EE000A08EEA80A10EE9D
:10BAA000101A0846F4F7C2FD41EC1C0BB0EE4C0A2C
:10BAB000F0EE6C0AFCF7D0FFB0EE40BAF0EE60BAE0
:10BAC00051EC1B0BF4F7F6FD08EE100A9FEDBF0AD0
:10BAD0003AEE400AC0EE080A10EE905A2846F4F7F3
:10BAE000A5FD41EC1B0BB0EE4B0AF0EE6B0AFBF729
:10BAF000A3FC8DED020B9FEDB50AC0EE080A10EE17
:10BB0000905A2846F4F792FD41EC1B0BB0EE4B0A1D
:10BB1000F0EE6B0AFBF7E4FAB0EE40FAF0EE60FAF2
:10BB20009DED020B53EC102B51EC1F0BF4F741FC75
:10BB30009FEDA70B53EC102BCDE904019DED040BF9
:10BB400051EC100BF4F735FC41EC1C0B81F000417B
:10BB500041EC1E0BF4F7AEFD09EE100A19EE100AC7
:10BB6000F4F764FD41EC1E0BB0EE4E0AF0EE6E0AE7
:10BB7000FCF776F8B0EE40BAF0EE60BA19EE100AB3
:10BB8000F4F754FDCDE900019DED000BFCF700FF3B
:10BB90008DED020B9FED900B53EC102B9DED020BE6
:10BBA00051EC100BF4F70BFCCDE9040118EE900AF0
:10BBB000F4F73CFD41EC1E0B9DED040B53EC102BF8
:10BBC000F4F756FB41EC1F0B53EC1B2BF4F769FC0D
:10BBD00041EC1C0BF4F76EFD08EE900A9FED800A15
:10BBE00038EE800A20EE000A09EEA90A10EE101ABB
:10BBF0000846F4F71BFD41EC1C0BB0EE4C0AF0EECE
:10BC00006C0AFCF729FFB0EE40BAF0EE60BA51ECD6
:10BC10001B0BF4F74FFD08EE100A89EE880A10EEB0
:10BC2000105A2846F4F702FD41EC1B0BB0EE4B0A0C
:10BC3000F0EE6B0AFBF700FCB0EE40EAF0EE60EAD3
:10BC40009FED680A08EE080ADFED670A30EE600A29
:10BC5000DFED660A68EE200A80EE201A11EE105A17
:10BC60002846F4F7E3FC41EC1C0BB0EE4C0AF0EE76
:10BC70006C0AFBF735FAB0EE40BAF0EE60BA51EC60
:10BC80001B0B81F0004141EC1F0B53EC1E2BF4F712
:10BC9000EFFACDE904019DED040B51EC100BF4F724
:10BCA00009FD0DEE100A9FED520A08EE480ADFED7D
:10BCB000510A80EE201A11EE105A2846F4F7B6FC0D
:10BCC00041EC1C0BB0EE4C0AF0EE6C0AFBF708FAE4
:10BCD000B0EE40EAF0EE60EA9FED3D0B53EC102B26
:10BCE00051EC1E0BF4F768FB41EC1B0BF4F7E2FC84
:10BCF0000AEE900A9FED400A2AEE800ADFED3F0A25
:10BD000020EE200ADFED3E0A80EE201ABDEEC10AC9
:10BD100010EE100A3B490988081A3B4948809FEDFC
:10BD2000360A2DEE000ADFED350A20EE200ADFED9F
:10BD3000340A80EE201ABDEEC10A10EE100A334913
:10BD400009880844324948809FED2B0A29EE000AF1
:10BD5000DFED2A0A20EE200ADFED290A80EE201A04
:10BD6000BDEEC10A10EE100A2A490988081A2A49AC
:10BD700048802448008800F5806082B2214800880D
:10BD8000A0F5806081B22048F7F77AF81F48008854
:10BD900000F5806082B21D480088A0F5806081B205
:10BDA0001B48F7F76DF81B48008800F2AA2082B202
:10BDB00018480088A0F2AA2081B21748F7F760F867
:10BDC00007B0BDEC108B30BDC4050020CDCCFC41CC
:10BDD00000000060FB21F93F000000A099993F405E
:10BDE000000000000000614500C8AF450000F042BF
:10BDF0000024104600A00C4600008045000034439B
:10BE0000265F8D441C0000206400002020000020DC
:10BE100070000020240000207C00002030B52DEDB3
:10BE2000108B87B0044694ED000AF0EE409A94ED32
:10BE3000010AB0EE40AA94ED020AF0EE408AD4481E
:10BE400090ED000AF4EEC08AF1EE10FA03D290ED04
:10BE5000000AF0EE408A9FEDCF0A3AEE400A20EE4B
:10BE6000000A08EEA80A10EE101A0846F4F7DEFBE6
:10BE700041EC1C0BB0EE4C0AF0EE6C0AFCF7ECFD4A
:10BE8000B0EE40BAF0EE60BA51EC1B0BF4F712FCC6
:10BE900008EE100A9FEDBF0A3AEE400AC0EE080A0B
:10BEA00010EE905A2846F4F7C1FB41EC1B0BB0EEA4
:10BEB0004B0AF0EE6B0AFBF7BFFA8DED020B9FED1C
:10BEC000B50AC0EE080A10EE905A2846F4F7AEFB09
:10BED00041EC1B0BB0EE4B0AF0EE6B0AFBF700F9DE
:10BEE000B0EE40FAF0EE60FA9DED020B53EC102B31
:10BEF00051EC1F0BF4F75DFA9FEDA70B53EC102BE1
:10BF0000CDE904019DED040B51EC100BF4F751FA4F
:10BF100041EC1C0B81F0004141EC1E0BF4F7CAFB15
:10BF200009EE100A19EE100AF4F780FB41EC1E0B23
:10BF3000B0EE4E0AF0EE6E0AFBF792FEB0EE40BA9B
:10BF4000F0EE60BA19EE100AF4F770FBCDE90001CB
:10BF50009DED000BFCF71CFD8DED020B9FED900B92
:10BF600053EC102B9DED020B51EC100BF4F727FA5C
:10BF7000CDE9040118EE900AF4F758FB41EC1E0BD2
:10BF80009DED040B53EC102BF4F772F941EC1F0BF1
:10BF900053EC1B2BF4F785FA41EC1C0BF4F78AFBEE
:10BFA00008EE900A9FED800A38EE800A20EE000A23
:10BFB00009EEA90A10EE101A0846F4F737FB41EC17
:10BFC0001C0BB0EE4C0AF0EE6C0AFCF745FDB0EE2F
:10BFD00040BAF0EE60BA51EC1B0BF4F76BFB08EEC5
:10BFE000100A89EE880A10EE105A2846F4F71EFB54
:10BFF00041EC1B0BB0EE4B0AF0EE6B0AFBF71CFAA0
:10C00000B0EE40EAF0EE60EA9FED680A08EE080A3A
:10C01000DFED670A30EE600ADFED660A68EE200A9F
:10C0200080EE201A11EE105A2846F4F7FFFA41EC80
:10C030001C0BB0EE4C0AF0EE6C0AFBF751F8B0EEB8
:10C0400040BAF0EE60BA51EC1B0B81F0004141ECBC
:10C050001F0B53EC1E2BF4F70BF9CDE904019DEDFA
:10C06000040B51EC100BF4F725FB0DEE100A9FEDBD
:10C07000520A08EE480ADFED510A80EE201A11EE4E
:10C08000105A2846F4F7D2FA41EC1C0BB0EE4C0AD9
:10C09000F0EE6C0AFBF724F8B0EE40EAF0EE60EA4E
:10C0A0009FED3D0B53EC102B51EC1E0BF4F784F974
:10C0B00041EC1B0BF4F7FEFA0AEE900A9FED400AE2
:10C0C0002AEE800ADFED3F0A20EE200ADFED3E0A6D
:10C0D00080EE201ABDEEC10A10EE100A3B49098815
:10C0E000081A3B4948809FED360A2DEE000ADFED25
:10C0F000350A20EE200ADFED340A80EE201ABDEE6C
:10C10000C10A10EE100A33490988084432494880B0
:10C110009FED2B0A29EE000ADFED2A0A20EE200A05
:10C12000DFED290A80EE201ABDEEC10A10EE100ADA
:10C130002A49098808442A4948802448008800F58B
:10C14000806082B221480088A0F5806081B22048DA
:10C15000F6F796FE1F48008800F5806082B21D4801
:10C160000088A0F5806081B21B48F6F789FE1B4865
:10C17000008800F2AA2082B218480088A0F2AA2003
:10C1800081B21748F6F77CFE07B0BDEC108B30BDCE
:10C19000C4050020CDCCFC4100000060FB21F93F2C
:10C1A000000000A099993F40000000000000614598
:10C1B00000C8AF450000F0420024104600A00C4625
:10C1C0000000804500003443265F8D442800002095
:10C1D000880000202C000020940000203000002067
:10C1E000A000002030B52DED108B87B0044694EDF3
:10C1F000000AF0EE409A94ED010AB0EE40AA94EDE8
:10C20000020AF0EE408AD44890ED000AF4EEC08AAB
:10C21000F1EE10FA03D290ED000AF0EE408A9FEDA5
:10C22000CF0A30EE4A0A20EE000A08EEA80A10EE05
:10C23000101A0846F4F7FAF941EC1C0BB0EE4C0A60
:10C24000F0EE6C0AFCF708FCB0EE40BAF0EE60BA13
:10C2500051EC1B0BF4F72EFA08EE100A9FEDBF0A03
:10C2600030EE4A0AC0EE080A10EE905A2846F4F75B
:10C27000DDF941EC1B0BB0EE4B0AF0EE6B0AFBF75D
:10C28000DBF88DED020B9FEDB60AC0EE080A10EE4A
:10C29000905A2846F4F7CAF941EC1B0BB0EE4B0A52
:10C2A000F0EE6B0AFAF71CFFB0EE40FAF0EE60FA1F
:10C2B0009DED020B53EC102B51EC1F0BF4F779F8AA
:10C2C0009FEDA80B53EC102BCDE904019DED040B61
:10C2D00051EC100BF4F76DF841EC1C0B81F00041B0
:10C2E00041EC1E0BF4F7E6F909EE100A19EE100AFC
:10C2F000F4F79CF941EC1E0BB0EE4E0AF0EE6E0A1C
:10C30000FBF7AEFCB0EE40BAF0EE60BA19EE100AE0
:10C31000F4F78CF9CDE900019DED000BFCF738FB3B
:10C320008DED020B9FED910B53EC102B9DED020B4D
:10C3300051EC100BF4F743F8CDE9040118EE900A24
:10C34000F4F774F941EC1E0B9DED040B53EC102B2C
:10C35000F3F78EFF41EC1F0B53EC1B2BF4F7A1F806
:10C3600041EC1C0BF4F7A6F908EE900A9FED810A48
:10C3700038EE800A20EE000A09EEA90A10EE101A23
:10C380000846F4F753F941EC1C0BB0EE4C0AF0EE02
:10C390006C0AFCF761FBB0EE40BAF0EE60BA51EC0B
:10C3A0001B0BF4F787F908EE100A89EE880A10EEE5
:10C3B000105A2846F4F73AF941EC1B0BB0EE4B0A41
:10C3C000F0EE6B0AFBF738F8B0EE40EAF0EE60EA08
:10C3D0009FED690A08EE080ADFED680A30EE600A90
:10C3E000DFED670A68EE200A80EE201A11EE105A7F
:10C3F0002846F4F71BF941EC1C0BB0EE4C0AF0EEAA
:10C400006C0AFAF76DFEB0EE40BAF0EE60BA51EC8D
:10C410001B0B81F0004141EC1F0B53EC1E2BF3F77B
:10C4200027FFCDE904019DED040B51EC100BF4F74F
:10C4300041F90DEE100A9FED530A08EE480ADFEDB0
:10C44000520A80EE201A11EE105A2846F4F7EEF840
:10C4500041EC1C0BB0EE4C0AF0EE6C0AFAF740FE11
:10C46000B0EE40EAF0EE60EA9FED3E0B53EC102B8D
:10C4700051EC1E0BF3F7A0FF41EC1B0BF4F71AF97C
:10C480000AEE900A9FED410A2AEE800ADFED400A8B
:10C4900020EE200ADFED3F0A80EE201ABDEEC10A31
:10C4A00010EE100A3C49098808443C4948809FED39
:10C4B000370A2DEE000ADFED360A20EE200ADFED06
:10C4C000350A80EE201ABDEEC10A10EE100A34497A
:10C4D0000988081A334948809FED2C0A29EE000A82
:10C4E000DFED2B0A20EE200ADFED2A0A80EE201A6B
:10C4F000BDEEC10A10EE100A2B490988081A2B4913
:10C5000048802548008800F5806082B22248008873
:10C51000A0F5806081B22148F6F7B2FC204800887F
:10C5200000F5806082B21E480088A0F5806081B26C
:10C530001C48F6F7A5FC1C48008800F2AA2082B22D
:10C5400019480088A0F2AA2081B21848F6F798FC92
:10C5500007B0BDEC108B30BDC4050020CDCCFCC1B4
:10C56000CDCCFC4100000060FB21F93F000000A0A1
:10C5700099993F40000000000000614500C8AF45A8
:10C580000000F0420024104600A00C460000804548
:10C5900000003443265F8D4434000020AC000020AE
:10C5A00038000020B80000203C000020C40000201B
:10C5B0009248007800287DD1B3EE040A904880EDBF
:10C5C0000C0A9048007850B18F4890ED000A8F48CF
:10C5D000D0ED000A30EE200A8B4880ED000A8C482E
:10C5E000007850B18B4890ED000A8B48D0ED000ADE
:10C5F00030EE200A874880ED000A8848007850B164
:10C60000874890ED000A8748D0ED000A30EE200AF6
:10C61000834880ED000A7C4890ED000A8248D0ED06
:10C62000000AB4EEE00AF1EE10FA04DB9FED7F0A97
:10C63000754880ED000A774890ED000A7C48D0EDFF
:10C64000000AB4EEE00AF1EE10FA04DB9FED770A7F
:10C65000704880ED000A724890ED000A7548D0EDF0
:10C66000000AB4EEE00AF1EE10FA04DB9FED6F0A67
:10C670006B4880ED000A7048007840B16F4890ED3B
:10C68000000AF3EE040A30EE200A80ED000A6C483E
:10C69000007840B16B4890ED000AF3EE040A30EEEA
:10C6A000200A80ED000A6848007850B1674890ED94
:10C6B000000A00E09CE0F3EE040A30EE200A80ED70
:10C6C000000A5E4890ED000A6148D0ED000AB4EE21
:10C6D000E00AF1EE10FA04DB9FED540A574880EDB2
:10C6E000000A584890ED000A5A48D0ED000AB4EE0E
:10C6F000E00AF1EE10FA04DB9FED4C0A514880EDA0
:10C70000000A524890ED000A5348D0ED000AB4EEFA
:10C71000E00AF1EE10FA04DB9FED440A4B4880ED8D
:10C72000000A4E48007810B93948007808B1012055
:10C7300000E00020B8B9374890ED000AB5EEC00A15
:10C74000F1EE10FA0AD090ED000A3348D0ED000A5D
:10C7500030EE200A2F4880ED000A04E09FED330AF6
:10C76000274880ED060A3E48007810B92B4800782B
:10C7700008B1012000E00020B8B9294890ED000A76
:10C78000B5EEC00AF1EE10FA0AD090ED000A254885
:10C79000D0ED000A30EE200A214880ED000A04E0C6
:10C7A0009FED220A164880ED050A2E48007810B940
:10C7B0001448007808B1012000E00020E8B91248D0
:10C7C00090ED000AB5EEC00AF1EE10FA0AD090ED35
:10C7D000000A0E48D0ED000A30EE200A0A4880ED2B
:10C7E000000A0AE09FED110A054880ED070A04E0FF
:10C7F000B3EE0E0A024880ED0C0A70476C0300206D
:10C80000BC01002065030020A0030020AC03002031
:10C8100066030020A4030020B0030020670300206B
:10C82000A8030020B40300207C03002000000000C7
:10C8300080030020840300202702002094030020AE
:10C840002802002098030020290200209C030020D9
:10C85000880300208C03002090030020690300203F
:10C860006A0300206803002000B589B0FE48007804
:10C8700000287CD19FEDFD0AFD4880ED000A9FED68
:10C88000FB0AFC4880ED000A9FEDF80AFA4880EDAB
:10C89000000A0020F9490870F9490870F949087040
:10C8A000F9490860F948007838B90121FE20F5F708
:10C8B000BFF95020F5490870DBE0F4480078012802
:10C8C00007D10021FE20F5F7B3F95020EF49087099
:10C8D000CFE0EE480078112815D100210B20F5F7A4
:10C8E000A7F90120FCF7FEFD00210C20F5F7A0F9C7
:10C8F0000120FCF7F7FD00210D20F5F799F95020F4
:10C90000E2490870B5E0E1480078122815D100210D
:10C910001520F5F78DF90120FCF7E4FD0021162024
:10C92000F5F786F90120FCF7DDFD00211720F5F76A
:10C930007FF95020D54908709BE0D448007813282F
:10C9400016D100211F20F5F773F90120FCF7CAFD6D
:10C9500000212020F5F76CF90120FCF7C3FD002130
:10C960002120F5F765F95020C849087081E0BAE048
:10C97000C6480078142815D100212920F5F758F968
:10C980000120FCF7AFFD00212A20F5F751F9012025
:10C99000FCF7A8FD00212B20F5F74AF95020BB49F0
:10C9A000087066E0B9480078212815D101210B20D4
:10C9B000F5F73EF90120FCF795FD01210C20F5F774
:10C9C00037F90120FCF78EFD01210D20F5F730F934
:10C9D0005020AE4908704CE0AC480078222815D1B0
:10C9E00001211520F5F724F90120FCF77BFD012139
:10C9F0001620F5F71DF90120FCF774FD0121172021
:10CA0000F5F716F95020A149087032E09F480078E8
:10CA1000232815D101211F20F5F70AF90120FCF781
:10CA200061FD01212020F5F703F90120FCF75AFDF3
:10CA300001212120F5F7FCF850209449087018E0F6
:10CA400092480078242814D101212920F5F7F0F824
:10CA50000120FCF747FD01212A20F5F7E9F8012024
:10CA6000FCF740FD01212B20F5F7E2F85020874923
:10CA7000087087480078002834D000208449087066
:10CA80008448C088844908608448C0888449086014
:10CA90008448C088844908608448C0888449086004
:10CAA0008448C088844908608448C08884490860F4
:10CAB0008448C088844908608448C08884490860E4
:10CAC0008448C088844908608448C08884490860D4
:10CAD0008448C088844908608448C08884490860C4
:10CAE00005F0B8F84BE26048007801287DD104F0E9
:10CAF00047FF04F033FF7F4890ED000ABDEEC00A07
:10CB00008DED000A90ED000AB1EE400ABDEEC00ABC
:10CB100010EE103AFF22002177480078F4F7F8FC75
:10CB200000EE100AB8EEC00A514880ED000A7348C2
:10CB300090ED090ABDEEC00A8DED000A90ED090ADC
:10CB4000B1EE400ABDEEC00A8DED070AFF220021BA
:10CB50006B480078079BF4F7DBFC00EE100AB8EE98
:10CB6000C00A444880ED000A6448806B0190F3F7E6
:10CB70005DFD9FED640B53EC102BCDE902019DEDA3
:10CB8000020B51EC100BF3F714FCCDE904019DED01
:10CB9000040B51EC100BF3F711FD0790574890ED83
:10CBA0000E0AB1EE400A8DED010A0198F3F73EFD41
:10CBB0009FED540B53EC102BCDE902019DED020BC0
:10CBC00051EC100BF3F754FBCDE904019DED040B80
:10CBD00051EC100BF3F7F2FC069007980090FF223F
:10CBE00000214A480078069B00E0C9E1F4F790FC78
:10CBF00000EE100AB8EEC00A1F4880ED000A3F4858
:10CC000090ED080ABDEEC00A8DED000A90ED080A0D
:10CC1000B1EE400ABDEEC00A8DED070AFF220021E9
:10CC20003B480078079BF4F773FC00EE100AB8EE5F
:10CC3000C00A324880ED000A90ED090ABDEEC00A34
:10CC40008DED000A90ED090AB1EE400ABDEEC00A72
:10CC50008DED070AFF2200212E480078079BF4F78C
:10CC600057FC00EE100A57E0F80100200000000019
:10CC7000B0020020B4020020B802002067030020A8
:10CC80006603002065030020AC020020180200208B
:10CC90001902002040000020100000204C0000205D
:10CCA000140000205800002018000020640000201C
:10CCB0001C00002070000020200000207C000020CC
:10CCC000240000208800002028000020940000207C
:10CCD0002C000020A000002030000020AC0000202C
:10CCE00034000020B800002038000020C4000020DC
:10CCF0003C000020B80100201A020020BC010020E6
:10CD00001B020020333333333333F33F1C02002044
:10CD10001D0200201E020020B8EEC00AFE4880ED71
:10CD2000010A90ED0B0ABDEEC00A8DED000A90EDF0
:10CD30000A0ABDEEC00A8DED070AFF220021F7485E
:10CD40000078079BF4F7E4FB00EE100AB8EEC00A87
:10CD5000F14880ED020AF2480078F2490870F24882
:10CD60000078F2490870F2480078F2490870F248F9
:10CD70000078F2490860F248006842F21071884277
:10CD800003D20020EF49087003E0EF480078ED4936
:10CD90000870E448007890B1E148007800EE100A8D
:10CDA000B8EE400A9FEDE91AC0EE010A9FEDE81ABD
:10CDB0009FEDE80A00EE810AE74880ED000ADB48B3
:10CDC000007890B1D848007800EE100AB8EE400A1A
:10CDD0009FEDDE1AC0EE010A9FEDDD1A9FEDDD0A20
:10CDE00000EE810ADD4880ED000AD248007890B15B
:10CDF000CF48007800EE100AB8EE400A9FEDD31A33
:10CE0000C0EE010A9FEDD21A9FEDD20A00EE810A10
:10CE1000D34880ED000AD348007890B1D14800781B
:10CE200000EE100AB8EE400A9FEDC81AC0EE010AE3
:10CE30009FEDC71A9FEDC70A00EE810ACA4880ED30
:10CE4000000ACA48007890B1C848007800EE100A7D
:10CE5000B8EE400A9FEDBD1AC0EE010A9FEDBC1A64
:10CE60009FEDBC0A00EE810AC14880ED000AC1486E
:10CE7000007890B1BF48007800EE100AB8EE400A82
:10CE80009FEDB21AC0EE010A9FEDB11A9FEDB10AF3
:10CE900000EE810AB84880ED000AA2480078002818
:10CEA0006DD1A24800780028FAD1A2480078002865
:10CEB000F6D1A44800780028F2D1B048007848B9EB
:10CEC000AF48007830B9AF48007818B9AE4800785C
:10CED000002854D0904890ED0C0ABDEEC00A8DEDAC
:10CEE000000A90ED0C0AB1EE400ABDEEC00A8DEDCD
:10CEF000070AFF220021A5480078079BF4F708FBEA
:10CF000000EE100AB8EEC00A834880ED050A90EDE5
:10CF10000D0ABDEEC00A8DED000A90ED0D0AB1EECE
:10CF2000400ABDEEC00A8DED070AFF220021984895
:10CF30000078079BF4F7ECFA00EE100AB8EEC00A8E
:10CF4000754880ED060A90ED0E0ABDEEC00A8DED23
:10CF5000000A90ED0E0AB1EE400ABDEEC00A8DED5A
:10CF6000070AFF2200218B480078079BF4F7D0FACC
:10CF700000EE100AB8EEC00A674880ED070AFDE32C
:10CF80008548007802287DD104F0FAFC624890EDD3
:10CF9000080ABDEEC00A8DED000A90ED080AB1EE58
:10CFA000400ABDEEC00A8DED070AFF2200217B4832
:10CFB0000078079BF4F7ACFA00EE100AB8EEC00A4E
:10CFC000774880ED000A544890ED090ABDEEC00A8A
:10CFD0008DED000A90ED090AB1EE400ABDEEC00ADF
:10CFE0008DED070AFF2200216E480078079BF4F7B9
:10CFF0008FFA00EE100AB8EEC00A694880ED010A07
:10D00000454890ED0B0AB1EE400ABDEEC00A8DED29
:10D01000000A90ED0A0AB1EE400ABDEEC00A8DED9D
:10D02000070AFF22002160480078079BF4F770FA96
:10D0300000EE100AB8EEC00A594880ED020A3648E0
:10D0400090ED080ABDEEC00A8DED000A90ED080AC9
:10D05000B1EE400ABDEEC00A8DED070AFF220021A5
:10D0600052480078079BF4F753FA00EE100AB8EE26
:10D07000C00A4F4880ED000A274890ED090ABDEE2E
:10D08000C00A00E044E18DED000A90ED090AB1EE1E
:10D09000400ABDEEC00A8DED070AFF220021454877
:10D0A0000078079BF4F734FA00EE100AB8EEC00AD5
:10D0B0003F4880ED010A184890ED0B0AB1EE400A96
:10D0C000BDEEC00A8DED000A90ED0A0AB1EE400AED
:10D0D000BDEEC00A8DED070AFF2200213648007818
:10D0E000079BF4F715FA00EE100AB8EEC00A3048B4
:10D0F00080ED020A084890ED080ABDEEC00A8DEDE9
:10D10000000A90ED080AB1EE400ABDEEC00A8DEDAE
:10D11000070AFF22002151E0BC0100201F0200206D
:10D120002302002067030020240200206603002061
:10D13000250200206503002026020020AC0200200A
:10D14000B00500206C0300206B02002000007F432C
:10D150000000FA450000FA44840300208003002008
:10D160007C030020270200208803002028020020E2
:10D170008C03002029020020900300206903002076
:10D180006A030020680300206B03002020020020B7
:10D190002102002022020020F80100202B020020A2
:10D1A000E80000202C0200202D0200202E0200208A
:10D1B000180100202F02002030020020FE480078D5
:10D1C000079BF4F7A5F900EE100AB8EEC00AFB4879
:10D1D00080ED000AFA4890ED090ABDEEC00A8DED17
:10D1E000000A90ED090AB1EE400ABDEEC00A8DEDCD
:10D1F000070AFF220021F3480078079BF4F788F91B
:10D2000000EE100AB8EEC00AEC4880ED010AEC48C6
:10D2100090ED0B0AB1EE400ABDEEC00A8DED000A9A
:10D2200090ED0A0AB1EE400ABDEEC00A8DED070A84
:10D23000FF220021E4480078079BF4F769F900EE2B
:10D24000100AB8EEC00ADD4880ED020ADC4890ED15
:10D25000080ABDEEC00A8DED000A90ED080AB1EE95
:10D26000400ABDEEC00A8DED070AFF220021D74813
:10D270000078079BF4F74CF900EE100AB8EEC00AEC
:10D28000D34880ED000ACE4890ED090ABDEEC00AF1
:10D290008DED000A90ED090AB1EE400ABDEEC00A1C
:10D2A0008DED070AFF220021CA480078079BF4F79A
:10D2B0002FF900EE100AB8EEC00AC54880ED010A49
:10D2C000BF4890ED0B0AB1EE400ABDEEC00A8DEDED
:10D2D000000A90ED0A0AB1EE400ABDEEC00A8DEDDB
:10D2E000070AFF220021BC480078079BF4F710F9D9
:10D2F00000EE100AB8EEC00AB54880ED020AB74841
:10D30000008800EB400080B2079004F08DFD37E309
:10D31000B34800780328FAD104F020FBB148006834
:10D32000F3F73FF99FEDB00B53EC102BCDE9020161
:10D330009DED020B51EC100BF3F73BF8CDE9040126
:10D340009DED040B51EC100BF3F738F90790A5484D
:10D350000068F3F726F99FEDA60B53EC102BCDE9EF
:10D3600002019DED020B51EC100BF2F781FFCDE9AC
:10D3700004019DED040B51EC100BF3F71FF906901F
:10D3800007980090FF2200219B480078069BF4F745
:10D39000BFF89A4948809A480068F3F702F99FED70
:10D3A000990B53EC102BCDE902019DED020B51ECD2
:10D3B000100BF2F75DFFCDE904019DED040B51EC7C
:10D3C000100BF3F7FBF807908D480068F3F7E9F8C6
:10D3D0009FED8E0B53EC102BCDE902019DED020B5E
:10D3E00051EC100BF2F7E5FFCDE904019DED040BC4
:10D3F00051EC100BF3F7E2F8069007980090FF222B
:10D40000002184480078069BF4F782F8824948801E
:10D4100082480068F3F7C5F89FED810B53EC102BA1
:10D42000CDE902019DED020B51EC100BF2F7C1FFAB
:10D43000CDE904019DED040B51EC100BF3F7BEF8A0
:10D44000079076480068F3F7ACF89FED750B53EC46
:10D45000102BCDE902019DED020B51EC100BF2F700
:10D4600007FFCDE904019DED040B51EC100BF3F720
:10D47000A5F8069007980090FF2200216A480078DE
:10D48000069BF4F745F86949488069480068F3F756
:10D4900088F89FED550B53EC102BCDE902019DED63
:10D4A000020B51EC100BF2F7E3FECDE904019DED08
:10D4B000040B51EC100BF3F781F807905C480068FF
:10D4C000F3F76FF89FED4A0B53EC102BCDE90201F7
:10D4D0009DED020B51EC100BF2F76BFFCDE904014F
:10D4E0009DED040B51EC100BF3F768F806900798CC
:10D4F0000090FF2200214F480078069BF4F708F8BF
:10D500004D4948804D480068F3F74BF89FED3D0BBF
:10D5100053EC102BCDE902019DED020B51EC100BE9
:10D52000F2F747FFCDE904019DED040B51EC100B20
:10D53000F3F744F8079041480068F3F732F89FED9D
:10D54000330B53EC102BCDE902019DED020B51EC96
:10D55000100BF2F78DFECDE904019DED040B51ECAB
:10D56000100BF3F72BF8069007980090FF2200218C
:10D5700033480078069BF3F7CBFF324948803248A6
:10D580000068F3F70EF89FED260B53EC102BCDE956
:10D5900002019DED020B51EC100BF2F769FECDE993
:10D5A00004019DED040B51EC100BF3F707F8079005
:10D5B000254800684AE000003102002048010020B0
:10D5C000BC0100203202002033020020340200207F
:10D5D0007801002035020020360200206802002079
:10D5E000F8010020100000201445511445518440DA
:10D5F0009A99999999998940430200204000002006
:10D6000014000020567E429C959F90404C67319DAF
:10D61000C5748640440200204C0000201800002001
:10D62000165EE1155EE175404502002058000020BD
:10D630001C00002046020020640000202000002082
:10D64000470200207000002024000020F2F7A9FF0C
:10D650001FED0D0B53EC102BCDE902019DED020BDC
:10D6600051EC100BF2F7A5FECDE904019DED040B82
:10D6700051EC100BF2F7A2FF069007980090FF22E2
:10D680000021FE480078069BF3F742FFFC494880E2
:10D69000FC480068F2F785FF1FED2D0B53EC102BB3
:10D6A000CDE902019DED020B51EC100BF2F7E0FD0C
:10D6B000CDE904019DED040B51EC100BF2F77EFF58
:10D6C0000790F0480068F2F76CFF1FED370B53EC42
:10D6D000102BCDE902019DED020B51EC100BF2F77E
:10D6E00068FECDE904019DED040B51EC100BF2F73F
:10D6F00065FF069007980090FF220021E24800781D
:10D70000069BF3F705FFE1494880E1480068F2F71E
:10D7100048FF1FED440B53EC102BCDE902019DEDAA
:10D72000020B51EC100BF2F744FECDE904019DED24
:10D73000040B51EC100BF2F741FF0790D44800683E
:10D74000F2F72FFF1FED4F0B53EC102BCDE9020129
:10D750009DED020B51EC100BF2F78AFDCDE90401AF
:10D760009DED040B51EC100BF2F728FF0690079883
:10D770000090FF220021C748007800E000E1069BEE
:10D78000F3F7C6FEC4494880C4480068F2F709FFB1
:10D790001FED5D0B53EC102BCDE902019DED020B4B
:10D7A00051EC100BF2F705FECDE904019DED040BE1
:10D7B00051EC100BF2F702FF0790B8480068F2F73F
:10D7C000F0FE1FED690B53EC102BCDE902019DED2E
:10D7D000020B51EC100BF2F74BFDCDE904019DED6E
:10D7E000040B51EC100BF2F7E9FE0690079800903D
:10D7F000FF220021AA480078069BF3F789FEA94979
:10D800004880A9480068F2F7CCFE1FED890B53EC65
:10D81000102BCDE902019DED020B51EC100BF2F73C
:10D82000C8FDCDE904019DED040B51EC100BF2F79E
:10D83000C5FE07909C480068F2F7B3FE1FED940BFD
:10D8400053EC102BCDE902019DED020B51EC100BB6
:10D85000F2F70EFDCDE904019DED040B51EC100B28
:10D86000F2F7ACFE069007980090FF2200218F4847
:10D870000078069BF3F74CFE8D4948808D48006880
:10D88000F2F78FFE1FEDA10B53EC102BCDE9020137
:10D890009DED020B51EC100BF2F7EAFCCDE904010F
:10D8A0009DED040B51EC100BF2F788FE07908148B8
:10D8B0000068F2F776FE1FEDAB0B53EC102BCDE9B1
:10D8C00002019DED020B51EC100BF2F772FDCDE958
:10D8D00004019DED040B51EC100BF2F76FFE069066
:10D8E00007980090FF22002173480078069BF3F709
:10D8F0000FFE7249488072480068F2F752FE1FED31
:10D90000B80B53EC102BCDE902019DED020B51EC4D
:10D91000100BF2F7ADFCCDE904019DED040B51ECC9
:10D92000100BF2F74BFE079065480068F2F739FEDE
:10D930001FEDC50B53EC102BCDE902019DED020B41
:10D9400051EC100BF2F735FDCDE904019DED040B10
:10D9500051EC100BF2F732FE069007980090FF2270
:10D96000002158480078069BF3F7D2FD56494880BD
:10D970005648008800EB400080B2079004F054FA4B
:10D98000FF200090524890ED080ABDEEC00A8DEDD0
:10D99000070A90ED080AB1EE400ABDEEC00A8DED0F
:10D9A000060A4C4890ED000ABDEEC00A8DED050A4E
:10D9B000002305A807C8F3F7ABFD47490870FF200F
:10D9C0000090434890ED090ABDEEC00A8DED070AAC
:10D9D00090ED090AB1EE400ABDEEC00A8DED060ACF
:10D9E0003C4890ED010ABDEEC00A8DED050A00230A
:10D9F00005A807C8F3F78CFD38490870FF20009090
:10DA0000334890ED0A0AB1EE400ABDEEC00A8DED32
:10DA1000070A90ED0B0AB1EE400ABDEEC00A8DED8B
:10DA2000060A2C4890ED020ABDEEC00A8DED050AEB
:10DA3000002305A807C8F3F76BFD29490870FF20EC
:10DA40000090234890ED080ABDEEC00A8DED070A4C
:10DA500090ED080AB1EE400ABDEEC00A8DED060A4F
:10DA6000204890ED000ABDEEC00A8DED050A0023A6
:10DA700005A807C8F3F74CFD1B4937E04802002012
:10DA80007C0000202800002049020020880000209F
:10DA90002C0000204A0200209400002030000020CA
:10DAA0004B020020A0000020340000204C02002087
:10DAB000AC000020380000204D020020B8000020FB
:10DAC0003C0000204E020020C4000020680200201C
:10DAD000BC010020E80000203702002038020020AE
:10DAE00039020020180100203A0200200870FF20AF
:10DAF0000090FE4890ED090ABDEEC00A8DED070AC0
:10DB000090ED090AB1EE400ABDEEC00A8DED060A9D
:10DB1000F74890ED010ABDEEC00A8DED050A00231D
:10DB200005A807C8F3F7F4FCF2490870FF2000903D
:10DB3000EE4890ED0A0AB1EE400ABDEEC00A8DED46
:10DB4000070A90ED0B0AB1EE400ABDEEC00A8DED5A
:10DB5000060AE74890ED020ABDEEC00A8DED050AFF
:10DB6000002305A807C8F3F7D3FCE3490870FF209A
:10DB70000090DE4890ED080ABDEEC00A8DED070A60
:10DB800090ED080AB1EE400ABDEEC00A8DED060A1E
:10DB9000DA4890ED000ABDEEC00A8DED050A0023BB
:10DBA00005A807C8F3F7B4FCD5490870FF2000901A
:10DBB000CE4890ED090ABDEEC00A8DED070A90ED42
:10DBC000090AB1EE400ABDEEC00A8DED060ACB4847
:10DBD00090ED010ABDEEC00A8DED050A002305A8EF
:10DBE00007C8F3F795FCC7490870FF200090BF48AD
:10DBF00090ED0A0AB1EE400ABDEEC00A8DED070AAB
:10DC000090ED0B0AB1EE400ABDEEC00A8DED060A9A
:10DC1000BA4890ED020ABDEEC00A8DED050A002358
:10DC200005A807C8F3F774FCB7490870FF200090F7
:10DC3000AE4890ED080ABDEEC00A8DED070A90EDE2
:10DC4000080AB1EE400ABDEEC00A8DED060AAF48E3
:10DC500090ED000ABDEEC00A8DED050A002305A86F
:10DC600007C8F3F755FCAA490870FF2000909F48A9
:10DC700090ED090ABDEEC00A8DED070A90ED090A84
:10DC8000B1EE400ABDEEC00A8DED060A9F4890ED48
:10DC9000010ABDEEC00A8DED050A002305A807C8DC
:10DCA000F3F736FC9B490870FF2000908F4890EDF9
:10DCB0000A0AB1EE400ABDEEC00A8DED070A90EDEA
:10DCC0000B0AB1EE400ABDEEC00A8DED060A8F4880
:10DCD00090ED020ABDEEC00A8DED050A002305A8ED
:10DCE00007C8F3F715FC8C4908708C480068F2F7F8
:10DCF00058FC9FED8B0B53EC102BCDE902019DEDF1
:10DD0000020B51EC100BF2F7B3FACDE904019DEDD3
:10DD1000040B51EC100BF2F751FC07907F480068A0
:10DD2000F2F73FFC9FED800B53EC102BCDE9020185
:10DD30009DED020B51EC100BF2F73BFBCDE904011A
:10DD40009DED040B51EC100BF2F738FC069000200F
:10DD500000907748C088FF230590DDE90612F3F7AD
:10DD6000D7FB7449087074480068F2F71AFC9FEDFD
:10DD7000730B53EC102BCDE902019DED020B51EC1E
:10DD8000100BF2F775FACDE904019DED040B51EC8F
:10DD9000100BF2F713FC079067480068F2F701FCDC
:10DDA0009FED680B53EC102BCDE902019DED020BAA
:10DDB00051EC100BF2F7FDFACDE904019DED040BD7
:10DDC00051EC100BF2F7FAFB0690FF2000905F4831
:10DDD000C08800230590DDE90612F3F799FB5C4942
:10DDE00008705C480068F2F7DCFB9FED5B0B53ECBE
:10DDF000102BCDE902019DED020B51EC100BF2F757
:10DE000037FACDE904019DED040B51EC100BF2F74C
:10DE1000D5FB07904F480068F2F7C3FB9FED4E0B10
:10DE200053EC102BCDE902019DED020B51EC100BD0
:10DE3000F2F7BFFACDE904019DED040B51EC100B94
:10DE4000F2F7BCFB0690002000904548C088FF23F5
:10DE50000590DDE90612F3F75BFB42490870424882
:10DE60000068F2F79EFB9FED300B53EC102BCDE9D1
:10DE700002019DED020B51EC100BF2F7F9F9CDE91F
:10DE800004019DED040B51EC100BF2F797FB07908A
:10DE900035480068F2F785FB9FED210B53EC102B02
:10DEA000CDE902019DED020B51EC100BF2F781FA66
:10DEB000CDE904019DED040B51EC100BF2F77EFB54
:10DEC0000690FF2000902948C08800230590DDE9D6
:10DED0000612F3F71DFB2649087026480068F2F782
:10DEE00060FB9FED180B53EC102B45E0BC010020AC
:10DEF000180100203B0200203C02002048010020C5
:10DF00003D0200203E0200203F0200207801002058
:10DF100040020020410200204202002010000020A8
:10DF20009A99999999998940144551144551844079
:10DF3000400000204F02002014000020567E429C2A
:10DF4000959F90404C67319DC57486404C000020E1
:10DF50005002002018000020165EE1155EE17540B9
:10DF600058000020510200201C0000206400002006
:10DF70005202002020000020CDE902019DED020B9D
:10DF800051EC100BF2F774F9CDE904019DED040B8F
:10DF900051EC100BF2F712FB0790EC480068F2F717
:10DFA00000FB1FED1A0B53EC102BCDE902019DED88
:10DFB000020B51EC100BF2F7FCF9CDE904019DEDD9
:10DFC000040B51EC100BF2F7F9FA069000200090C8
:10DFD000DF48C088FF230590DDE90612F3F798FAC1
:10DFE000DC490870DC480068F2F7DBFA1FED260B0D
:10DFF00053EC102BCDE902019DED020B51EC100BFF
:10E00000F2F736F9CDE904019DED040B51EC100B4C
:10E01000F2F7D4FA0790D0480068F2F7C2FA1FED81
:10E02000320B53EC102BCDE902019DED020B51ECAC
:10E03000100BF2F7BEF9CDE904019DED040B51EC94
:10E04000100BF2F7BBFA0690FF200090C348C0887F
:10E0500000230590DDE90612F3F75AFAC04908706B
:10E06000C0480068F2F79DFA1FED510B53EC102BDE
:10E07000CDE902019DED020B51EC100BF2F7F8F81F
:10E08000CDE904019DED040B51EC100BF2F796FA6B
:10E090000790B4480068F2F784FA1FED5F0B53EC69
:10E0A000102BCDE902019DED020B51EC100BF2F7A4
:10E0B00080F9CDE904019DED040B51EC100BF2F752
:10E0C0007DFA0690FF200090A748C08800230590A5
:10E0D000DDE90612F3F71CFAA4490870A4480068A9
:10E0E000F2F75FFA1FED690B53EC102BCDE902013B
:10E0F0009DED020B51EC100BF2F7BAF8CDE90401DB
:10E100009DED040B51EC100BF2F758FA079098486C
:10E110000068F2F746FA1FED770B53EC102BCDE9B0
:10E1200002019DED020B51EC100BF2F742F9CDE923
:10E1300004019DED040B51EC100BF2F73FFA069031
:10E14000002000908B48C088FF230590DDE906126F
:10E15000F3F7DEF98849087088480068F2F721FA79
:10E160001FED830B53EC102BCDE902019DED020B4B
:10E1700051EC100BF2F77CF8CDE904019DED040B96
:10E1800051EC100BF2F71AFA07907C480068F2F78E
:10E1900008FA1FED8F0B53EC102BCDE902019DED1A
:10E1A000020B51EC100BF2F704F9CDE904019DEDDF
:10E1B000040B51EC100BF2F701FA069000200090CE
:10E1C0006F48C088FF230590DDE90612F3F7A0F938
:10E1D0006C4908706C480068F2F7E3F91FEDB00B6A
:10E1E00053EC102BCDE902019DED020B51EC100B0D
:10E1F000F2F73EF8CDE904019DED040B51EC100B54
:10E20000F2F7DCF9079060480068F2F7CAF91FEDF1
:10E21000BA0B53EC102BCDE902019DED020B51EC32
:10E22000100BF2F7C6F8CDE904019DED040B51EC9B
:10E23000100BF2F7C3F90690002000905348C088F5
:10E24000FF230590DDE90612F3F762F950490870E3
:10E2500050480068F2F7A5F91FEDC80B53EC102BDE
:10E26000CDE902019DED020B51EC100BF2F700F825
:10E27000CDE904019DED040B51EC100BF2F79EF972
:10E28000079044480068F2F78CF91FEDD20B53EC6D
:10E29000102BCDE902019DED020B51EC100BF2F7B2
:10E2A00088F8CDE904019DED040B51EC100BF2F759
:10E2B00085F90690FF2000903748C088002305901C
:10E2C000DDE90612F3F724F9344908703448006890
:10E2D000F2F767F91FEDE00B53EC102BCDE90201CB
:10E2E0009DED020B51EC100BF1F7C2FFCDE90401DB
:10E2F0009DED040B51EC100BF2F760F907902848E4
:10E300000068F2F74EF91FEDEC0B53EC102BCDE942
:10E3100002019DED020B51EC100BF2F74AF8CDE92A
:10E3200004019DED040B51EC100BF2F747F9069038
:10E33000FF2000901B48C08800230590DDE90612ED
:10E34000F3F7E6F81849087009B000BD2000002076
:10E350007000002053020020240000207C000020D8
:10E3600054020020280000208800002055020020D0
:10E370002C000020940000205602002030000020D5
:10E38000A00000205702002034000020AC00002034
:10E390005802002038000020B80000205902002058
:10E3A0003C000020C40000205A0200207F49D1ED2B
:10E3B000000AC0ED070AF8EE000AB0EE600AD0EDE0
:10E3C000030AF5EEC00AF1EE10FA34DB7849D1ED1C
:10E3D000000AB2EE001AC0EE811AD0ED030AF4EE84
:10E3E000E01AF1EE10FA26DD91ED001AF2EE001AB5
:10E3F000C1EE210A80EE201AD0ED031AD0ED080AF2
:10E4000041EE210AC0ED000AD0ED090AC0ED010A73
:10E4100091ED001AF2EE001AC1EE210AD0ED071AB2
:10E4200081EEA01AD0ED031AD0ED0A0A41EE210ABE
:10E43000C0ED020AB8E05E4991ED001AF2EE001A52
:10E44000C1EE210A90ED031AF4EEC10AF1EE10FAC2
:10E4500023D8D1ED000AB0EE081A60EE810AB2EEC0
:10E46000001AC0EE811AD0ED030AF4EEE01AF1EEC4
:10E4700010FA12DDD0ED080A70EE800AC0ED000A35
:10E48000D0ED090AC0ED010AD0ED0A0A90ED071A95
:10E4900070EE810AC0ED020A86E04549D1ED000A1E
:10E4A000B0EE081A20EE811AF2EE001AC1EE210A2F
:10E4B00090ED031AF4EEC10AF1EE10FA51D891ED85
:10E4C000001AF0EE001AC1EE210A90ED031AF4EEE4
:10E4D000C10AF1EE10FA44DD91ED001AF2EE001AD5
:10E4E000C1EE210A80EE201AD1ED000AF0EE081AE2
:10E4F00060EEA10AB2EE002AC0EE821AD0ED030A45
:10E5000070EEE11AD0ED080A70EE800A41EE610A61
:10E51000C0ED000AD0ED090AC0ED010A91ED001A24
:10E52000F2EE001AC1EE210AD0ED071A81EEA01A10
:10E53000D1ED000AF0EE081A60EEA10AF2EE001A20
:10E5400080EEA12AD0ED030A70EEC21AD0ED0A0ABD
:10E5500090ED072A70EE820A41EE610AC0ED020AD0
:10E5600022E0134991ED001AF0EE001AC1EE210AE3
:10E5700090ED031AF4EEC10AF1EE10FA14D8D0EDC2
:10E58000030A91ED001AF4EEC10AF1EE10FA0BD86D
:10E59000D0ED080AC0ED000AD0ED090AC0ED010A6D
:10E5A000D0ED0A0AC0ED020A70470000FC0100200D
:10E5B0007803002070B52DED108B84B004469FEDDC
:10E5C000FE0AF0EE40FA9FEDFC0AB0EE408AFB48EE
:10E5D0000078A0F18005B7EE000AF0EE408A9FEDCA
:10E5E000F60AB0EE40FA002D2ADA94F82C00022840
:10E5F00004DD9FEDF30AF0EE408A03E09FEDF10A9F
:10E60000F0EE408A00EE105AB8EEC00A10EE100A82
:10E61000F2F70CF841EC1B0B9FEDEB0B53EC102BBE
:10E62000F1F73FFF41EC1A0B9FEDE90B53EC102B78
:10E63000F1F7C5FE41EC190BF2F73CF80FEE100AAA
:10E64000E54890ED000ADFEDE50AB4EEE00AF1EEF0
:10E6500010FA13D8B2EE000AF0EE40FAB3EE090A4F
:10E66000DF4880ED000A002D03DDB1EE040AB0EEB4
:10E6700040FAB2EE0C0A84ED070A4BE0D64890ED62
:10E68000000ADFEDD80AB4EEE00AF1EE10FA34DD4C
:10E6900090ED000ADFEDD40AB4EEE00AF1EE10FAD4
:10E6A0002BD8B3EE090ACE4880ED000AB3EE040A77
:10E6B00084ED070A002D2DDD00EE105AB8EEC00AD9
:10E6C000B1EE400A10EE100AF1F7B0FF41EC1B0B5F
:10E6D0009FEDBD0B53EC102BF1F7E3FE41EC1A0B51
:10E6E0009FEDBB0B53EC102BF1F769FE41EC190BBE
:10E6F000F1F7E0FF0FEE100A0CE0B9EE040AF0EEBD
:10E7000040FAB3EE0E0AB64880ED000AB2EE0C0AEB
:10E7100084ED070AB04890ED000AF0EE000A80EEA2
:10E72000201A94ED030AB4EEC01AF1EE10FA38DBA9
:10E7300094ED050AF1EE000A20EE200AD4ED030A5A
:10E7400060EE200A90ED001A80EE810AD4ED080AEE
:10E7500094ED051A70EE810A30EEC00A30EE0F0A11
:10E7600084ED000A94ED060AF1EE000A20EE200A7C
:10E77000D4ED030A60EE200A90ED001A80EE810AC3
:10E78000D4ED090A94ED061A70EE810A30EEC00A43
:10E7900084ED010A94ED0A0A08EE880A84ED020A63
:10E7A0000AE28D4890ED000AB0EE001AC0EE010AB0
:10E7B00094ED030AF4EEC00AF1EE10FA7ED890ED63
:10E7C000000AF1EE040A20EE200AB2EE001AC0EEB2
:10E7D000010A94ED030AF4EEC00AF1EE10FA7FDBB1
:10E7E0001FEE100AF1F722FF41EC1A0B7A4890ED68
:10E7F000000AF2EE000A80EE201A11EE106A30468E
:10E80000F1F714FFCDE902017348D0ED000AB0EE34
:10E81000001A80EE810AD4ED030A30EEC00A10EE31
:10E82000106A3046F1F702FF41EC1E0B9FED6F0BB3
:10E8300053EC102BF1F7C3FDCDE900019DED020B68
:10E8400053EC102B9DED000B51EC100BF1F729FE52
:10E8500041EC1C0B94ED080AD4ED050A30EE600A79
:10E8600010EE101A0846F1F7E1FE41EC1D0B53ECD7
:10E870001C2BF1F7FDFC41EC1B0B53EC1A2BF1F7B1
:10E88000F7FC41EC190BF1F715FF206094ED090A34
:10E89000D4ED060A30EE600A84ED010A4E4890ED90
:10E8A000000AF0EE000A80EE201A94ED030A30EE22
:10E8B000410AD4ED070A60EE200A00E010E090ED76
:10E8C000001AF2EE001A81EE210A80EE801A71EE33
:10E8D000080A94ED0A0A08EEA00A84ED020A6BE128
:10E8E0003D4890ED000AF1EE040A60EE200AB2EE17
:10E8F000001A80EE810AD4ED030AB4EEE00AF1EECC
:10E9000010FA58D890ED000AF1EE0C0A60EE200AD9
:10E91000B2EE001A80EE810AD4ED030AB4EEE00AEA
:10E92000F1EE10FA47DB1FEE100AF1F77FFE41EC23
:10E93000190B294890ED000AF1EE040A60EE200A56
:10E94000B2EE001A80EE810AD4ED030A30EEC00A5E
:10E95000D4ED050AB0EE001A60EE810A20EE200A1E
:10E96000D0ED000AF1EE001A80EEA11AC0EE010A05
:10E9700010EE906A3046F1F759FE41EC1B0B94ED16
:10E98000080AD4ED050A30EE600A10EE101A0846A7
:10E99000F1F74CFE41EC1D0B9FED140B53EC102BCB
:10E9A000F1F766FC41EC1C0B53EC1B2BF1F760FC00
:10E9B00041EC1A0B1EE05AE0000000001A02002091
:10E9C0009A99193F3333333F000000000000604044
:10E9D0000000000000000040780300200000114407
:10E9E000B80100200000FA4300007A440000000053
:10E9F0000000214053EC192BF1F73AFC41EC1E0BBF
:10EA0000F1F758FE20606E4890ED000AF1EE040A1E
:10EA100060EE200AB2EE001A80EE810AD4ED030AFD
:10EA200030EEC00AD4ED060AB0EE001A60EE810A9C
:10EA300060EE200A90ED001AF1EE001A81EE210A34
:10EA400080EE801A94ED090AD4ED060A30EE600AD1
:10EA500031EE000A84ED010A94ED0A0AD4ED070AAA
:10EA600070EE880A08EEA00A84ED020AA4E0544879
:10EA700090ED000AF1EE0C0A20EE200AB2EE001A28
:10EA8000C0EE010A94ED030AF4EEC00AF1EE10FAAA
:10EA90007DD81FEE100AF1F7C9FD41EC190B48486B
:10EAA00090ED000AF2EE000A80EE201A11EE106AD4
:10EAB0003046F1F7BBFD41EC1B0B414890ED000ADD
:10EAC000F1EE0C0A60EE200AB2EE001A80EE810A26
:10EAD000D4ED030A30EEC00A10EE106A3046F1F7AA
:10EAE000A5FD41EC1D0B1FED3F0B53EC102BF1F777
:10EAF00066FC41EC1C0B53EC1B2BF1F7D2FCCDE96F
:10EB0000020194ED080AD4ED050A30EE200A10EE59
:10EB1000101A0846F1F78AFD41EC1B0B1FED4D0B57
:10EB200053EC102BF1F7A4FBCDE900019DED020B96
:10EB300053EC102B9DED000B51EC100BF1F739FC51
:10EB400041EC1A0B53EC192BF1F792FB41EC1E0B25
:10EB5000F1F7B0FD206094ED090AD4ED060A30EE1D
:10EB6000200A84ED010A164890ED000AF1EE0C0A25
:10EB700060EE200AB2EE001A80EE810AD4ED030A9C
:10EB800030EEC00AD4ED070A20EE200A00E013E0C0
:10EB9000D0ED000AB2EE001AC0EE811AC0EE210AD2
:10EBA00094ED070A30EE600A70EE080A94ED0A0A46
:10EBB00008EEA00A84ED020A04B0BDEC108B70BD13
:10EBC0007803002070B52DED108B8EB004469FEDBC
:10EBD000FE0AB0EE408A9FEDFC0AF0EE409AB7EED6
:10EBE000000AB0EE40AA9FEDF90AF0EE40AAB2EE9C
:10EBF000080AF0EE408A9FEDF40AB0EE409AF4481D
:10EC00000078A0F1800594F82C00022804DDB6EE0F
:10EC1000080AF0EE40AA03E09FEDEE0AF0EE40AAEB
:10EC2000ED4890ED000ADFEDED0AB4EEE00AF1EEFA
:10EC300010FA09D89FEDEA0AB0EE408AB3EE040A52
:10EC4000E84880ED000A35E0E34890ED000ADFED8A
:10EC5000E30AB4EEE00AF1EE10FA16DB90ED000ADA
:10EC6000DFEDE10AB4EEE00AF1EE10FA0DD29FED0D
:10EC7000DF0AB0EE408AB3EE090ADA4880ED000AF6
:10EC8000B7EE000AB0EE40AA14E09FEDCF0AB0EE56
:10EC9000408AB0EE000AB0EE409A9FEDD50AF0EE41
:10ECA00040AAB6EE000AB0EE40AAB3EE090ACD487B
:10ECB00080ED000A002D7CDBC74890ED000AF2EEE3
:10ECC0000E0A60EE200AB3EE001A80EE810AD4ED3F
:10ECD000030AB4EEE00AF1EE10FA59D894ED030AF3
:10ECE000D0ED000AB4EEE00AF1EE10FA50D894ED3F
:10ECF000050AD4ED030A20EE200AF3EE000A20EE06
:10ED0000200AD0ED000AB1EE041A20EE811AC0EEFE
:10ED1000010A94ED080A94ED051AF1EE001A01EECD
:10ED2000210A70EE600A00EE105AB8EEC00A40EEFA
:10ED3000080A30EE890AD4ED050AB1EE0C1AC0EECD
:10ED4000811A30EE610A84ED000A94ED060AD4EDD2
:10ED5000030A20EE200AF3EE000A20EE200AD0ED8E
:10ED6000000AB1EE041A20EE811AC0EE010A94EDF9
:10ED7000090A94ED061AF1EE001A01EE210A30EEAE
:10ED8000600A84ED010A94ED0A0A84ED020A82E227
:10ED900094ED030AB5EEC00AF1EE10FA71DB8E486D
:10EDA00090ED000AF2EE020A20EE200AB3EE001AFD
:10EDB00000E088E3C0EE010A94ED030AF4EEC00A15
:10EDC000F1EE10FA5DDD94ED050AF1EE000A20EE99
:10EDD000200AB1EE041AC0EE010A94ED080A30EEE2
:10EDE000800AD4ED050A94ED031A60EE810AB3EEB1
:10EDF000001A60EE810A90ED001AF1EE041A21EE7D
:10EE0000211AC0EE811A70EE610A00EE105AB8EEB7
:10EE1000C00A40EE080A30EE890AD4ED050AB1EEC8
:10EE20000C1AC0EE811A30EE610A84ED000A94EDEE
:10EE3000060AF1EE000A20EE200AF1EE040A80EE46
:10EE4000201A94ED090A31EE000AD4ED060A94ED79
:10EE5000031A60EE810AB3EE001A60EE810A90EDAB
:10EE6000001AF1EE041A21EE211AC0EE811A30EEDA
:10EE7000610A84ED010A94ED0A0A84ED020A0AE2AD
:10EE8000FFE7554890ED000AF2EE020A60EE200A14
:10EE9000B3EE001A80EE810AD4ED030AB4EEE00A64
:10EEA000F1EE10FA7ED890ED000AF3EE050A20EE9E
:10EEB000200ADFED500A80EE201A94ED030AB4EE2A
:10EEC000C01AF1EE10FA6DDD94ED050AF1EE0C0AB0
:10EED00080EE201A11EE106A3046F1F7A7FB41ECE4
:10EEE0001B0B19EE100AF1F7A1FB00EE105AB8EE59
:10EEF000C00A20EE080ACDE90A0110EE101A0846F1
:10EF0000F1F794FBCDE90601334890ED000AF2EEEB
:10EF1000020A60EE200AB3EE001A80EE810AD4EDF8
:10EF2000030A30EEC00A10EE106A3046F1F77EFB9D
:10EF3000CDE90201284890ED000AF0EE080A20EE23
:10EF4000200ADFED2C0A80EE201A11EE106A3046FE
:10EF5000F1F76CFB41EC1D0B53EC1D2B9FED260BC9
:10EF600051EC100BF1F79DFACDE900019DED020B7C
:10EF700053EC102B9DED000B51EC100BF1F71FFA29
:10EF800041EC1E0B94ED080AD4ED050A30EE600A40
:10EF900010EE101A0846F1F749FB41EC1C0B53EC3C
:10EFA0001E2B00E095E0F1F763F9CDE904019DED3A
:10EFB000060B53EC102B9DED040B51EC100BF1F7ED
:10EFC00057F9CDE908011BE0000000009A99593F6C
:10EFD0001A020020CDCC4C3F780300200000FA43F9
:10EFE0000000803DB801002000007A440000403D50
:10EFF0006666E63E0000004200000000000021407E
:10F000009DED0A0B53EC102B9DED080B51EC100BF2
:10F01000F1F72EF953EC1B2BCDE90C019DED0C0BF8
:10F0200051EC100BF1F7C5F941EC1F0BF1F742FB66
:10F03000206094ED090AD4ED060A30EE600A84EDF2
:10F04000010AFE4890ED000AF0EE080A60EE200A80
:10F050001FED181A80EE810A94ED071AC1EE000A1E
:10F0600090ED000AB2EE021A20EE010AF3EE001A49
:10F0700080EE211A94ED030A30EE410A60EE800A18
:10F0800090ED000AB0EE081A20EE010A5FED271A93
:10F0900080EE211A00EE105AB8EEC00A60EE291A6E
:10F0A00081EE810A90ED001AF2EE021A21EE211A89
:10F0B000B3EE002AC1EE021A94ED031A31EE611A82
:10F0C00040EE010A94ED0A0A0AEE200A84ED020AD3
:10F0D000E1E0DA4890ED000AF3EE050A20EE200A9E
:10F0E0005FED3C0A80EE201A94ED030AB4EEC01ADC
:10F0F000F1EE10FA7ED890ED000AF3EE0B0A20EE46
:10F10000200A5FED440A80EE201A94ED030AB4EE63
:10F11000C01AF1EE10FA6DDD94ED050AF1EE0C0A5D
:10F1200080EE201A11EE106A3046F1F77FFA41ECBA
:10F130001B0B19EE100AF1F779FA41EC1C0B00EEEB
:10F14000105AB8EEC00A20EE080A10EE101A08464F
:10F15000F1F76CFACDE90C01B84890ED000AF0EE39
:10F16000080A20EE200A1FED5D1AC0EE010A94ED98
:10F17000051A81EE200AD0ED000AB3EE051A60EE02
:10F18000810A1FED641AC0EE811AD4ED030A70EEF5
:10F19000E10A20EE200A10EE106A3046F1F746FA36
:10F1A000CDE9080194ED080AD4ED050A30EE600AB5
:10F1B00010EE101A0846F1F739FA1FED710B53ECF7
:10F1C000102BCDE904019DED040B51EC100BF1F770
:10F1D0004FF8CDE906019DED080B53EC102B9DED8A
:10F1E000060B51EC100BF1F743F8CDE90A019DED48
:10F1F0000C0B00E050E053EC102B9DED0A0B51EC92
:10F20000100BF1F735F841EC1F0B53EC1C2BF1F709
:10F210002FF841EC1D0B53EC1B2BF1F7CAF841EC16
:10F220001E0BF1F747FA2060844890ED000AF0EEDB
:10F23000080A60EE200A1FED911A80EE810A94ED13
:10F24000061AC1EE000A90ED000AB3EE051A20EE90
:10F25000011A5FED981A81EE210A94ED031A31EE3E
:10F26000401A94ED090AD4ED061A30EE610A00EE58
:10F27000810A84ED010AD4ED070A00EE105AB8EEB7
:10F28000C01AB0EE600A01EE290AD4ED0A0A4AEE6D
:10F29000000AC4ED020A94E2684890ED000AF3EE19
:10F2A0000B0A20EE200A1FEDAD1AC0EE010A94ED04
:10F2B000030AF4EEC00AF1EE10FAECD890ED000A61
:10F2C000F2EE0E0A20EE200AB3EE001AC0EE010A9A
:10F2D00094ED030AF4EEC00AF1EE10FADBDD94EDD2
:10F2E000050AF1EE0C0A80EE201A11EE106A304683
:10F2F000F1F79CF9CDE90A0119EE100AF1F796F938
:10F3000041EC1F0B00EE105AB8EEC00A20EE080ABE
:10F3100010EE101A0846F1F789F9CDE904014748C3
:10F3200090ED000AF3EE0B0A60EE200A1FEDCF1AF3
:10F3300080EE810AD4ED030A30EEC00A10EE106AA6
:10F340003046F1F773F941EC1C0B3C4890ED000A94
:10F35000F0EE080A20EE200A5FEDDA0A80EE201AAD
:10F3600011EE106A3046F1F761F941EC1E0B53ECD7
:10F370001E2B1FEDDF0B51EC100BF1F792F841EC57
:10F380001D0B53EC1C2BF1F71AF8CDE9000194ED9D
:10F39000080AD4ED050A30EE200A10EE101A0846CD
:10F3A000F1F744F941EC1C0B1FEDED0B53EC102B66
:10F3B000F0F75EFF41EC1B0B9DED000B53EC102BA7
:10F3C000F0F7F7FFCDE902019DED040B53EC102B94
:10F3D0009DED020B51EC100BF0F74AFF53EC1F2B85
:10F3E000CDE906019DED060B51EC100BF0F740FF47
:10F3F000CDE908019DED0A0B53EC102B9DED080B98
:10F4000051EC100BF0F7D5FFCDE90C019DED0C0B85
:10F4100051EC100BF1F74EF9206094ED090AD4ED90
:10F42000060A30EE200A84ED010A044890ED000A35
:10F43000F0EE080A60EE200A02E0000078030020E7
:10F440009FEDFE1A80EE810A94ED071AC1EE000AC4
:10F4500090ED000AB3EE0B1A20EE010A9FEDF71AA9
:10F46000C0EE011A94ED030A30EE611A94ED070A1A
:10F4700000EEC10AD0ED000AB0EE081A60EE810A73
:10F48000DFEDEE1A80EEA11A00EE905AF8EEE00AD7
:10F4900060EEA91AC1EE810A90ED001AF3EE0B1A84
:10F4A00021EE211ADFEDE51A81EE212A94ED031AEF
:10F4B00031EE421A00EE810AD4ED0A0A4AEE000A41
:10F4C000C4ED020AEFE2B3EE090A84ED070ADC4854
:10F4D00090ED000AF2EE0E0A60EE200AB3EE001A7A
:10F4E00080EE810AD4ED030AB4EEE00AF1EE10FAE0
:10F4F0004BD894ED030AD0ED000AB4EEE00AF1EE29
:10F5000010FA42D894ED050AD4ED030A20EE200A41
:10F51000F3EE000A20EE200AD0ED000AB1EE041A44
:10F5200020EE811AC0EE010A94ED080A94ED051A46
:10F53000F1EE001A01EE210A30EE600A30EE280AE0
:10F5400084ED000A94ED060AD4ED030A20EE200AA9
:10F55000F3EE000A20EE200AD0ED000AB1EE041A04
:10F5600020EE811AC0EE010A94ED090A94ED061A04
:10F57000F1EE001A01EE210A30EE600A84ED010A74
:10F5800094ED0A0A84ED020A8DE294ED030AB5EEC9
:10F59000C00AF1EE10FA60DBA94890ED000AF2EE25
:10F5A000020A20EE200AF3EE000A80EE201A94ED03
:10F5B000030AB4EEC01AF1EE10FA4EDD94ED050A1E
:10F5C000F1EE000A20EE200AF1EE040A80EE201A85
:10F5D00094ED080A31EE000AD4ED050A94ED031A01
:10F5E00060EE810AB3EE001A60EE810A90ED001A17
:10F5F000F1EE041A21EE211AC0EE811A30EE610AF2
:10F6000030EE280A84ED000A94ED060AF1EE000AB5
:10F6100060EE200AB1EE041A80EE810AD4ED090AE8
:10F6200070EE200A94ED060A94ED031A20EE010A0A
:10F63000B3EE001A20EE010A90ED001AF1EE041A62
:10F6400021EE211AC0EE011A30EEE10A84ED010A22
:10F6500094ED0A0A84ED020A25E2794890ED000A49
:10F66000F2EE020A60EE200AB3EE001A80EE810A82
:10F67000D4ED030AB4EEE00AF1EE10FA7ED890ED74
:10F68000000AF3EE050A20EE200A9FED6C1AC0EE88
:10F69000010A94ED030AF4EEC00AF1EE10FA6DDDF2
:10F6A00018EE900AF0F7C2FF41EC1D0B644890ED94
:10F6B000000AF2EE020A60EE200AB3EE001A80EEB3
:10F6C000810AD4ED030A30EEC00A10EE106A30460B
:10F6D000F0F7ACFFCDE90C01594890ED000AF0EECF
:10F6E000080A20EE200ADFED550A80EE201A11EEFE
:10F6F000106A3046F0F79AFFCDE908019DED080B3E
:10F7000053EC102B9FED4F0B51EC100BF0F7C9FE93
:10F71000CDE90A019DED0C0B53EC102B9DED0A0B6E
:10F7200051EC100BF0F74BFE41EC1E0B94ED080A68
:10F73000D4ED050A30EE600A10EE101A0846F0F714
:10F7400075FF41EC1C0B53EC1E2BF0F732FE41EC25
:10F750001F0B53EC1D2BF0F78BFD41EC1B0BF0F74F
:10F76000A9FF206094ED090AD4ED060A30EE600A84
:10F7700084ED010A324890ED000A00E022E0F0EE4C
:10F78000080A20EE200A9FED2D1AC0EE010A94ED22
:10F79000071A81EE200AD0ED000AB2EE021A60EEDE
:10F7A000810AB3EE001AC0EE811AD4ED030A70EE9E
:10F7B000E10A60EE200A94ED0A0A0AEEA00A84ED3E
:10F7C000020A70E11E4890ED000AF3EE050A20EEF1
:10F7D000200A9FED1A1AC0EE010A94ED030AF4EE16
:10F7E000C00AF1EE10FA7CD890ED000AF3EE0B0A95
:10F7F00060EE200A9FED111A80EE810AD4ED030A13
:10F80000B4EEE00AF1EE10FA6BDD18EE900AF0F7B4
:10F810000DFF41EC1C0B0A4890ED000AF0EE080ABF
:10F8200020EE200A9FED051AC0EE010A94ED051A9C
:10F8300081EE200AD0ED000A08E00000000000423E
:10F84000780300200000000000002140B3EE051AFC
:10F8500020EE811A5FED071AC1EE210A94ED031A1A
:10F8600071EE600A20EE200A10EE106A3046F0F7C2
:10F87000DDFECDE90C0194ED080AD4ED050A30EE69
:10F88000600A10EE101A0846F0F7D0FE41EC1F0B8C
:10F890001FED140B53EC102BF0F78BFD41EC1E0BFE
:10F8A0009DED0C0B53EC102BF0F7E2FC41EC1D0B23
:10F8B00053EC1C2BF0F7DCFC41EC1B0BF0F7FAFED1
:10F8C00020607B4890ED000AF0EE080A60EE200A06
:10F8D0001FED261A80EE810A94ED061AC1EE000A89
:10F8E00000E020E090ED000AB3EE051A20EE011AC8
:10F8F0005FED2E1A81EE210A94ED031A31EE401AC3
:10F9000094ED090AD4ED061A30EE610A00EE810A80
:10F9100084ED010A94ED0A0AD4ED070A0AEEA00A62
:10F9200084ED020ABFE0624890ED000AF3EE0B0A94
:10F9300020EE200A5FED3F0A80EE201A94ED030AC4
:10F94000B4EEC01AF1EE10FA7DD890ED000AF2EE96
:10F950000E0A20EE200AB3EE001AC0EE010A94ED62
:10F96000030AF4EEC00AF1EE10FA6CDD18EE900A0C
:10F97000F0F75CFE41EC1F0B4D4890ED000AF3EEF2
:10F980000B0A60EE200A1FED531A80EE810AD4EDB7
:10F99000030A30EEC00A10EE106A3046F0F746FE59
:10F9A00041EC1C0B424890ED000AF0EE080A20EEF4
:10F9B000200A5FED5E0A80EE201A11EE106A3046D2
:10F9C000F0F734FE41EC1D0B53EC1D2B1FED630BC8
:10F9D00051EC100BF0F765FD41EC1E0B53EC1C2BAA
:10F9E000F0F7EDFCCDE9080194ED080AD4ED050A25
:10F9F00030EE200A10EE101A0846F0F717FE41EC20
:10FA00001C0B1FED700B53EC102BF0F7D2FC41ECEC
:10FA10001B0B9DED080B53EC102BF0F729FC53EC5E
:10FA20001F2BCDE90A019DED0A0B51EC100BF0F7ED
:10FA30001FFCCDE90C019DED0C0B51EC100BF0F708
:10FA400039FE206000E02EE094ED090AD4ED060AAC
:10FA500030EE200A84ED010A154890ED000AF0EE20
:10FA6000080A60EE200A1FED8B1A80EE810A94EDE1
:10FA7000071AC1EE000A90ED000AB3EE0B1A20EE51
:10FA8000010A5FED921A80EE211A94ED030A30EE1E
:10FA9000411A94ED070A00EEC10AD4ED0A0A4AEEB3
:10FAA000800AC4ED020A0EB0BDEC108B70BD0000E0
:10FAB0007803002070B52DED108B0446B3EE0E0ACE
:10FAC000FE4880ED000AFE48D0ED000AB1EE001AB3
:10FAD00080EE810AD4ED030AB4EEE00AF1EE10FAEA
:10FAE0007DDB90ED000AF3EE000A80EE201A94ED23
:10FAF000030AB4EEC01AF1EE10FA5BDBF1480068BD
:10FB0000F0F794FD41EC190BED4890ED000AF3EE8F
:10FB1000000A80EE201A11EE105A2846F0F786FDF2
:10FB200041EC1D0B94ED030A10EE101A0846F0F795
:10FB30007DFD41EC1F0B9FEDE40B53EC102BF0F718
:10FB40003EFC41EC1E0B53EC1D2BF0F7AAFC41ECE4
:10FB50001B0B94ED080AD4ED050A30EE600A10EE96
:10FB6000101A0846F0F762FD41EC1C0B53EC1B2BFE
:10FB7000F0F77EFB41EC1A0B53EC192BF0F778FBF6
:10FB800041EC180BF0F796FD2060CD48D0ED000A4F
:10FB9000B3EE001A80EE810AD4ED070A94ED031A41
:10FBA00060EE810A80EE801A94ED0A0A31EE000AB6
:10FBB00084ED020AC24890ED000AF3EE000A80EEDE
:10FBC000201A94ED030AB4EEC01AF1EE10FA66D2D0
:10FBD00090ED000AF0EE080A20EE200A00E011E1A4
:10FBE000B3EE001AC0EE010A94ED030AF4EEC00A67
:10FBF000F1EE10FA53DBB3480068F0F717FD41EC63
:10FC0000190BAF4890ED000AF3EE000A80EE201ABF
:10FC100094ED030A30EE410AD4ED050AB0EE001A65
:10FC200060EE810A20EE200AD0ED000AB2EE001A42
:10FC3000C0EE811AC0EE210A10EE905A2846F0F765
:10FC4000F5FC41EC1B0B94ED080AD4ED050A30EEEF
:10FC5000600A10EE101A0846F0F7E8FC41EC1D0BA4
:10FC60009FED990B53EC102BF0F702FB41EC1C0BB2
:10FC700053EC1B2BF0F7FCFA41EC1A0B53EC192B4D
:10FC8000F0F7F6FA41EC180BF0F714FD206094ED54
:10FC90000A0AD4ED070A30EE200A84ED020A8848E9
:10FCA00090ED000AF0EE080A20EE200AF3EE000ABA
:10FCB00080EE201A94ED030AB4EEC01AF1EE10FAA9
:10FCC0007DD280480068F0F7B1FC41EC190B7C480C
:10FCD00090ED000AF3EE000A80EE201A11EE105AA1
:10FCE0002846F0F7A3FC41EC1D0B754890ED000A87
:10FCF000F0EE080A60EE200AB3EE001A80EE810AE8
:10FD0000D4ED030A30EEC00A10EE105A2846F0F780
:10FD10008DFC41EC1F0B9FED6C0B53EC102BF0F79F
:10FD20004EFB41EC1E0B53EC1D2BF0F7BAFB41ECE4
:10FD30001B0B94ED080AD4ED050A30EE200A10EEF4
:10FD4000101A0846F0F772FC41EC1D0B9FED5E0B9C
:10FD500053EC102BF0F78CFA41EC1C0B53EC1B2BE3
:10FD6000F0F727FB41EC1A0B53EC192BF0F780FA54
:10FD700041EC180BF0F79EFC2060514890ED000A12
:10FD8000F0EE080A60EE200AB3EE001A80EE810A57
:10FD9000D4ED030A30EEC00AD4ED070A20EE200AA3
:10FDA000D0ED000AF3EE001A80EEA11AC0EE010AAF
:10FDB00094ED0A0A94ED071A30EE010A00E003E020
:10FDC00030EE600A84ED020A3D4890ED000AB1EE83
:10FDD000001AC0EE010A94ED060AB0EE001A20EEF9
:10FDE000010A94ED031A20EE011A81EE200AD4EDE7
:10FDF000090A94ED061A70EEC10A30EE200A84ED6D
:10FE0000010A5AE02E4890ED000AF1EE000A80EE59
:10FE1000201A94ED030A30EE410AD4ED050AB0EE43
:10FE2000001A60EE810A20EE200AD0ED000AB0EE42
:10FE3000081A20EE811AF1EE001AC1EE210A80EEB6
:10FE4000201A94ED080AD4ED050A30EE200A30EEAF
:10FE5000410A1C48D0ED000A30EE200A84ED000A69
:10FE6000174890ED000AF1EE000A80EE201A94ED9A
:10FE7000030A30EE410AD4ED060AB0EE001A60EE35
:10FE8000810A20EE200AD0ED000AB0EE081A60EEDA
:10FE9000810AB1EE001AC0EE811AC0EE210A94ED7B
:10FEA000090A94ED061A30EE010A30EE600A84ED7C
:10FEB000010A94ED0A0A84ED020A09E0B801002063
:10FEC0007803002008060020000000000000214008
:10FED000BDEC108B70BD00001CB501210220F3F7B2
:10FEE00029FB4FF44070009001208DF804008DF83C
:10FEF000060003208DF8050069460248F2F730FA43
:10FF00001CBD0000000402402DE9F04105460F46EB
:10FF100014461E46F2F7A0FE10B90020BDE8F0819D
:10FF2000002141EA4501C8B2F2F75AFEF2F7EAFEB3
:10FF300018B9F2F7C7FE0020F0E73846F2F750FE96
:10FF4000F2F7E0FEF2F788FE012101EB4501C8B2AD
:10FF5000F2F746FEF2F7D6FE0CE0F2F709FE30703B
:10FF6000012C02D1F2F7E2FD01E0F2F7BDFD761CB3
:10FF7000601EC4B2002CF0D1F2F7A4FE0120CDE740
:10FF800070B504460D461646F2F766FE08B9002025
:10FF900070BD002141EA4401C8B2F2F721FEF2F738
:10FFA000B1FE18B9F2F78EFE0020F1E72846F2F70D
:10FFB00017FEF2F7A7FE3046F2F712FEF2F7A2FEA6
:10FFC000F2F780FE0120E3E72DE9F04105460E46F9
:10FFD00017469846F2F740FE10B90020BDE8F081C0
:10FFE000002141EA4501C8B2F2F7FAFDF2F78AFEB4
:10FFF00018B9F2F767FE0020F0E73046F2F7F0FD9F
:020000040801F1
:10000000F2F780FE00240BE018F80400F2F7E8FD98
:10001000F2F778FE18B9F2F755FE0020DEE7641C0F
:10002000BC42F1DBF2F74EFE0120D7E72DE9F041AB
:1000300004460D4616461F463B4632462946204694
:10004000FFF762FF10B10020BDE8F0814FF0FF30F4
:10005000FAE72DE9F04104460D4616461F463B4699
:10006000324629462046FFF7AFFF10B10020BDE819
:10007000F0814FF0FF30FAE700B58FB00F226946EC
:100080005548F4F7CFF80098963054490860544921
:1000900001980860534902980860039896385249BD
:1000A000086052490498086051490598086006980C
:1000B0009638504908605049079808604F49089899
:1000C0000860099896304E4908604E490A980860C1
:1000D0004D490B9808609DED0C0AB8EE400ADFED23
:1000E0004B0A80EE201A9FED4A0A31EE400A494839
:1000F00080ED000A9DED0D0AB8EE400ADFED430ADF
:1001000080EE201A9FED420A31EE400A424880ED0F
:10011000000A42490E980860002041490860012009
:10012000404908703D480068012823D09FED3E0AF1
:10013000384880ED000A9FED3C0A374880ED000A00
:1001400040F2FF702549086025490860254908608C
:100150002549086025490860254908602549086047
:100160002549086025490860254908602549086037
:1001700025490860194800882C494880184800889B
:100180002B494880174800882A494880164800882B
:100190002949488015480088284948801448008823
:1001A000274948801348008826494880124800881B
:1001B0002549488011480088244948801048008813
:1001C000234948800F480088224948800E4800880B
:1001D000214948800FB000BD000004081000002035
:1001E00014000020180000201C0000202000002027
:1001F00024000020280000202C00002030000020D7
:1002000034000020380000203C00002000007A4428
:100210000000B443B4050020B8050020740300209A
:1002200070030020F80100200000000040000020C2
:100230004C000020580000206400002070000020C6
:100240007C0000208800002094000020A0000020F6
:10025000AC000020B8000020C400002070B50546A6
:10026000284600F00FF80446E81C00F00BF844EABA
:10027000C00084B2A81D00F005F844EA801084B2E2
:10028000204670BD014691F90020002A01DD0020C2
:100290001EE091F90020002A01DA042018E091F90B
:1002A0000120002A01DD012012E091F90120002A3D
:1002B00001DA05200CE091F90220002A01DD02207C
:1002C00006E091F90220002A01DA062000E007206A
:1002D0007047000008B5F0F741FEFE4803F06AFEE3
:1002E000FD4803F067FEFD4803F064FEFC4803F0A0
:1002F00061FEFC48F3F76EF9E5E2FB480078A8B32D
:10030000F6F76AF9FAF754F8F84890ED000ADFEDCD
:10031000F80AB4EEE00AF1EE10FA08D390ED000A04
:10032000DFEDF40AB4EEE00AF1EE10FA1BDDEF485F
:1003300090ED000AB5EEC00AF1EE10FA08DD90ED7E
:10034000000ADFEDED0A30EEC00A80ED000A0AE097
:10035000E64890ED000ADFEDE80A30EE200AB1EE43
:10036000400A80ED000A0020DF490870E348007869
:1003700000287DD0E2480088401CE1490880FCF755
:1003800073FAF9F707FFF6F751FDDE480078002809
:100390006FD0DC48007801286CD1DB48007828B9A0
:1003A000DA48007810B9DA480078A8B10020D949B5
:1003B0000870D9490870F3F781F9FCF7F9F8C548D6
:1003C00003F0F8FDC44803F0F5FDC44803F0F2FD66
:1003D000C34803F0EFFD87E0D048006870B1FAF73A
:1003E00087FEBC48FDF7E2FFBB48FDF7DFFFBB48D7
:1003F000FDF7DCFFBA48FDF7D9FF75E0C84890ED7E
:10040000000AB5EEC00AF1EE10FA17D1C54890ED1A
:10041000000AB5EEC00AF1EE10FA0FD1C24890ED15
:10042000000AB5EEC00AF1EE10FA07D1BF4890ED10
:10043000000AB5EEC00AF1EE10FA42D0FAF758FE03
:10044000BB48007830BBBB4890ED000ADFEDBA0A2C
:10045000B4EEE00AF1EE10FA10DB9E48FEF7B2FBB4
:100460009D48FEF7AFFB9D48FEF7ACFB9C4802E0C1
:1004700000E2FCE147E0FEF7A5FB0BE09548FEF744
:1004800099F89548FEF796F89448FEF793F8944843
:10049000FEF790F8A648007801280FD1F2F7FAFC91
:1004A000F3F70CF98B48FFF705FB8B48FFF702FBCE
:1004B0008A48FFF7FFFA8A48FFF7FCFA03F05EFB71
:1004C00012E0002093490870F3F7F8F8FCF770F891
:1004D000804803F06FFD804803F06CFD7F4803F017
:1004E00069FD7F4803F066FD7A48FBF7CDF87A484E
:1004F000FBF7B0FA7948FBF791FC7948FBF772FEFD
:1005000003F092FDB3E17F480078022810D1F3F7A1
:10051000D5F87048FBF7B8F86F48FBF79BFA6F48BF
:10052000FBF77CFC6E48FBF75DFE03F07DFD9EE172
:10053000744800780328E5D103F076FD7F48007801
:10054000012834D17E48C0887E4908607E48C08832
:100550007E4908607E48C0887E4908607E48C08821
:100560007E4908607E48C0887E4908607E48C08811
:100570007E4908607E48C0887E4908607E48C08801
:100580007E4908607E48C0887E4908607E48C088F1
:100590007E4908607E48C0887E4908607E48C088E1
:1005A0007E49086001207E49086001F053FB6348E2
:1005B000007802287ED163480068A0F58060009032
:1005C0006048036803F58063FF22002175480078C6
:1005D000F0F79EFF5A4948805C48006800F580604B
:1005E00000905A480068A0F58063FF2200216E4801
:1005F0000078F0F78DFF5449488056480068A0F213
:10060000AA2000905348036803F2AA23FF22002186
:1006100066480078F0F77CFF4D4948804F480068F5
:1006200000F5806000904D480068A0F58063FF22CF
:1006300000215F480078F0F76BFF47494880494840
:100640000068A0F5806000904648036803F5806369
:10065000FF22002157480078F0F75AFF40494880B0
:100660004248006800F2AA20009040480068A0F2CA
:10067000AA23FF22002150480078F0F749FF3A49A9
:1006800048803C48006800F5806000903948006868
:10069000A0F58063FF22002148480078F0F738FF7A
:1006A0003349488035480068A0F5806000903348A1
:1006B000036800E0C6E003F58063FF2200214048A4
:1006C0000078F0F725FF2C4948802E480068A0F2FA
:1006D000AA2077E0E800002018010020480100204F
:1006E000780100205407002071020020D806002065
:1006F0000000F0C20000F04200003443720200200B
:100700007C020020F8010020650300206603002021
:1007100067030020640300206C030020AC0200206B
:10072000B0020020B4020020B8020020BC02002069
:1007300000060020780300200080D4440000002040
:1007400040000020100000204C0000201400002079
:100750005800002018000020640000201C00002029
:1007600070000020200000207C00002024000020D9
:100770008800002028000020940000202C00002089
:10078000A000002030000020AC0000203400002039
:10079000B800002038000020C40000203C000020E9
:1007A0007403002043020020440200204502002080
:1007B0004602002047020020480200204902002093
:1007C0004A02002000904048036803F2AA23FF2257
:1007D00000213E480078F0F79BFE3D4948803D48A7
:1007E0000068A0F5806000903A48036803F58063D4
:1007F000FF22002138480078F0F78AFE3749488008
:100800003748006800F58060009035480068A0F522
:100810008063FF22002133480078F0F779FE3249E7
:1008200048803248006800F2AA2000902F480068F3
:10083000A0F2AA23FF2200212D480078F0F768FEDD
:100840002C4948802C48007803280DD12B4890ED86
:10085000000A2B4880ED000A2A4890ED000A2A4839
:1008600080ED000A01F068FA00202349087000209A
:10087000264908702648007840B1F0F7E1FDF0F70E
:1008800031FC03F0A5FB00202149087021480078C5
:1008900030B1F3F76DFDF0F753FF00201D490870EC
:1008A0001D48007878B1F1F763FE1348007828B14D
:1008B0001A4890ED000A1A48F1F7AAFCF2F792FCE8
:1008C00000201549087018E5300000204B02002078
:1008D000A0000020340000204C020020AC000020CA
:1008E000380000204D020020B80000203C0000200D
:1008F0004E020020C400002000000020080000205C
:10090000B80500200C000020B40500207202002071
:10091000700200206F02002075020020DC0200201F
:100920000100002070B50446002624F00104184898
:1009300090F8240008B1002070BD1548807A10B9E5
:100940004FF0FF30F8E71248057C807A20401049CC
:1009500008740846007CA04202D04FF0FF3600E049
:10096000002614B90A48007D18B1012001F014FADC
:1009700002E0002001F010FA3CB100F009FB20B1C8
:10098000034805744FF0FF30D6E73046D4E7000047
:100990009806002001461148407A30B1012807D05E
:1009A000022808D003280CD108E0022008700BE0D0
:1009B0000420087008E00820087005E01020087086
:1009C00002E04FF0FF30704700BF0448C07C18B110
:1009D00008784006000E08700020F4E79806002012
:1009E00001461348407A30B1012808D002280AD0C5
:1009F000032810D10BE04FF4804008800EE041F650
:100A00009C7008800AE04FF48050088006E04FF4A4
:100A10000060088002E04FF0FF30704700BF0448DC
:100A2000C07C10B10888401008800020F5E7000065
:100A30009806002001460248007C0870002070479C
:100A40009806002001460F48007A30B1012807D0EF
:100A5000022809D003280FD10AE0FA2008800EE00E
:100A60004FF4FA7008800AE04FF47A70088006E0CC
:100A70004FF4FA60088002E00020088000BF00BF49
:100A8000002070479806002001461248007A30B1D5
:100A9000012809D002280CD0032814D10EE09FEDC4
:100AA0000E0A81ED000A11E09FED0C0A81ED000AAB
:100AB0000CE09FED0B0A81ED000A07E09FED090AAB
:100AC00081ED000A02E04FF0FF30704700BF0020C8
:100AD000FBE700009806002000000343000083426B
:100AE000333303423333834101461248C07A082826
:100AF00017D2DFE800F01704070A0D101318BC2006
:100B0000088013E06220088010E02A2008800DE0B1
:100B1000142008800AE00A20088007E005200880E9
:100B200004E000BF00BF0020088000BF00BF00201D
:100B300070470000980600200146064890F82400FF
:100B400010B14FF0FF3070470248C0890880002084
:100B5000F9E70000980600201CB580208DF8000001
:100B6000454A1268517D444A526810786B4601220A
:100B7000FFF76FFA10B14FF0FF301CBD0320F8F7FC
:100B8000B1FC00208DF800003B4A1268517D3A4AC2
:100B9000526810786B460122FFF75BFA10B14FF0F4
:100BA000FF30EAE748208DF80000334A1268117AD6
:100BB000314A526810786B460122FFF74AFA10B1A9
:100BC0004FF0FF30D9E7FF212B488172FF202A49DF
:100BD0000872FF2128484172C1724FF6FF71C1812E
:100BE000FF21017481744FF6FF71018501210173AA
:100BF00080F82210002180F823104175017516300D
:100C0000016041608160163880F8241080F825105A
:100C1000C1844FF4FA6000F055FC10B14FF0FF3082
:100C2000ABE7022000F0EEFA10B14FF0FF30A4E77E
:100C30002A2000F0C1FC10B14FF0FF309DE73220B8
:100C400000F0FCFC10B14FF0FF3096E70020FFF7FA
:100C500069FE10B14FF0FF308FE701F0EBF80A208A
:100C600000F0B8FB10B14FF0FF3086E7002000F035
:100C70003FFD002081E70000980600202DE9F043A9
:100C800085B005460E4690469946294890F82500BD
:100C900020B14FF0FF3005B0BDE8F08316B94FF03A
:100CA000FF30F8E7002423E0281B102801DD102086
:100CB00000E0281B87B232193946204600F0CCFDEF
:100CC00010B14FF0FF30E6E701AA3946204600F0A8
:100CD0001FF910B14FF0FF30DDE730193A4601A996
:100CE000EFF7B9FA10B16FF00100D4E7E01984B260
:100CF000AC42D9DB4FEA28208DF8000008F0FF0055
:100D00008DF801000A4A1268517F094A526810782A
:100D10006B460222FFF79DF910B14FF0FF30BAE7A2
:100D20000121034880F82510A0F826900020B2E7A2
:100D30009806002038B50446282C02DD4FF0FF301D
:100D400038BDDCB9002000F001FC00208DF8000067
:100D500007208DF801003D4A1268517D3B4A5268D8
:100D600010786B460222FFF774F910B14FF0FF3094
:100D7000E6E70021354801750020E1E7012000F099
:100D8000E5FB012C03D102208DF8000033E0022C9A
:100D900003D103208DF800002DE0052C03DC042096
:100DA0008DF8000027E00A2C03DC05208DF80000F8
:100DB00021E0142C03DC06208DF800001BE0282C19
:100DC00003DC07208DF8000015E0502C03DC082020
:100DD0008DF800000FE0A02C03DC09208DF8000046
:100DE00009E0B4F5A07F03DC0A208DF8000002E0E2
:100DF0000B208DF80000154A1268517A134A526888
:100E000010786B460122FFF724F910B14FF0FF3044
:100E100096E720208DF800000C4A1268517D0B4A9D
:100E2000526810786B460122FFF713F910B14FF0AA
:100E3000FF3085E7082105488172002101730121F7
:100E400001750020FFF76EFD002079E7980600206D
:100E5000F8B504460F4616462C4890F8240010B901
:100E60004FF0FF30F8BD2948807A10B94FF0FF30BD
:100E7000F8E7264A1268117B244A526810786B46BC
:100E80000222FFF7D3F810B14FF0FF30EAE79DF8E8
:100E900001009DF8001040EA0125A54203DA002078
:100EA0003070401EDEE7194840684088B5EB600F9F
:100EB00017DD164A1268D17C144A526810786B46C6
:100EC0000122FFF7B3F810B14FF0FF30CAE79DF8E9
:100ED000000000F0100020B100F05AF86FF001009F
:100EE000C0E7E2B2094B1B68597B084B5B68187876
:100EF0003B46FFF79BF810B14FF0FF30B2E795FB90
:100F0000F4F0401E30700020ACE70000980600208E
:100F1000F8B504460D46164616B94FF0FF30F8BD39
:100F20001A48807A10B94FF0FF30F8E720128DF898
:100F30000000E0B28DF801009DF80100284413493B
:100F400049684989884202DD4FF0FF30E7E70F4AE0
:100F50001268D17E0D4A526810786B460222FFF764
:100F600078F810B14FF0FF30D9E7EAB2074B1B68B1
:100F7000197E064B5B6818783346FFF757F810B1B7
:100F80004FF0FF30CBE70020C9E7000098060020B3
:100F900008B57048807A10B94FF0FF3008BD0020C6
:100FA00000906C4A1268517C6A4A526810786B460D
:100FB0000122FFF74EF810B14FF0FF30EEE7654A1F
:100FC00012685179634A526810786B460122FFF724
:100FD00040F810B14FF0FF30E0E75E4A1268117937
:100FE0005C4A526810786B460122FFF732F810B164
:100FF0004FF0FF30D2E7574890F82400002853D034
:101000000C200090534A12681179524A52681078A5
:101010006B460122FFF71DF810B14FF0FF30BDE71E
:101020000120F8F75FFAC02000904A48807A00F06B
:10103000010020B19DF8000040F020000090454ADA
:1010400012681179434A526810786B460122FFF703
:1010500000F810B14FF0FF30A0E73E48407C10B1DF
:101060000220009001E0002000903A4A1268517C72
:10107000384A526810786B460122FEF7EAFF10B139
:101080004FF0FF308AE700200090324A1268517911
:10109000304A526810786B460122FEF7DAFF0028CA
:1010A00055D04FF0FF3079E704200090294A1268AC
:1010B0001179284A526810786B460122FEF7C9FF61
:1010C00010B14FF0FF3069E72248807C20B92148F9
:1010D000807A00F0010010B94020009001E060200B
:1010E00000901C4A126811791A4A526810786B46AF
:1010F0000122FEF7AEFF10B14FF0FF304EE70120A6
:10110000F8F7F0F91348407C10B10120009001E09D
:10111000002000900F4A1268517C0E4A52681078E5
:101120006B460122FEF795FF10B14FF0FF3035E717
:10113000084A12685179074A52681078054B1033F3
:101140000122FEF786FF10B14FF0FF3026E70020A6
:1011500024E70000980600202DE9F04186B00746FC
:101160008846274890F8240020B1002000F062F95A
:10117000012400E0002403A8FFF764FC05A8FFF7A2
:1011800009FC01A8FFF7B0FC02A8FFF7D5FC1C483A
:10119000867A04A8FFF74EFC002241463846F9F74C
:1011A0006FFD0725FF2016490872FF211448417280
:1011B000C1724FF6FF71C181FF218172017401215B
:1011C0000173BDF80C0000F07DF99DF8140000F0EB
:1011D00019F8BDF8040000F0EFF9BDF8080000F0C0
:1011E0002DFA304600F084FA9DF81000FFF79AFBC4
:1011F00014B1012000F01EF9284606B0BDE8F081C8
:101200009806002038B504461E48807A10B94FF081
:10121000FF3038BD022C06D0042C07D0082C08D093
:10122000102C0CD108E0002000900BE0082000906A
:1012300008E01020009005E01820009002E04FF038
:10124000FF30E6E700BF0F48407A9DF80010B0EB92
:10125000E10F01D10020DCE70A4A1268D179094A7E
:10126000526810786B460122FEF7F3FE10B14FF082
:10127000FF30CEE79DF80000C11002484172002007
:10128000C7E700009806002038B504465048807C27
:10129000A04201D1002038BD002C46D04C4A126833
:1012A00011794B4A526810786B460122FEF7BEFE58
:1012B00010B14FF0FF30EEE79DF8000020F0200065
:1012C0000090434A12681179414A526810786B467F
:1012D0000122FEF7BEFE10B14FF0FF30DBE7032026
:1012E000F8F700F902200090394890F8220020B168
:1012F0009DF8000040F080000090354890F82300F1
:1013000020B19DF8000040F030000090304A126893
:10131000D17D2F4A526810786B460122FEF799FE64
:10132000002851D04FF0FF30B5E7294A12681179F3
:10133000274A526810786B460122FEF777FE10B1FB
:101340004FF0FF30A7E72248807A00F0010028B173
:101350009DF8000040F02000009004E09DF800009F
:1013600020F0200000901A4A12681179184A526839
:1013700010786B460122FEF76CFE10B14FF0FF3083
:1013800089E70320F8F7AEF8114890F8220010B171
:101390008020009001E0002000900D4890F823008C
:1013A00020B19DF8000040F030000090084A12681B
:1013B000D17D074A526810786B460122FEF749FE3C
:1013C00010B14FF0FF3066E701488474002062E7F7
:1013D0009806002038B504462CB11548C089A042B3
:1013E00001DB642C02DD4FF0FF3038BD1048C089AE
:1013F00090FBF4F0401EC0B200900D4A126892F8C3
:1014000024100B4A526810786B460122FEF721FE29
:1014100010B14FF0FF30E8E70548C1899DF80000A2
:10142000401C91FBF0F081B2014801850020DCE70F
:101430009806002038B50446214890F82400A042C0
:1014400001D1002038BD24B31D4890F8250010B903
:101450004FF0FF30F6E7002000F09EFC0020FFF781
:1014600013FF1749C88C00F0E9F8002000901449D8
:10147000496808786B4601222321FEF7EAFD012125
:101480000F4880F82410012000F086FCFFF780FD53
:1014900013E0002000F080FC0948007C009008491F
:1014A000496808786B4601222321FEF7D2FD00210E
:1014B000034880F82410FFF76BFD0020C2E700000E
:1014C0009806002038B504461F48807A10B94FF0BE
:1014D000FF3038BDFA2C09D0B4F5FA7F09D0B4F545
:1014E0007A7F09D0B4F5FA6F0CD108E000200090A3
:1014F0000BE00820009008E01020009005E0182084
:10150000009002E04FF0FF30E3E700BF0E48007AA2
:101510009DF80010B0EBE10F01D10020D9E70A4A95
:1015200012689179084A526810786B460122FEF7DA
:1015300090FD10B14FF0FF30CBE79DF80000C010D8
:10154000014908720020C4E79806002038B5044617
:10155000184890F82300A04201D1002038BD14B1F2
:101560003020009001E0002000901248807C20B1E3
:101570009DF8000040F0020000900E4890F8220014
:1015800020B19DF8000040F080000090094A1268E8
:10159000D17D084A526810786B460122FEF759FD4A
:1015A00010B14FF0FF30D9E7024880F82340002007
:1015B000D4E700009806002038B504461E48807A1B
:1015C00010B94FF0FF3038BDBC2C02DB0120009079
:1015D00015E0622C02DB0220009010E02A2C02DBD6
:1015E000032000900BE0142C02DB0420009006E0A6
:1015F0000A2C02DB0520009001E0062000900E4836
:10160000C07A9DF80010884201D10020DBE70A4A29
:1016100012689178084A526810786B460122FEF7EA
:1016200018FD10B14FF0FF30CDE79DF800100248D3
:10163000C1720020C7E700009806002038B50446B4
:101640002A48807A10B94FF0FF3038BD274890F80B
:10165000240010B14FF0FF30F7E72448007D50B16F
:1016600034B1282C04DCE0B2FFF764FB0020ECE787
:101670000020FFF75FFB042C01DA042404E0B4F53A
:101680007A7F01DD4FF47A744FF47A7090FBF4F0B6
:10169000401EC0B20090154A12685178134A526831
:1016A00010786B460122FEF7D4FC10B14FF0FF30EA
:1016B000CBE79DF80000401C4FF47A7191FBF0F0ED
:1016C00081B20A48C1810146098D642902DA0146C6
:1016D000098D00E064210846FFF77CFE0349C989B3
:1016E0004810FFF769FF0020AFE7000098060020D0
:1016F0001CB5044604F0700010B10120019005E013
:1017000014B10020019001E040200190514A12687C
:10171000517D504A5268107801AB0122FEF799FCC6
:1017200020B100214B488172481E1CBD9DF8040069
:1017300020F04001474801730020019004F0400070
:1017400020B99DF8040040F00400019004F020004E
:1017500020B99DF8040040F00200019004F0100050
:1017600020B99DF8040040F00100019004F0080049
:1017700020B99DF8040040F038000190354A126805
:10178000917D344A5268107801AB0122FEF761FC6A
:1017900020B100212F488172481EC6E724B1082CD1
:1017A00002D00020FFF7D2FE2A4A12681179294A96
:1017B000526810786B460122FEF738FC10B14FF0EA
:1017C000FF30B2E704F0010038B1112001909DF81C
:1017D000000040F02000009006E0102001909DF8ED
:1017E000000020F0200000901A4890F8240028B152
:1017F0009DF8000040F08000009004E09DF800009B
:1018000020F080000090134A126892F82610114AC6
:101810005268107801AB0122FEF71BFC10B14FF0AB
:10182000FF3082E70B4A126811790A4A5268107831
:101830006B460122FEF70DFC10B14FF0FF3074E74C
:1018400004488472002101753220F7F74BFE002016
:101850006BE7000098060020F8B504460D461646D2
:1018600016B94FF0FF30F8BD1A48807A10B94FF022
:10187000FF30F8E720128DF80000E0B28DF801008B
:101880009DF801002844134949684989884202DDCE
:101890004FF0FF30E7E70F4A1268D17E0D4A5268D9
:1018A00010786B460222FEF7D4FB10B14FF0FF30E8
:1018B000D9E7EAB2074B1B68197E064B5B681878BC
:1018C0003346FEF7C6FB10B14FF0FF30CBE70020E8
:1018D000C9E700009806002010B50246134609B972
:1018E000012010BD002003E002FB03F4E2B2401C23
:1018F0004C1E8442F8DC1046F3E7000010B54FF4AC
:10190000167000F091FA80200849088001200849EB
:1019100008705020074908708020074908706E2021
:101920000649087060200649087010BD6802002052
:10193000F80100201D0200201E0200201F020020CE
:101940002102002038B504460D4602236A46294686
:101950002046F2F75FFB002038BD000099200449C3
:1019600008700449087004490870044908707047F9
:101970002D02002030020020330200203602002019
:1019800018480078184908701848007818490870F5
:1019900018480078184908701848007818490870E5
:1019A00018480078184908701848007818490870D5
:1019B00018480078184908701848007818490870C5
:1019C00018480078184908701848007818490870B5
:1019D00018480078184908701848007818490870A5
:1019E000704700005B020020430200205C020020E0
:1019F000440200205D020020450200205E0200201B
:101A0000460200205F020020470200206002002002
:101A100048020020610200204902002062020020EA
:101A20004A020020630200204B02002064020020D2
:101A30004C020020650200204D02002066020020BA
:101A40004E02002010B588B002A905A8FFF784FB5C
:101A50000446072C3FD101A8FFF716F89DED050AB3
:101A6000B8EEC00ADDED010A20EE200ABDEEC00A84
:101A70008DED050A9DED060AB8EEC00ADDED010AFE
:101A800020EE200ABDEEC00A8DED060A9DED070A84
:101A9000B8EEC00ADDED010A20EE200ABDEEC00A54
:101AA0008DED070A05A8F8F771F86846FEF798FF6C
:101AB000BDF80010029848430290BDF8001003984A
:101AC00048430390BDF8001004984843049002A8CE
:101AD000F7F78CFF00BF08B010BD000070B50546D9
:101AE0000E4600BF40210D48F4F7C6FB0128F9D18E
:101AF000002410E0295D0948F4F795FC295D0848A9
:101B0000F4F791FC00BF40210448F4F7B5FB00282E
:101B1000F9D0601CC4B2B442ECDB70BD004400409C
:101B20000014014010B5C0B000243048408800289F
:101B300059DD55208DF8000000208DF801002B485C
:101B400080780830C0B28DF8020012208DF80300B2
:101B5000264840788DF804009DF802009DF8031097
:101B600008449DF804100844C1B220484088401D34
:101B70000DF8001000BF15E01C48001D015D601D40
:101B80000DF8001019484088401D1DF80010601D18
:101B90001DF800000844C1B214484088401D0DF8EB
:101BA0000010641C11484088A042E5DC0F484088C2
:101BB000401D1DF80000C043C1B20C484088401DC4
:101BC0000DF80010002109484088801D0DF8001014
:101BD000AA2106484088C01D0DF800109DF802108B
:101BE0006846FFF77BFF40B010BD000030120020B8
:101BF0000EB555208DF8000000208DF80100092059
