:020000040800F2
:10000000881800209D010008AF010008B101000818
:10001000B3010008B5010008B701000800000000A6
:10002000000000000000000000000000B90100080E
:10003000BB01000800000000BD0100085156000887
:10004000C1010008C1010008C1010008C101000888
:10005000C1010008C1010008C1010008C101000878
:10006000C1010008C1010008C1010008C101000868
:10007000C1010008C1010008C1010008C101000858
:10008000C1010008C1010008C1010008C101000848
:10009000C1010008C1010008C1010008F11A0008EF
:1000A000C1010008C1010008C1010008C101000828
:1000B0000D580008C1010008C1010008C101000875
:1000C000C1010008C1010008C1010008C101000808
:1000D000C1010008095B0008315E0008F55E0008F8
:1000E000C1010008C1010008C1010008C1010008E8
:1000F000C1010008C1010008C1010008C1010008D8
:10010000C1010008C1010008C1010008C1010008C7
:10011000C1010008C1010008C1010008C1010008B7
:10012000C1010008C1010008C1010008C1010008A7
:10013000C1010008C1010008C1010008C101000897
:10014000C1010008C1010008C1010008C101000887
:10015000C1010008C1010008C1010008C160000818
:10016000C1010008C1010008C1010008C101000867
:10017000C1010008C1010008C1010008C101000857
:10018000C1010008C1010008DFF80CD000F00CFC30
:1001900000480047DD02010888180020094801686E
:1001A00041F4700101600848804708480047FEE7B5
:1001B000FEE7FEE7FEE7FEE7FEE7FEE7FEE7FEE717
:1001C000FEE7000088ED00E0B15700088901000853
:1001D0002DE9F0410024061B254671F1000605DAE1
:1001E00001240027D0EB070067EB0101161E73F115
:1001F000000605DA0027D2EB0702012567EB0303AF
:1002000000F074FA86460E4617469C46AC4204D06F
:100210000025D0EB050E65EB010624B10020D2EBE2
:10022000000760EB030C704631463A466346BDE872
:10023000F081D2B201E000F8012B491EFBD27047D9
:100240000022F6E710B513460A4604461946FFF7A2
:10025000F0FF204610BD30B504460020034600E004
:100260005B1C934203D2E05CCD5C401BF8D030BDF8
:100270002DE9FE4F804681EA0300C00F0C46009036
:1002800021F0004123F00045B8EB0200A94105D25E
:100290004046214690461C460B46024623F000404D
:1002A000104347D0270DC7F30A00C3F30A51029049
:1002B000401A019040286BDAC3F3130040F4801B0E
:1002C0000098924620B10023D2EB030A63EB0B0B9C
:1002D00001985946C0F14002504600F038FA0646EF
:1002E0000D4650465946019A00F050FA10EB0800AE
:1002F0006141002487EA115284EAE7731A4340D02F
:10030000009A62B3019A012A4FEA075215DC001BDA
:1003100061EB02014FF0004202EA0752CDE90042D0
:10032000001C41F5801132462B4600F087FA03B0DD
:10033000BDE8F08F40462146F9E7001B61EB020162
:10034000001C41F5801300185B412018A2F500172E
:1003500047EB030140EAD570B6196D4111E06D0815
:100360004FEA360645EAC0754FEA0752001B61EBBB
:100370000201001C41F5801149084FEA30000019C4
:10038000514132462B4603B0BDE8F04F00F047BA6A
:100390000098012240000023D0EB020263EBE073DF
:1003A000009821464FEAE074B8EB000061EB0401CD
:1003B000E9E783F000435BE781F0004158E72DE96E
:1003C000FE4F81EA030404F0004421F00041009450
:1003D0004FF0000B23F0004350EA01045ED052EAD4
:1003E00003045BD0C3F30A54C1F30A552C44A4F2AE
:1003F000F3340194A0FB0254C1F3130141F48011C2
:10040000C3F3130343F4801301FB024400FB034EC8
:10041000840A970A44EA815447EA8357A4FB076891
:1004200002958D0A05FB07854FEA932C04FB0C54BB
:100430002705029D4FEA065847EA1637B5EB08052F
:100440006EEB070C870E920E47EA811742EA831281
:10045000A7FB0201B6EB0B0164EB00042B0D43EA92
:100460000C335E1844EB1C50DA465146E7FB0201A0
:10047000C5F313044FEA0B3343EA14534FEA043233
:10048000019C43EA0603A4F10C040294009CCDE90C
:1004900000B400F0D3F903B0BDE8F08F00200146AE
:1004A000F9E72DE9F04D81EA030404F0004B21F057
:1004B000004514464FF0000A23F0004150EA0502BF
:1004C00020D054EA01021DD0C5F30A570246C5F3F5
:1004D0001303C1F31300C1F30A5640F4801543F42B
:1004E0008013A7EB0608101BD64608F2FD3873EB05
:1004F000050002D308F1010801E092185B41B8F150
:10050000000F03DA00200146BDE8F08D00204FF413
:100510008011064684460EE0171B73EB050705D3D2
:10052000121B63EB050306434CEA010C49084FEA32
:10053000300092185B4150EA0107EDD152EA030006
:1005400012D082EA040083EA0501084305D0101B9B
:10055000AB4106D20122002306E000224FF0004307
:1005600002E06FF0010253101AEB06004CEB085149
:1005700010EB0A0041EB0B01BDE8F04D00F04FB964
:100580000EB5C10F80EAE0700844CA07002140F2AE
:1005900033438DE80E000A460B4600F04FF903B0D6
:1005A00000BD0EB540F2334102910021CDE90011AA
:1005B0000A460B4600F042F903B000BD70B5C1F326
:1005C0000A5201F000450024C1F3130140F2FF3349
:1005D00041F480119A4201DA002070BD40F23343A9
:1005E0009A42A2F2334203DC524200F0BFF800E02C
:1005F00090402C43F1D0404270BDC1F30A5210B577
:10060000C1F3130140F2FF3341F480119A4201DA41
:10061000002010BD40F233439A42A2F2334203DC81
:10062000524200F0A3F810BD904010BD00F000420F
:1006300030F000400AD0C10D01F56071C0F3160022
:1006400042EA0151C20840071143704700200146A9
:100650007047000030B5041E71F1000404DB4FF058
:100660000044404264EB0101141E73F1000405DBF9
:100670001C464FF00043524263EB04038B4208BF19
:10068000824230BD30B5041E71F1000404DB4FF02E
:100690000044404264EB0101141E73F1000405DBC9
:1006A0001C464FF00043524263EB0403994208BFDB
:1006B000904230BD01F0004330B421F0004150EAD7
:1006C000010206D00A0DA2F56072C1F31301002ADF
:1006D00002DC30BC00207047440F44EAC104C10072
:1006E000E01830BC00EBC25000F062B82DE9F05FBA
:1006F0000546002092469B46884606468146402491
:100700001BE0284641464746224600F02FF8534654
:100710005A46C01A914110D311461846224600F09D
:1007200016F82D1A67EB01084F46224601200021DA
:1007300000F00DF817EB00094E41201EA4F1010452
:10074000DFDC484631462A464346BDE8F09F202A72
:1007500004DB203A00FA02F1002070479140C2F118
:10076000200320FA03F3194390407047202A04DB4A
:10077000203A21FA02F00021704721FA02F3D0401A
:10078000C2F120029140084319467047202A06DB37
:10079000CB17203A41FA02F043EAE07306E041FA4F
:1007A00002F3D040C2F1200291400843194670473D
:1007B0000029A8BF7047401C490008BF20F0010075
:1007C000704710B4B0FA80FC00FA0CF050EA010453
:1007D00004BF10BC704749B1CCF1200421FA04F4E5
:1007E00011FA0CF118BF012121430843A3EB0C01BE
:1007F000CB1D4FEA00614FEA102042BF002010BC21
:10080000704700EBC35010440029A4BF10BC7047D0
:10081000401C490008BF20F0010010BC704710B513
:10082000141E73F1000408DA401C41F10001921813
:100830005B411A4301D120F0010010BD2DE9F04DBC
:1008400092469B4611B1B1FA81F202E0B0FA80F211
:1008500020329046FFF77BFF04460F4640EA0A002D
:1008600041EA0B0153465A46084313D0114653EA56
:10087000010019D0C8F140025046FFF777FF054646
:100880000E46504659464246FFF761FF084305D0E1
:10089000012004E020463946BDE8F08D00200543E4
:1008A00046EAE0762C4337430A986305E40AA0EB56
:1008B00008000022FD0A44EA47540A3002D500200D
:1008C0000146E9E7010510196941DDE9084500190C
:1008D0006941BDE8F04DA2E770B521F00043034344
:1008E0000CD0C1F30A550024D5EB040564EB0403D6
:1008F000D617AD1AB34102DB0020014670BD2018A7
:1009000041EB025170BD2DE9F04D00231A461B1A30
:100910008A4103DB00200146BDE8F08DC1F30A5295
:10092000C1F3130141F480154FF0000BD10702D140
:1009300000186D41521E0027044640F2FF11384650
:1009400001EB620A3E468046024600204FF48011C9
:10095000FFF70CFFC2197141BB1846EB0100B4EB65
:10096000030C75EB000C04D3E41A65EB0005174685
:100970000E46241908F101006D4180463428E3DD5C
:10098000F91946EB0600091BA84103D24FF0FF32CC
:10099000134601E0002213461BEB070046EB0A5109
:1009A000BDE8F04DFFF73BBF064C074D06E0E068A1
:1009B00040F0010394E8070098471034AC42F6D3A6
:1009C000FFF7E6FB345201085452010870B58C1849
:1009D00010F8015B15F0070301D110F8013B2A1153
:1009E00006D110F8012B03E010F8016B01F8016B40
:1009F0005B1EF9D12B0705D40023521E0DD401F83C
:100A0000013BFAE710F8013BCB1A921C03E013F804
:100A1000015B01F8015B521EF9D5A142D8D3002039
:100A200070BD21B1826842F00102826003E08268F9
:100A300022F00102826070470021084A1168084ACA
:100A40001140D0E900231A4383681A43C3681A434C
:100A50001143044AC2F80413704700000423014004
:100A6000E030FCFF002001400146C86C80B27047B6
:100A70000246002013680B400BB1012000E000206B
:100A80007047000030B50246002000235068104C2B
:100A900020400D790C6844EA05242043506090689A
:100AA0000C4C2040D1E903542C438D682C434D79E4
:100AB00044EA450420439060D06A20F470000C7D25
:100AC000641EE4B2234340EA0350D06230BD00000C
:100AD000FFFEFFFCFDF7FFC0F0B504460D46002009
:100AE0000021092D11DDE068A5F10A0606EB460795
:100AF000072606FA07F18843A5F10A0606EB460623
:100B000003FA06F10843E0600CE0206905EB4507B5
:100B1000072606FA07F1884305EB450603FA06F1B6
:100B200008432061072A0FDA606B561E06EB860722
:100B30001F2606FA07F18843561E06EB860605FABD
:100B400006F10843606322E00D2A0FDA206BD61FFE
:100B500006EB86071F2606FA07F18843D61F06EB29
:100B6000860605FA06F10843206310E0E06AA2F168
:100B70000D0606EB86071F2606FA07F18843A2F149
:100B80000D0606EB860605FA06F10843E062F0BDA5
:100B9000816841F0804181607047000000B58DB0F0
:100BA0000121084602F0E2FC0121042002F0DEFCF3
:100BB0000121080202F00AFD02200B9003208DF8AB
:100BC000300000208DF833000BA9154801F0E4FB3C
:100BD0000121080202F00AFD00214FF4807002F0AA
:100BE00005FD002007900A9009904FF4803008908E
:100BF00007A8FFF721FF002001908DF808008DF86D
:100C000009000390059001208DF8180001A90548FE
:100C1000FFF738FF01210348FFF703FF0DB000BDC8
:100C2000000002400020014010B57D48408C24287F
:100C300076D017DC1A2861D00BDC142843D003DCF3
:100C400028B30A286DD131E0162845D01828F9D1EB
:100C50004BE01C285BD01E2864D020286BD02228B3
:100C6000F0D176E02E286FD008DC26286DD0282819
:100C70006CD02A286BD02C28E4D199E0302867D09A
:100C800032286FD044286ED04628DBD1BCE000F07B
:100C900099FC4FF47A7011F0CBF80120614908708B
:100CA0005F48408C401C5E494884B6E000205E49A5
:100CB00008705E4800785E4908705948408C401CB6
:100CC00057494884A9E0FF205A4908705448408C8D
:100CD000401C53494884A0E0802056490870504881
:100CE000408C401C4E49488497E0002051490870D0
:100CF0004B48408C401C4A4948848EE080204D4936
:100D000008704748408C401C4549488485E0FF20D6
:100D1000484908704248408C401C414948847CE066
:100D200022E074E08020434908703D48408C401C1C
:100D30003B49488471E000203E4908703848408CA7
:100D4000401C3749488468E03BE016E01EE026E09E
:100D500040E08020374908703148408C401C3049C1
:100D600048845AE03FE047E0FF20324908702C48B1
:100D7000408C401C2A4948844FE080202D4908704F
:100D80002748408C401C2649488446E000202949D9
:100D900008702348408C401C214948843DE0802055
:100DA000244908701E48408C401C1D49488434E08A
:100DB000FF20204908701A48408C401C184948847C
:100DC0002BE080201B4908701548408C401C1449BA
:100DD000488422E00020174908701148408C401CCC
:100DE0000F49488419E08020124908700C48408C53
:100DF000401C0B49488410E003F040F90848408C3F
:100E0000401C0749488408E000F0B8FB05E00448AE
:100E1000408C401C0249488400BF00BF10BD000048
:100E2000E80B00206B03002021020020F2050020C7
:100E30001F0200202202002010B53F4890ED000A5A
:100E4000B5EEC00AF1EE10FA1FD13C4890ED000A51
:100E5000B5EEC00AF1EE10FA17D1394890ED000A4C
:100E6000B5EEC00AF1EE10FA0FD136480078082826
:100E700004DA35480078401C33490870314800785E
:100E80000B2802DD0020304908702F480078052823
:100E900005D1FF202D49087000202D4908702A48EF
:100EA0000078052846DD03202A4908700A202A49CF
:100EB0000870EB20294908709020294908700A2001
:100EC00028490870EB2028490870902027490870AD
:100ED0000A2027490870EB202649087090202649EF
:100EE00008700A2025490870EB20254908709020D9
:100EF000244908700020154908702348007808B973
:100F0000012000E00020204908700F4800780A28DE
:100F100004D100201D4908700D4908700A48007866
:100F20000A2807DD00200B490870012018490870C5
:100F30000BF09EFC10BD0000B0020020B4020020A7
:100F4000B802002001020020F9050020F90100206C
:100F500036060020F8010020430200204402002051
:100F600045020020460200204702002048020020DF
:100F7000490200204A0200204B0200204C020020BF
:100F80004D0200204E020020770200206E02002059
:100F90001802002010B504F027FB4FF4A06002F007
:100FA00033F901F05FF940F2DC51042001F022FF37
:100FB00004F048FD04F06CFE04F0B0FF0EF090FF6A
:100FC0000A2008F093FAFFF7E9FD4FF4FA7008F0F1
:100FD0008DFA002002F0ACF80FF052F800F006F89D
:100FE00001200149087010BD3706002010B509A086
:100FF00000F04EF84FF4E13000F084FA0648006843
:10100000012802D005A000F023F806A000F00EF899
:1010100010BD0000340000007403002058474F4DFD
:10102000494E4900313233340000000010B5044607
:10103000214604A006F02EF8322008F057FA00F0FE
:1010400019F810BD54544D3A5057442D25730000E3
:1010500010B50446214604A006F01CF8322008F022
:1010600045FA00F007F810BD54544D3A52454E2D44
:101070002573000010B503A006F00CF8322008F02C
:1010800035FA10BD54544D3A5253542D5359530010
:1010900010B50446214604A005F0FCFF322008F0FC
:1010A00025FAFFF7E7FF10BD54544D3A4250532D37
:1010B0002573000010B586B004460020029003900E
:1010C00004900590124800680190002005E0411D41
:1010D000625C011D01AB5A54401C21788142F6DC50
:1010E00000212078401D01AA1154012009490860FF
:1010F000322008F0FBF900200749C1F8B0024FF494
:10110000167008F0F3F901A8FFF7A2FF06B010BDB2
:10111000E4420108B08240420080404230B52DEDEB
:10112000108B83B06D4890ED000AB5EEC00AF1EE69
:1011300010FA7DD16A4890ED000AB5EEC00AF1EED2
:1011400010FAF6D1674890ED000AB5EEC00AF1EE4C
:1011500010FAEED100249FED640BB0EE408AF0EE61
:10116000608A002519E0624800EBC50090ED001B85
:10117000B0EE410AF0EE610A9FED5E1B53EC112BBD
:1011800051EC100BFFF78DF941EC190B53EC182BB8
:10119000FFF76EF841EC180B6D1C0A2DE3DB9FED99
:1011A000570B53EC102B51EC180BFFF753FA16D2D8
:1011B0009FED540B53EC102B51EC180BFFF7F9F883
:1011C00041EC1A0B9FED510B53EC102BFFF7F7F886
:1011D00041EC190BFFF7F2F94E49087079E0012450
:1011E00012E04D4800EB840090ED000A10EE101A5A
:1011F0000846FFF71BFA41EC190B53EC182BFFF7CD
:1012000029FA00D802E0641C102CEADB00BF601E43
:10121000414A02EB800090ED000A104600EB84008A
:10122000D0ED000A30EE600A10EE101A084600E019
:1012300050E0FFF7FBF941EC1C0B374800EB840052
:1012400090ED000A10EE101A0846FFF7EFF953EC84
:10125000182BCDE900019DED000B51EC100BFFF7B1
:10126000ABF841EC1E0B601E2C4A02EB800090EDA7
:10127000000A104600EB8400D0ED000A30EE600A50
:1012800010EE101A0846FFF7D1F941EC1F0B53EC92
:101290001E2BFFF794F841EC1D0B53EC1C2BFFF7B2
:1012A00000F941EC1A0B1D4800EB840090ED000A98
:1012B00010EE101A0846FFF7B9F941EC1B0B53EC7E
:1012C0001A2BFEF7D5FF41EC190BFFF777F91149FF
:1012D000087000BF03B0BDEC108B30BDB002002021
:1012E000B4020020B802002000000000000000004E
:1012F0004006002000000000000024409A999999BF
:101300009999194033333333333316406666666632
:101310006666274001020020E4020020240300202A
:1013200010B52DED088B0446012008EE100A94ED4F
:10133000000AD4ED010A30EE600A84ED080A94ED4B
:10134000100A10EE101A0846FFF770F941EC190B5D
:1013500094ED080A10EE101A0846FFF767F941EC01
:101360001B0BB0EE4B0AF0EE6B0A06F0E1FCB0EEA0
:1013700040AAF0EE60AA53EC192B51EC1A0BFFF7C0
:1013800069F907D89FED3B0A84ED080A9FED390AF9
:1013900084ED0A0A94ED0A0AD4ED080A30EE200A18
:1013A00084ED0A0A94ED0E0A10EE101A0846FFF7B3
:1013B0003DF941EC190B94ED080A10EE101A08469D
:1013C000FFF734F941EC1B0BB0EE4B0AF0EE6B0A61
:1013D00006F0AEFCB0EE40AAF0EE60AA53EC192B7A
:1013E00051EC1A0BFFF74EF902D2002008EE100A5A
:1013F00094ED020AD4ED080A20EE200AD4ED030A87
:1014000094ED0A1A60EE810AB8EE481A00EE810ADD
:10141000D4ED080A94ED091A70EEC10A94ED041A8D
:1014200001EE200A84ED0B0A94ED080A84ED090A06
:1014300094ED0B0AD4ED0C0AB4EEE00AF1EE10FACA
:1014400004DD94ED0C0A84ED0B0A10E094ED0B0A18
:10145000D4ED0C0AF1EE600AB4EEE00AF1EE10FAF7
:1014600005D294ED0C0AB1EE400A84ED0B0ABDECF6
:10147000088B10BD0000000010B52DED068B042177
:10148000012001F015F80446FFF78BF841EC1A0B28
:101490009FED140B53EC102BFEF791FF41EC190B51
:1014A0009FED120B53EC102BFEF789FF41EC180B4C
:1014B0009FED100B53EC102BFEF7F3FF0F4A104B70
:1014C0001B7802EBC30203C20D480078401CC0B277
:1014D0000B4908700A2801D100200870BDEC068B6A
:1014E00010BD00006666666666660A400000000081
:1014F00000000840000000000000B040400600204E
:10150000900600201FB5044600210E4804F049FE55
:1015100000940020ADF80400ADF80600ADF8080016
:10152000ADF80C000C20ADF80A006946054804F03F
:101530000FFF0121034804F034FE142007F0D6FF0A
:101540001FBD00000044004070B50446049DA14248
:1015500009DC944207DC601AEE1A7043561A90FBBD
:10156000F6F0184470BD8C4201DA1846FAE794424E
:1015700001DD2846F6E74FF0FF30F3E710B500F045
:1015800021F84FF4C87010F053FC0548006810B102
:1015900001200449087000200349087010BD0000B4
:1015A00070030020F7050020F9010020002004E06E
:1015B0000021034A22F81010401C1E28F8DB704757
:1015C000E80B002008B50020264908708020264935
:1015D00008702649087026490880264908700020AE
:1015E0002549087025490870254908702549087063
:1015F000254908702549087025490870802025492B
:10160000087025490870FF20002373224B210090A9
:101610006C20FFF799FF214908708020204908704D
:1016200020490870204908709FED200A204880ED6D
:10163000000A00201F4908701F4908701F490870E0
:101640001F4908709FED1F0A1F4880ED000A4FF4E4
:10165000FA6010F0EDFB01201C490870FFF7A6FFAF
:1016600008BD0000000600201A0200201B02002016
:10167000680200201C020020260200202302002015
:101680002402002028020020270200202902002036
:10169000250200201D0200201E0200201F02002043
:1016A0002102002020020020220200200000000071
:1016B000BC020020690300206A03002068030020A8
:1016C0006B03002000002F4478030020F801002065
:1016D00030B503460C46002107E0585C655CA84223
:1016E00000D101E0002030BD491C9142F5DB012012
:1016F000F9E7000010B51B48C08830B10A280FD0A8
:1017000076281BD0782824D120E0FFF75BFF00204B
:10171000154908701348C088401C1249C8801EE053
:101720009FED120A124880ED000AE020114908706E
:101730000C48C088401C0B49C88010E002F09EFC99
:101740000848C088401C0749C88008E0FFF716FF1A
:1017500005E00448C088401C0249C88000BF00BFA3
:1017600010BD0000E80B00201F0200200080D444C0
:10177000780300201A02002010B54B480078F0B121
:101780004A480068D8B148480078401C464908706B
:1017900008460078232812D10020087044480078B9
:1017A0004449087042480078152803D10120404977
:1017B000087004E03E480078401C3D4908703D48F0
:1017C00000780B2843D008DC68D2DFE800F01F2245
:1017D00025282B2E3134373A3D00112849D008DC1A
:1017E000A0F10C00052859D2DFE800F034373A3D6B
:1017F0004000142846D004DC12283DD013284DD1D7
:101800003DE0152841D0FF2848D141E0FFF7CEFE4A
:1018100048E000F069FE45E000F096FE42E0FFF788
:1018200069FF3FE004F012F83CE001F00FFB39E003
:1018300003F09EF936E004F0ADF833E004F02CF844
:1018400030E004F0D3F82DE004F052F82AE001F083
:1018500091FD27E003F0E6F824E005F071F821E0BF
:1018600003F02AFC1EE003F011FD1BE003F0D2FDA3
:1018700018E0FFF7D9F915E000F0D0FA12E000F017
:101880008FFF0FE003F0CEF90CE005F013F809E04C
:1018900002F072FC00200749087003E000200549AF
:1018A000087000BF00BF10BDF705002070030020C6
:1018B000F8050020F90100200246094B9A4201D2A6
:1018C000084801E00648103801F000531BB1064BF0
:1018D0000B40C36002E0044B0B4083607047000084
:1018E00010640240006002407D0F7D0F21B102684C
:1018F00042F00102026003E0026822F0010202608D
:1019000070470000016821F00101016000210160C1
:1019100041608160C1600161212141614A49884281
:1019200004D13D21484A103A91608CE04649183173
:10193000884205D14FF47461434A103A916082E0C5
:1019400041493031884205D14FF474113E4A103A72
:10195000916078E03C494831884205D14FF074618C
:10196000394A103A91606EE037496031884204D1BB
:101970003649354A103AD16065E0334978318842BA
:1019800004D13349304A103AD1605CE02E4990319D
:10199000884204D12F492C4A103AD16053E02A4999
:1019A000A831884205D14FF03D51274A103AD16005
:1019B00049E02949884204D13D21274A083A11606B
:1019C00041E025491831884205D14FF47461224A1B
:1019D000083A116037E020493031884205D14FF490
:1019E00074111D4A083A11602DE01B4948318842A4
:1019F00005D14FF07461184A083A116023E0164986
:101A00006031884204D11149134A121F11601AE053
:101A100011497831884204D10D490F4A121F1160D3
:101A200011E00D499031884204D10A490A4A121F37
:101A3000116008E00849A831884204D14FF03D51B7
:101A4000054A121F11607047106002403D000020DF
:101A5000400F002000003D2010640240014600209D
:101A60000A6802F001020AB1012000E0002070477C
:101A70000146486880B2704710B500220268134BD7
:101A80001A40CC680B6823434C6923438C69234379
:101A9000CC6923430C6A23434C6A23438C6A234357
:101AA0004C6B23438C6B23431A430260426922F040
:101AB0000702D1E90B3423431A4342610B694360A7
:101AC0004B6883608B68C36010BD00003F801CF0D2
:101AD00001B509E0002000E0401C4CF25031884282
:101AE000FAD30099491E009100990029F2D108BD4E
:101AF00010B5802000F05AF800283CD00A2007F0EA
:101B0000F5FC80211C4800F0B2FC68B900201B499C
:101B100008701B49087001201A49087000201A49F2
:101B200008700AF0A5FE23E01448007800BB1748AF
:101B300090ED000AB1EE400A154880ED000A154804
:101B400090ED000AB1EE400A134880ED000A002033
:101B50000B4908700B49087001200B4908700F49A8
:101B600008600AF085FE0EF08BFA01200349087028
:101B7000802000F015F810BD000002406E02002029
:101B8000F80100201802002019020020D4060020CD
:101B9000B4050020D8060020B805002074030020FA
:101BA0000149086070470000143C014001460020D4
:101BB0000022074B1B6803EA0102054B14331B6824
:101BC0000B4013B10AB1012000E000207047000073
:101BD000003C0140002123498279002A3AD00A467C
:101BE000126803689A430B461A600A1D126803685C
:101BF0009A430B1D1A60027911440A6803681A435C
:101C00000A60184A0832126803689A43154B083371
:101C10001A601A1D126803689A43124B0C331A603B
:101C20004279102A0ED11A1F126803681A430D4B0D
:101C300008331A601A1D126803681A43094B0C33E3
:101C40001A600DE00749427911440A6803681A4393
:101C50000A6005E0027911440A6803689A430A6041
:101C600070470000003C014070B505460C46224616
:101C70002821284612F088F970BD000030B10749CC
:101C8000096841F48061054A116005E0034909686B
:101C900021F48061014A116070470000003C02405D
:101CA00070B504460A460026082502B909E0012A53
:101CB00001D1160205E0022A01D1160201E04FF41B
:101CC000407600F099F80546082D28D1154800689F
:101CD00020F44070134908600846006830430860EB
:101CE0000846006820F0F80008600846006844F0E4
:101CF000020108430B4908600846006840F4803040
:101D0000086000F079F805460648006820F00200F7
:101D1000044908600846006820F0F800086028467A
:101D200070BD0000103C024008201049096801F411
:101D30008031B1F5803F01D1012015E00B490968E0
:101D400001F0100109B105200EE00849096801F011
:101D5000EF0109B1062007E00449096801F002011A
:101D600009B1072000E00820704700000C3C024049
:101D70000348006840F000400149086070470000D7
:101D8000103C024030B502460C46082500F034F8FD
:101D90000546082D19D10E48006820F440700C4902
:101DA00008600846006840F4007008600846006853
:101DB00040F001000860146000F01EF80546044879
:101DC000006820F0010002490860284630BD00008C
:101DD000103C02400548006800F0004028B104486B
:101DE00002490C390860034808607047103C024003
:101DF00023016745AB89EFCD08B508200090FFF7B8
:101E000093FF009002E0FFF78FFF00909DF8000025
:101E10000128F8D09DF8000008BD000010B5F94871
:101E2000808C602871D02BDC20286FD013DC142824
:101E30006DD007DCF0B3052858D010286AD01228DE
:101E400067D174E016286ED018286DD01C286CD08D
:101E50001E28F5D1A5E0562868D008DC22286FD0CE
:101E600024286ED026286DD02D28E9D1D3E058281B
:101E700069D05A2868D05C2867D05E28E0D116E186
:101E8000742875D00EDCA0F16200112841D2DFE881
:101E900000F0F240F140F040EF40EE40ED40EC4009
:101EA000EB40EA007E2876D00ADC762874D07828C9
:101EB00073D000E00BE07A2870D07C28C0D17DE19F
:101EC00087286CD08C286BD09128B9D1AEE1FFF770
:101ED00079FBCD4800880FF0ABFF0120CB4908709B
:101EE000C848808C401CC7498884A8E1C820C849DC
:101EF00008702820C7490870FF20C7490870C148EA
:101F0000808C401CBF49888499E1D9E052E01DE0F3
:101F100000E08EE1DC20C1490870BA48808C401C8A
:101F2000B84988848BE11AE023E02BE085E0E620C5
:101F3000B9490870B348808C401CB24988847EE15E
:101F400041E049E051E097E09FE0A7E0FF20B2497F
:101F50000870AC48808C401CAA4988846FE1E62058
:101F6000AD490870A748808C401CA649888466E16A
:101F700000E1FF20A8490870A248808C401CA149BC
:101F800088845CE12320A54908709E48808C401C11
:101F90009C49888453E11AE1F5E0FDE005E11FE189
:101FA00027E1E6209C4908709648808C401C9549A2
:101FB000888444E1FF20984908709248808C401C36
:101FC000904988843BE1E620934908708D48808CD5
:101FD000401C8C49888432E1FF208F490870894871
:101FE000808C401C8749888429E14FF4FA700FF0F7
:101FF0001FFF8020894908706420874908701420D9
:10200000844908708020824908707E48808C401C7A
:102010007C49888413E140F2A4600FF009FF9FED32
:10202000800A804880ED000AD8207F4908707548F2
:10203000808C401C7349888401E1C8207449087071
:10204000714800880FF0F4FEFF207349087080206B
:102050007549087028206F4908706A48808C401CB8
:1020600068498884EBE07CE072E068E05EE054E080
:102070004AE040E036E02CE0DC2068490870614826
:10208000808C401C5F498884D9E0E6206249087052
:102090005C48808C401C5B498884D0E0E6205E4927
:1020A00008705848808C401C56498884C7E0FF203F
:1020B000594908705348808C401C52498884BEE0BE
:1020C000E620554908704F48808C401C4D49888453
:1020D000B5E02320514908704A48808C401C49498A
:1020E0008884ACE0E6204C4908704648808C401C4F
:1020F00044498884A3E0FF20474908704148808C08
:10210000401C404988849AE0E620434908703D48D5
:10211000808C401C3B49888491E0FF203E49087038
:102120003848808C401C3749888488E0DC203B4953
:1021300008703448808C401C324988847FE0E62057
:10214000354908702F48808C401C2E49888476E0E1
:10215000E620314908702B48808C401C294988842E
:102160006DE0FF202C4908702648808C401C2549D2
:10217000888464E0E620284908702248808C401C4E
:10218000204988845BE02320244908701D48808C06
:10219000401C1C49888452E0E6201F4908701948F9
:1021A000808C401C1749888449E0FF201A49087038
:1021B0001448808C401C1349888440E0E62016496E
:1021C00008701048808C401C0E49888437E0FF203E
:1021D000114908700B48808C401C0A4988842EE005
:1021E00064200B4908700748808C401C054988848E
:1021F00025E001F043FF0348808C401C014988849E
:102200001DE00000E80B0020F40500206B03002017
:102210001D0200201F0200202102002022020020B7
:102220000080D444780300201A020020FFF7A6F9AA
:1022300005E00448808C401C0249888400BF00BF30
:1022400010BD0000E80B002001B52DED020B01468A
:102250006A46002002E0135C0B54401C0428FADBA1
:102260000EBD000000B585B00121084601F07EF9E1
:102270000121022001F07AF90121042001F076F910
:102280000121880301F0A2F94FF44050039001208E
:102290008DF8100003208DF8110000208DF8120039
:1022A00002208DF8130003A9344800F075F80020CF
:1022B000334908603349C1F8B40241F20250039037
:1022C00002208DF8130003A92F4800F065F80120C3
:1022D0002E49086000202D490839086001202B494B
:1022E000103908602A49C1F88402C0020390002016
:1022F0008DF8100002208DF8110000208DF81300D9
:1023000003A9214800F048F84FF440400390012011
:102310008DF8120003A9194800F03EF880200390C0
:1023200000208DF8100002208DF8110000208DF89B
:10233000120003A9174800F02FF80721002001F030
:10234000D5FF8020019000208DF8080010208DF826
:10235000090001208DF80A0001A8FFF73BFC1720B7
:102360008DF8000001208DF801008DF802008DF835
:102370000300684600F00CFF05B000BD00040240F9
:10238000B08240420080404200080240B002414218
:102390000000414200000240F0B50A46002100233F
:1023A000002400BF3DE0012505FA01F3156805EAA8
:1023B00003049C4234D105684F000326BE40B54358
:1023C000056015794E00B5400668354305601579FE
:1023D000012D02D01579022D16D185684F000326F4
:1023E000BE40B543856055794E00B540866835439B
:1023F0008560456801268E40B543456045689679FD
:102400008E40B6B235434560C5684F000326BE40D6
:10241000B543C560D5794E00B540C6683543C56043
:10242000491C1029BFD3F0BDF0B5002300244D078F
:10243000ED0E02FA05F3CE1000F1200555F82650F6
:102440004E07F70E0F26BE40B543CF1000F1200611
:1024500046F82750CE1000F1200555F8265045EAE1
:102460000304CE1000F1200545F82640F0BD0246D9
:10247000002013690B400BB1012000E000207047E1
:1024800010B504460723012221460848FEF724FB25
:102490000648FEF77DFB00BF02210448FEF7E8FA7C
:1024A0000028F9D00148FEF7DFFA10BD00200140F6
:1024B0002DE9F04106460C460027012E0DD10025DE
:1024C00008E00120FFF7DCFF07440A2007F01CF8B2
:1024D000681CC5B2A542F4DB00E000BF00BFB7FB3B
:1024E000F4F080B2BDE8F08110B51548408820B105
:1024F000282811D02A281AD116E0FFF763F8002007
:10250000104908704FF416700FF092FC0C48408888
:10251000401C0B49488010E001F0B0FD084840889D
:10252000401C0749488008E0FFF728F805E0044808
:102530004088401C0249488000BF00BF10BD000019
:10254000E80B00201F02002010B51548808820B13C
:10255000262811D028281AD116E0FFF733F8FF20DB
:10256000104908704FF416700FF062FC0C48808818
:10257000401C0B49888010E009488088401C0849AD
:10258000888001F07BFD08E0FEF7F8FF05E00448D5
:102590008088401C0249888000BF00BF10BD000039
:1025A000E80B00201F0200206B48007800287AD03A
:1025B00002206A4908706848007801282DD16848CF
:1025C0000078A8B1674890ED020ADFED670A30EEA7
:1025D000600A80ED020A654890ED020ADFED620AAA
:1025E00030EE600A80ED020A00205D49087014E0B8
:1025F0005C4890ED020ADFED5C0A30EE200A80EDC7
:10260000020A5A4890ED020ADFED570A30EE200A1E
:1026100080ED020A0120524908704F4800780228D4
:102620002DD14F480078A8B1514890ED020ADFED56
:102630004E0A30EE600A80ED020A4E4890ED020A22
:10264000DFED490A30EE600A80ED020A00204449BD
:10265000087014E0464890ED020ADFED430A30EEC0
:10266000200A80ED020A434890ED020ADFED3E0A9F
:1026700030EE200A80ED020A012039490870364800
:102680000078032867D136480078B8B9384890ED0B
:10269000020ADFED350A30EE200A80ED020A3548E5
:1026A00090ED020A00E053E0DFED2F0A30EE200A41
:1026B00080ED020A01202A4908704CE02848007881
:1026C000012815D12A4890ED020ADFED270A30EEE5
:1026D000600A80ED020A274890ED020ADFED220A27
:1026E00030EE600A80ED020A02201D49087032E0D7
:1026F0001B480078022815D11A4890ED020ADFED38
:102700001A0A30EE200A80ED020A184890ED020AFB
:10271000DFED150A30EE200A80ED020A0320104991
:10272000087018E00F4890ED020ADFED0F0A30EE56
:10273000600A80ED020A0D4890ED020ADFED0A0AF8
:1027400030EE600A80ED020A00200549087002E0C0
:102750000020034908707047FB050020F8010020A5
:10276000FA050020E8000020000020424801002077
:10277000180100207801002002460021918921F0F3
:102780000C0141F0040191810020704702460021B4
:10279000918921F00C0141F00801918100207047DE
:1027A00010B5C748C08C91286FD01BDC50286DD065
:1027B0000BDC32286DD003DC88B30A2868D137E0FF
:1027C000462876D04B28F9D180E05F286ED004DC13
:1027D00055286CD05A28F1D19AE0642868D08C280A
:1027E000ECD1B3E0AF286ED00CDCA0286CD004DCB8
:1027F00096286AD09B28E1D1C6E0A52870D0AA28E7
:10280000DCD1DFE0D5286CD004DCC8286AD0D12820
:10281000D4D103E1D82870D0DC28CFD144E1FFE740
:10282000FEF7D0FEA648C08C401CA549C88444E1F0
:102830000320A44908708020A3490870AA20A34956
:102840000870EB20A24908705F20A2490870A520FB
:10285000A1490870EB20A14908708020A0490870A8
:10286000EB20A049087046209F49087080209F49AE
:102870000870EB209E49087046209E4908709048D9
:10288000C08C401C8E49C88417E169E02BE000E051
:102890000DE1FF209849088082208C490870884803
:1028A000C08C401C8649C88407E102E03AE025E07C
:1028B00042E092480078864908708148C08C401CEC
:1028C0007F49C884F9E087E068E053E08C480078ED
:1028D0007F4908707A48C08C401C7949C884ECE074
:1028E00066E0C5E082E08548007879490870744860
:1028F000C08C401C7249C884DFE0CDE0804800787D
:10290000734908706E48C08C401C6D49C884D4E07F
:102910007A4800786E4908706948C08C401C684944
:10292000C884CAE076480078694908706448C08C59
:10293000401C6349C884C0E070480078644908704E
:102940005F48C08C401C5E49C884B6E06B48007884
:102950005F4908705A48C08C401C5949C884ACE093
:10296000674800785A4908705548C08C401C544943
:10297000C884A2E061480078554908705048C08C6E
:10298000401C4F49C88498E05D4800785049087061
:102990004B48C08C401C4A49C8848EE05748007898
:1029A0004B4908704648C08C401C4549C88484E0A7
:1029B00053480078464908704148C08C401C404943
:1029C000C8847AE04D480078414908703C48C08C82
:1029D000401C3B49C88470E0494800783C49087075
:1029E0003748C08C401C3649C88466E08020364990
:1029F0000870AA2035490870B92035490870802030
:102A000034490870A52034490870B920334908704A
:102A10002B48C08C401C2A49C8844EE080202A499B
:102A20000870AA2029490870B92029490870802017
:102A300028490870A52028490870B920274908703E
:102A4000802027490870EB202649087082202649FB
:102A50000870802025490870EB20254908708220E5
:102A6000244908701648C08C401C1549C88424E0CD
:102A700003201449087080201F49088015490870F8
:102A8000A52015490870AA20144908700C48C08C6C
:102A9000401C0B49C88410E001F0F0FA0848C08CD3
:102AA000401C0749C88408E0FEF768FD05E00448BB
:102AB000C08C401C0249C88400BF00BF10BD00008C
:102AC000E80B0020F801002045020020440200200D
:102AD0004302002048020020470200204602002056
:102AE0004B0200204A020020490200204E02002032
:102AF0004D0200204C02002068020020F105002059
:102B0000F2050020054B1B781BB1130A03700A70F5
:102B100002E0130A0B7002707047000024070020C7
:102B200010B50F48008840F400700D490880084631
:102B3000008840F48070088000F040F90848801E4A
:102B4000008840F400700649891E088000F036F9BC
:102B50000348008840F400700149088010BD00005F
:102B60001A04024010B50F48008840F400700D4967
:102B70000880881E008840F48070891E088000F05C
:102B80001DF90848801E008840F400700549891E20
:102B9000088000F013F90348008840F400700149F0
:102BA000088010BD1A04024070B508250024194899
:102BB000008840F48070174908801BE06006040E0E
:102BC0001448801C008840F400701249891C088059
:102BD00000F0F4F80F48008840F400700D490880B8
:102BE0000C480838006800F4807008B144F0010413
:102BF00000F0DAF8281EA5F10101CDB2DED10548BA
:102C0000801C008840F400700249891C088020461E
:102C100070BD00001804024070B50446082527E086
:102C20001A48008840F400701849088000F0C6F87F
:102C300004F0800040B11548801E008840F4807088
:102C40001249891E088005E01048008840F4807011
:102C50000E4908806006040E00F0B0F80B48801E94
:102C6000008840F400700949891E088000F0A6F829
:102C7000281EA5F10101CDB2D2D10448008840F44C
:102C800000700249088000F099F870BD1A040240F3
:102C900010B51948008840F480701749088008462C
:102CA000008840F40070088000F092F8124808385C
:102CB000006800F4807008B9002010BD0E48801C28
:102CC000008840F480700C49891C088000F080F86E
:102CD00009480838006800F4807008B10020ECE76B
:102CE0000548801C008840F480700349891C0880D6
:102CF00000F06EF80120E0E71804024010B50E481D
:102D0000008840F400700C4908800846008840F4B0
:102D10008070088000F05CF80748801E008840F44E
:102D200000700549891E08800846008840F48070BC
:102D3000088000F04DF810BD1A04024010B5194883
:102D4000008840F400701749088000F02DF81548FD
:102D5000801E008840F480701249891E088000F0AF
:102D600023F81048801E008840F400700D49891E29
:102D7000088000F019F80B480A38006800F48070E9
:102D800038B10848008840F40070064908800020E7
:102D900010BD0448008840F40070024908800120FA
:102DA000F6E700001A04024008B50720009000BFB3
:102DB0000098411E00910028FAD108BD08B50E20E8
:102DC000009000BF0098411E00910028FAD108BD74
:102DD00008B51C20009000BF0098411E00910028FB
:102DE000FAD108BD4CF6CC4001490860704700009C
:102DF0000030004070B505460C4645F2555000F0D5
:102E00001FF8284600F010F8204600F013F800F0F4
:102E100003F8FFF7E7FF70BD4AF6AA2001490860F2
:102E200070470000003000400149486070470000D2
:102E300000300040014988607047000000300040C9
:102E400001490860704700000030004010B5174885
:102E5000408920B1372815D03C281ED11AE0FEF752
:102E6000B1FB00200EF0E4FF962011490870B3EE8C
:102E7000090A104880ED000A0C484089401C0B49A3
:102E8000488110E009484089401C0849488101F008
:102E9000F5F808E0FEF772FB05E004484089401CA5
:102EA0000249488100BF00BF10BD0000E80B0020B0
:102EB00026020020FC01002043888B4200DC418078
:102EC0004388934200DB428070470000904890EDB9
:102ED000000AF2EE000A80EE201A8E4890ED030AF6
:102EE000B4EEC01AF1EE10FA06DB60208A490870D1
:102EF00040208A4908700AE1854890ED000AF2EE08
:102F0000000A80EE201A834890ED030AB4EEC01A3E
:102F1000F1EE10FA56D27E4890ED000AF0EE080A63
:102F200020EE200AF2EE000A80EE201A794890ED99
:102F3000030AB4EEC01AF1EE10FA43DB744890EDC8
:102F4000000AF2EE000A80EE201A724890ED030AA1
:102F500030EE410ADFED720A20EE200A6C48D0ED17
:102F6000000AB1EE001AC0EE811AC0EE210ABDEED1
:102F7000E00A10EE100A6030674908706448D0ED2E
:102F8000000AB2EE001A80EE810A6248D0ED030A10
:102F900030EEC00ADFED630A20EE200A5C48D0ED77
:102FA000000AB1EE001AC0EE811AC0EE210A9FEDB0
:102FB0005E0A30EE800ABCEEC00A10EE100A5749D5
:102FC0000870A4E0524890ED000AF0EE080A20EEE6
:102FD000200AF2EE000A80EE201A4E4890ED030A15
:102FE000B4EEC01AF1EE10FA7DD2494890ED000A15
:102FF000F1EE0C0A20EE200AF2EE000A80EE201A12
:10300000444890ED030AB4EEC01AF1EE10FA78DBF2
:103010003F4890ED000AF0EE080A20EE200AF2EE9A
:10302000000A80EE201A3B4890ED030A30EE410A78
:10303000DFED3B0A20EE200A3548D0ED000AB0EE65
:10304000001AC0EE811AC0EE210ABDEEE00A10EEB1
:10305000100AC0F1C000304908702D4890ED000AF8
:10306000F0EE080A20EE200AF2EE000A80EE201AA6
:10307000284890ED030AB4EEC01AF1EE10FA18D207
:10308000234890ED000AF1EE040A60EE200AB2EE49
:10309000001A80EE810A1F48D0ED030AB4EEE00A60
:1030A000F1EE10FA05DBB2EE080A204880ED010AC5
:1030B0002DE0174890ED000AF1EE040A20EE200AF8
:1030C000F2EE000A80EE201A124890ED030A30EE6C
:1030D000410ADFED140A20EE200A0D48D0ED000A67
:1030E000B1EE001A00E00CE0C0EE811AC0EE210A39
:1030F000BDEEE00A10EE100AC0F1C00007490870EA
:1031000005E06020044908704020044908707047B9
:1031100078030020E80000201D0200201E0200208D
:103120000000C0420000004300008042BC010020BB
:1031300070B504460DF014FDC5B202223721682097
:103140000CF022FF0220FEF7C3FCF5B978200EF048
:10315000D3FA78200DF0EAFB64200EF073FA06F043
:1031600057FB0A480DF07EF8064606F0ABFD40F22C
:10317000731006F0F5F9642006F0D4FC012C01D19F
:103180000EF064FC01200EF059F970BD0C07002010
:1031900070B5002100230F22C4781CB3174C24689B
:1031A00004F4E064C4F5E064C4F30721C1F104044D
:1031B000E3B20A4144789C40E1B284781440214350
:1031C0000C07210E0E4C05786155047804F01F059C
:1031D0000124AC4005786D11AD0005F1E025C5F87E
:1031E000004109E0047804F01F050124AC40054DBE
:1031F0000678761145F8264070BD00000CED00E021
:1032000000E400E080E100E002490143024A11606D
:10321000704700000000FA050CED00E010B5FDF766
:103220000BFE40480068002858D13F480078082825
:1032300007DD3E48007808B9012000E000203B4946
:1032400008703B480078012805D1FF2039490870F3
:103250000020394908703648007802282AD1032016
:103260003649087040F24C400EF0E2FD002034492F
:103270000870F220334908709C20334908700520FB
:1032800032490870F220324908709C203149087098
:10329000002031490870F220304908709C203049E4
:1032A000087000202F490870F2202F4908709C20D8
:1032B0002E4908701E480078032802D100202C49AE
:1032C00008701B480078401CC0B2194908700828D3
:1032D00022D1002013497C3108601DE01448007899
:1032E00068B10120154908702149087000200EF0CE
:1032F0009FFD012010490870FF200E490870002032
:103300000B490870012007497C3108600B480078A0
:1033100010B1012005490870044800780149843142
:10332000086010BD2C0241420102002077020020FB
:10333000F0050020F901002036060020F8010020E9
:1033400043020020440200204502002046020020E3
:103350004702002048020020490200204A020020C3
:103360004B0200204C0200204D0200204E020020A3
:103370006E02002010B56D48C08A642878D00BDC3E
:103380001E284BD003DC80B10A2872D115E0322808
:1033900074D05A28F9D180E06E286CD082286BD086
:1033A0009B286AD0A028F0D1B4E0FEF70BF95F4863
:1033B000C08A401C5D49C882B5E05D4800785D491F
:1033C000088003205C49087080205C490870FF2059
:1033D0005B49087064205B49087080205A49087076
:1033E000FF205A49087064205949087080205949C3
:1033F0000870FF20584908706420584908708020E0
:1034000057490870FF2057490870642056490870D2
:103410004648C08A401C4549C88284E06E2047491E
:103420000870FF20464908706420464908709220C1
:1034300045490870DC20454908708C2044490870D3
:10344000922044490870DC20434908708C2043498D
:1034500008706E2042490870FF20424908706420BD
:10346000414908703148C08A401C3049C8825AE03E
:1034700022E052E002E02EE03CE043E0FF2035494C
:103480000870DC20344908708C20344908702748C3
:10349000C08A401C2549C88245E0FA202D490870A1
:1034A000DC202D49087082202C4908701F48C08AF2
:1034B000401C1E49C88236E0FA2026490870DC20EC
:1034C000254908708C20254908701848C08A401C7E
:1034D0001649C88227E06E201E490870FF201E4949
:1034E000087064201D4908701048C08A401C0F49AC
:1034F000C88218E00EF006FA0C48C08A401C0B493E
:10350000C88210E000F0BAFD0848C08A401C074994
:10351000C88208E0FEF732F805E00448C08A401C83
:103520000249C88200BF00BF10BD0000E80B0020A8
:10353000F605002068020020F80100204502002066
:1035400044020020430200204802002047020020DD
:10355000460200204B0200204A02002049020020BF
:103560004E0200204D0200204C02002029B1064AE4
:1035700012680243044B1A6004E0034A1268824353
:10358000014B1A60704700003038024029B1064AEA
:1035900012680243044B1A6004E0034A1268824333
:1035A000014B1A60704700004038024029B1064ABA
:1035B00012680243044B1A6004E0034A1268824313
:1035C000014B1A60704700002038024029B1064ABA
:1035D00012680243044B1A6004E0034A12688243F3
:1035E000014B1A60704700004438024029B1064A76
:1035F00012680243044B1A6004E0034A12688243D3
:10360000014B1A607047000024380240F0B50021D9
:1036100000220024022500260223324F3F6807F0D3
:103620000C0121B1042905D0082937D105E02E4F1E
:10363000076036E02D4F076033E02A4F3F1F3F6899
:10364000C7F38056274F3F1F3F6807F03F036EB117
:10365000264FB7FBF3F7DFF88CC0ACF1040CDCF8B5
:1036600000C0CCF3881C07FB0CF40CE01E4FB7FB2A
:10367000F3F7DFF870C0ACF1040CDCF800C0CCF359
:10368000881C07FB0CF4174F3F1F3F68C7F3014727
:103690007F1C7D00B4FBF5F7076002E0124F076066
:1036A00000BF00BF0F4F3F6807F0F0010909104F3E
:1036B0007A5C0768D74047600A4F3F6807F4E051DB
:1036C000890A0B4F7A5C4768D7408760054F3F688F
:1036D00007F46041490B064F7A5C4768D740C760E2
:1036E000F0BD0000083802400024F40000127A0007
:1036F0003C070020F0B52DED108B9FB09FEDFE0A2A
:10370000B0EE40CA9FEDFC0AF0EE40CA9FEDFA0A07
:10371000B0EE40DA9FEDF80AF0EE40DA9FEDF60ADF
:10372000B0EE40EA9FEDF40AF0EE40EA9FEDF20AB7
:10373000B0EE40FA9FEDF00AF0EE40FA9FEDEE0A8F
:103740008DED1E0A9FEDEC0AB0EE408A9FEDEA0A6D
:10375000F0EE408A9FEDE80AB0EE409A9FEDE60A4F
:103760008DED1D0A9FEDE40A8DED1C0A9FEDE20A26
:103770008DED1B0A9FEDE00A10EE104A9FEDDE0A68
:1037800010EE105A9FEDDC0A10EE106A9FEDDA0A77
:10379000F0EE409A9FEDD80AB0EE40AA9FEDD60A0F
:1037A000F0EE40AA9FEDD40A8DED1A0A9FEDD20AE1
:1037B000B0EE40BA9FEDD00AF0EE40BA002017906C
:1037C00018901990149015901690119012901390D3
:1037D0000E900F90109007F093F8C848007828B921
:1037E000C748007810B9C7480078E8B3C64890EDDC
:1037F000000AC648D0ED000A80EE201A9FEDC40AE8
:1038000021EE000A10EE107A3846FCF70FFFCDE9E2
:1038100004019DED040B05F0BFF88DED080BBD48CC
:1038200090ED080A10EE101A0846FCF7FFFECDE9ED
:1038300006019DED080B53EC102B9DED060B51EC92
:10384000100BFCF7BCFD9FEDB40B53EC102BCDE936
:103850000A019DED0A0B51EC100BFCF722FECDE99D
:103860000C019DED0C0B00E005E051EC100BFCF79A
:1038700021FFA8490860A2480078E8B3A848D0ED25
:10388000000AA84890ED001A80EE810ADFEDA00A38
:1038900020EE200A10EE107A3846FCF7C7FECDE97C
:1038A00004019DED040B05F077F88DED080B9948A8
:1038B00090ED090A10EE101A0846FCF7B7FECDE9A4
:1038C00006019DED080B53EC102B9DED060B51EC02
:1038D000100BFCF774FD9FED900B53EC102BCDE912
:1038E0000A019DED0A0B51EC100BFCF7DAFDCDE956
:1038F0000C019DED0C0B00E005E051EC100BFCF70A
:10390000D9FE844948607F480078002864D0814807
:1039100090ED0A0AD0ED0B0A30EE200AF0EE000A14
:1039200080EE201A11EE107A3846FCF77FFECDE9C2
:103930000A017D4890ED000A7C4890ED001AC0EE27
:10394000010A9FED730A20EE800A10EE107A3846C5
:10395000FCF76CFECDE900019DED000B05F01CF8B5
:103960008DED040B6B4890ED0A0AD0ED0B0A30EE9A
:10397000600A10EE101A0846FCF758FECDE9020165
:103980009DED040B53EC102B9DED020B51EC100B35
:10399000FCF715FD9FED660B53EC102BCDE90601EE
:1039A0009DED060B51EC100BFCF77BFDCDE90801FA
:1039B0009DED0A0B53EC102B9DED080B51EC100BF9
:1039C000FCF756FCCDE90C019DED0C0B51EC100BF6
:1039D000FCF770FE4F4988604E4890ED000AD0ED2C
:1039E000080AB4EEE00AF1EE10FA03DD90ED080AE1
:1039F00080ED000A474890ED000AD0ED080AF1EE8C
:103A0000600AB4EEE00AF1EE10FA05D290ED080A71
:103A1000B1EE400A80ED000A3E4890ED010AD0ED7B
:103A2000090AB4EEE00AF1EE10FA03DD90ED090A9E
:103A300080ED010A374890ED010AD0ED090AF1EE58
:103A4000600AB4EEE00AF1EE10FA05D290ED090A30
:103A5000B1EE400A80ED010A2E4890ED020AD0ED49
:103A60000B0AB4EEE00AF1EE10FA03DD90ED0B0A5A
:103A700080ED020A274890ED020AD0ED0A0AB4EE62
:103A8000E00AF1EE10FA03D290ED0A0A80ED020A84
:103A9000204890ED050AD0ED0C0AB4EEE00AF1EEF4
:103AA00010FA03DD90ED0C0A80ED050A194890ED3F
:103AB000050AD0ED0C0AF1EE600AB4EEE00AF1EE70
:103AC00010FA05D290ED0C0AB1EE400A80ED050A1D
:103AD000104890ED060AD0ED0D0AB4EEE00AF1EEC2
:103AE00010FA03DD90ED0D0A80ED060A094890ED0D
:103AF000060AD0ED0D0A1FE000000000270200209A
:103B000028020020290200209403002088030020BE
:103B1000C3F5C840BC0100200000000000000040C8
:103B2000980300208C0300209C03002090030020B9
:103B30000000000000000840F1EE600AB4EEE00A68
:103B4000F1EE10FA05D290ED0D0AB1EE400A80EDCB
:103B5000060AFE4890ED070AD0ED0E0AB4EEE00A20
:103B6000F1EE10FA03DD90ED0E0A80ED070AF7483A
:103B700090ED070AD0ED0E0AF1EE600AB4EEE00A0D
:103B8000F1EE10FA05D290ED0E0AB1EE400A80ED8A
:103B9000070AEE4890ED000AB1EE400A8DED1D0ACD
:103BA00090ED010AB1EE400A8DED1C0A90ED020A7B
:103BB000B1EE400A8DED1B0A90ED050AB1EE400A08
:103BC000DFEDE30A20EE200A10EE104A90ED060A1F
:103BD000B1EE400ADFEDDE0A20EE200A10EE105AA8
:103BE00090ED070AB1EE400ADFEDD90A20EE200A77
:103BF00010EE106A2046FCF719FDCDE90A019DED93
:103C00000A0B04F0C9FE8DED0C0B9DED0C0B51EC75
:103C1000100BFCF74FFD09EE900A2046FCF706FD5D
:103C2000CDE90A019DED0A0B04F01EF88DED0C0B99
:103C30009DED0C0B51EC100BFCF73CFD0AEE100A4D
:103C40002846FCF7F3FCCDE90A019DED0A0B04F0D0
:103C5000A3FE8DED0C0B9DED0C0B51EC100BFCF746
:103C600029FD0AEE900A2846FCF7E0FCCDE90A019E
:103C70009DED0A0B03F0F8FF8DED0C0B9DED0C0B89
:103C800051EC100BFCF716FD1A903046FCF7CEFCF9
:103C9000CDE90A019DED0A0B04F07EFE8DED0C0BC3
:103CA0009DED0C0B51EC100BFCF704FD0BEE100A14
:103CB0003046FCF7BBFCCDE90A019DED0A0B03F091
:103CC000D3FF8DED0C0B9DED0C0B51EC100BFCF7A5
:103CD000F1FC0BEE900A9DED1A0A20EE2B0AB0EED5
:103CE00040CA2BEEAA0A20EE290A0AEE4B0AF0EE91
:103CF00040CA29EE8B0A6AEE2B0A00EEAA0AB0EE41
:103D000040DA9DED1A0A20EE0B0AF0EE40DA2BEEB7
:103D1000290A20EE2A0A0AEE2B0AB0EE40EAB1EE9A
:103D20006B0A20EE290A6AEE2A0A00EE8B0AF0EEF0
:103D300040EAB1EE6A0AB0EE40FA9DED1A0A20EEB2
:103D4000290AF0EE40FA9DED1A0A20EE0A0A8DEDDE
:103D50001E0A9FED800A8DED170A9FED7F0A8DEDFB
:103D6000180A1FED9B0A8DED190A9FED7A0A8DED59
:103D7000140A9FED7A0A8DED150A1FEDA10A8DED4B
:103D8000160A9FED770A8DED110A9FED740A8DEDED
:103D9000120A1FEDA70A8DED130A9FED710A8DED32
:103DA0000E0A9FED6D0A8DED0F0A1FEDAD0A8DED28
:103DB000100A9DED170AB0EE408A9DED180AF0EE4C
:103DC000408A9DED190AB0EE409A2CEE080A0CEEDE
:103DD000A80A0DEE090ADDED1D0A30EE200A8DED70
:103DE000170A2DEE880A0EEE280A0EEE890ADDED7E
:103DF0001C0A30EE200A8DED180A2FEE080A0FEE8D
:103E0000A80ADDED1E0A00EE890ADDED1B0A30EE80
:103E1000200A8DED190A9DED140AB0EE408A9DED41
:103E2000150AF0EE408A9DED160AB0EE409A2CEE8F
:103E3000080A0CEEA80A0DEE090ADDED1D0A30EEA7
:103E4000200A8DED140A2DEE880A0EEE280A0EEED9
:103E5000890ADDED1C0A30EE200A8DED150A2FEEE1
:103E6000080A0FEEA80ADDED1E0A00EE890ADDED54
:103E70001B0A30EE200A8DED160A9DED110AB0EEF8
:103E8000408A9DED120AF0EE408A9DED130AB0EED5
:103E9000409A2CEE080A0CEEA80A0DEE090ADDED98
:103EA0001D0A30EE200A8DED110A2DEE880A0EEE65
:103EB000280A0EEE890ADDED1C0A30EE200A8DED8F
:103EC000120A2FEE080A0FEEA80ADDED1E0A00EE18
:103ED000890ADDED1B0A30EE200A8DED130A9DEDF7
:103EE0000E0AB0EE408A9DED0F0AF0EE408A9DED7D
:103EF000100AB0EE409A2CEE080A0CEEA80A0DEE5D
:103F0000090ADDED1D0A30EE200A8DED0E0A2DEEB8
:103F1000880A0EEE280A0EEE890ADDED1C0A30EE44
:103F2000200A8DED0F0A2FEE080A0FEEA80ADDED2C
:103F30001E0A00EE890ADDED1B0A30EE200A8DED27
:103F4000100A9DED170ADFED070A0DE0BC01002005
:103F500035FA8E3C000082420000B4410000B4C13A
:103F60000000AAC20000964230EE600A3248D0ED4E
:103F7000000A30EE200A314880ED080A9DED180A4B
:103F80005FED0B0A30EE600A80ED090A9DED190A1B
:103F900080ED0A0A9DED140A5FED0E0A30EE600A0C
:103FA0002548D0ED010A30EE200A254880ED080AA8
:103FB0009DED150A5FED180A30EE200A80ED090A22
:103FC0009DED160A80ED0A0A9DED110A5FED1B0AB0
:103FD00030EE200A1848D0ED020A30EE200A1948C7
:103FE00080ED080A9DED120A5FED250A30EE200AE9
:103FF00080ED090A9DED130A80ED0A0A9DED0E0A77
:104000005FED280A30EE200A0B48D0ED030A30EEAF
:10401000200A0D4880ED080A9DED0F0A5FED320A77
:1040200030EE600A80ED090A9DED100A80ED0A0A63
:104030001FB0BDEC108BF0BDA8010020E8000020EF
:104040001801002048010020780100207FB582B0CF
:1040500004460D4616460220012305AA2946009073
:1040600020460FF048FF002006B070BD10B5044692
:10407000382120460DF06AFC10BD000008B58020F4
:1040800023490870234908702349087000202349F8
:104090000870234908702349087023490870234990
:1040A000087023490870234908708020224908803D
:1040B0002249087022490870FF20002373224B21F7
:1040C00000906C20FDF740FA1E49087080201E49C0
:1040D00008701E4908701E49087000201D490870AC
:1040E0001D4908701D4908701D4908709FED1D0A83
:1040F0001D4880ED000A9FED1D0A1D4880ED000A55
:104100004FF416700DF094FE01201A49087008BD96
:104110001A0200201B0200201C02002026020020A0
:104120002302002024020020250200202702002074
:104130002802002029020020680200201D02002021
:104140001E0200201F020020210200202002002069
:1041500022020020690300206A0300206803002077
:104160006B03002000000000BC02002000002F4470
:1041700078030020F801002010B5002002490860F3
:10418000FFF77CFF10BD00007003002001461C48B3
:10419000814201D2002070471A48814201D2082092
:1041A000F9E71948814201D21020F4E7174881420B
:1041B00001D21820EFE71648814201D22020EAE719
:1041C0001448814201D22820E5E71348814201D2F8
:1041D0003020E0E71148814201D23820DBE7104867
:1041E000814201D24020D6E70E48814201D24820C8
:1041F000D1E70D48814201D25020CCE75820CAE7D0
:10420000004000080080000800C00008000001080D
:10421000000002080000040800000608000008086A
:1042200000000A0800000C0800000E0830B5034624
:104230000C461546002206E0184600F007F844F840
:1042400022001B1D521CAA42F6D330BD014608684D
:10425000704700002DE9F04704460E4617464FF020
:1042600008080025A946B4F1006F02D304F003004A
:1042700008B1BDE8F087FDF7ADFD0020FDF7FEFCBD
:10428000254604EB87091848854215D211E02846D7
:10429000FFF7DCFF401C58B12846FFF777FF824646
:1042A0000221FDF7FDFC8046B8F1080F01D002E0C5
:1042B0002D1D4D45EBD300BFB8F1080F0CD108E020
:1042C00020463168FDF75EFD082800D003E0241D7C
:1042D000361D4C45F4D300BF0120FDF7CFFCFDF7A0
:1042E00047FD00BFC5E700000000FF1F30B50022FA
:1042F0008B071C0F0F2303FA04F20B4B8C1053F89F
:1043000024309343084C8D1044F8253023468C10FC
:1043100053F824308C07240F00FA04F42343024C92
:104320008D1044F8253030BD0838014070B5054681
:104330000E4600240F48FEF729FA00BF40210D4821
:1043400001F09EFF0028F9D000240CE0295D094807
:1043500002F06DF800BF4021064801F091FF0028EF
:10436000F9D0601CC4B2B442F0DB0248FEF704FA94
:10437000012070BD0010014010B54048007832287F
:1043800032DD3F48006844F62061884213D23B4842
:104390000078142190FBF1F201FB120058B9394862
:1043A000007808B9012000E000203649087008466E
:1043B0000078354908603248006844F62061884238
:1043C0000CD92F48006845F20821884206D2012006
:1043D0002C490870084600782B49086001202B49B9
:1043E000087000202A4908702A4890ED1A0A2A48C5
:1043F000D0ED000AB4EE600AF1EE10FA26D125489D
:1044000090ED180A2548D0ED000AB4EE600AF1EEEE
:1044100010FA1BD11F4890ED190A2148D0ED000A6F
:10442000B4EE600AF1EE10FA10D114480078401C86
:104430001249087008460078FE281ED13320087003
:104440000BF04EFD0020FEF773FE16E000200B4936
:1044500008700E4908700F4890ED1A0A0E4880ED5A
:10446000000A0C4890ED180A0C4880ED000A094833
:1044700090ED190A0A4880ED000A10BDDE05002003
:10448000B005002077020020B0024142DD05002087
:104490006B020020640B0020E0050020E8050020EE
:1044A000E40500202DE9F0412DED0C8B84B00024B3
:1044B0000127F7480088012803DBF5480088032816
:1044C00007DDF348008808287DDBF14800880A28CA
:1044D00079DCEF480088012876D000200190029016
:1044E00003900021EB4A108810E00246401CEA4B82
:1044F0001B689A5C01AB5A54FF2806DD0246C317BD
:1045000000EB13631B12A0EB0320491CE04A128846
:104510009142EADBDE480088082837DBDC48008867
:104520000A2833DC0422DD48016801A8FDF7D0F831
:1045300030B301A9DA4A12881144C81E0322D949AE
:104540000968FDF7C5F8D8B14FF00408D0480078E5
:10455000C01FC6B2002510E0701B401EC1B20A2069
:104560000DF0BEF941464A1C02F0FF0801AA515C59
:10457000303910FB0140C4B26D1CB542ECDB43E0A6
:10458000002004B0BDEC0C8BBDE8F081002537E0C5
:1045900029466D1C01AA515CA1F13000FBF7F0FF28
:1045A00041EC1B0BBA490988491B481EFBF7E8FF81
:1045B00041EC1D0BB0EE4D1AF0EE6D1A9FEDBA0BEB
:1045C00003F0C2FB01E0B0E11FE0B0EE40CAF0EE44
:1045D00060CA53EC1B2B51EC1C0BFBF7F0FE41ECBB
:1045E000190B2046FBF7DDFF41EC1A0B53EC192B9E
:1045F000FBF73EFE41EC180BFBF7FFFFC4B26D1C4E
:10460000A34800888542C3DB04E0A3480068A149B1
:104610000988445C0E2C7BD2DFE804F0073C5B7B0E
:104620009ABAD0E6FEFCFBFAF9F88020A04908709F
:10463000A04908709FEDA00AA04880ED000A8020E4
:104640009F49087000209F4908709F4908709F4942
:1046500008709F49087080209E4908709E49087024
:104660009E4908709E4908709E4908709E490870CE
:1046700000209E4908709E4908709E490870992044
:10468000964908704FF4FA600DF0D2FB01209A4968
:1046900008703DE1D82086490870884890ED000AEE
:1046A000B5EEC00AF1EE10FA02D1802084490870FC
:1046B000002084490870844908708449087084493E
:1046C00008708E4908700DF0B3FB01208A4908700C
:1046D0001EE1282076490870784890ED000AB5EE72
:1046E000C00AF1EE10FA02D180207549087000204E
:1046F00074490870744908707449087074490870E6
:104700007E4908700DF094FB01207B490870FFE0A2
:10471000FCE0D82067490870684890ED000AB5EEC3
:10472000C00AF1EE10FA02D180206549087000201D
:1047300064490870644908706449087064490870E5
:104740006E4908700DF074FB01206B490870DFE0C2
:1047500028205849087000205A490870574890EDA1
:10476000000AB5EEC00AF1EE10FA02D180205449D9
:104770000870002054490870544908705449087062
:104780005E4908700DF054FB01205B490870BFE0E2
:10479000B6EE000A494880ED000A00204949087039
:1047A00049490870494908704949087053490870D7
:1047B0000DF03EFB012050490870A9E0BEEE000A52
:1047C0003E4880ED000A00203E4908703E490870CE
:1047D0003E4908703E490870484908700DF028FBB2
:1047E00001204549087093E0B520374908708020C2
:1047F0002F4908702F490870314908704FF4FA604A
:104800000DF016FB01203C49087081E07AE03BE0A6
:1048100030E025E012E0FFE7B5202C490870802049
:104820002349087023490870254908704FF4FA603D
:104830000DF0FEFA01203049087069E0B5202449E6
:10484000087080201A4908701A4908701C490870BD
:104850004FF4FA600DF0ECFA01202749087057E098
:104860001E480078FF2804DA1C48007828301B49CD
:1048700008704DE019480078002804DD17480078DA
:1048800028381649087043E001201D4908703FE0B0
:1048900026060020240600201C0600200C0600200E
:1048A0001806002010060020000000000000244030
:1048B0001A0200201B02002000000000BC020020A1
:1048C0001C020020260200202302002024020020D7
:1048D000250200201D0200201E0200201F020020D1
:1048E0002102002020020020220200206903002073
:1048F0006A03002068030020F80100202A0200203B
:104900006B02002000200A49087001E0002700BF68
:1049100000BF322C03DC00200649087006E0A4F139
:10492000320004490870012700E00027384628E6D5
:104930006B020020F90100200CB5002001900090CE
:104940003448006840F480303249086000BF314884
:10495000006800F4003000900198401C019000981D
:1049600018B90198B0F5704FF1D12A48006800F4E9
:10497000003010B10120009001E00020009000986C
:10498000012846D123484030006840F0805021493A
:10499000403108602048006840F480401E490860AB
:1049A0001C48083000681B49083108600846006848
:1049B00040F4004008600846006840F4A0500860D9
:1049C0001648091F0860081F006840F08070091F22
:1049D000086000BF0F48006800F000700028F9D0A0
:1049E00040F205600E4908600A480830006820F06F
:1049F00003000849083108600846006840F00200DA
:104A0000086000BF03480830006800F00C00082868
:104A1000F8D10CBD00380240007000400854400737
:104A2000003C024010B54248008B502842D003DCC5
:104A300038B10A2874D10CE0552865D05A286FD1B6
:104A40006BE0FCF7BFFD3A48008B401C38490883F7
:104A50006CE03848007838490880032037490870EE
:104A6000802037490870AA2036490870EB20364963
:104A70000870802035490870AA2035490870EB205D
:104A800034490870802034490870EB20334908709D
:104A9000462033490870802032490870EB203249A3
:104AA00008704620314908702148008B401C20497D
:104AB00008833BE080202249087064202149087067
:104AC000CD202149087080202049087064202049A9
:104AD0000870CD201F49087080201F490870B4203D
:104AE0001E49087078201E49087080201D490870F2
:104AF000B4201D49087078201C4908700C48008BB0
:104B0000401C0B49088311E00CF0FCFE0848008BA8
:104B1000401C0749088309E002E0FCF72FFD05E08F
:104B20000348008B401C0249088300BF00BF10BD32
:104B3000E80B0020F605002068020020F8010020A4
:104B400045020020440200204302002048020020C9
:104B500047020020460200204B0200204A020020AB
:104B6000490200204E0200204D0200204C0200208D
:104B700010B52A4880891E282AD005DC58B10A2899
:104B800014D0142842D11AE028282AD0322831D053
:104B90003C283BD137E0FCF715FD00202049087088
:104BA0001E488089401C1D49888135E099201C4998
:104BB00008701A488089401C184988812CE0002020
:104BC0001749087015488089401C1449888123E0E2
:104BD00099201349087011488089401C0F49888129
:104BE0001AE000200E4908700C488089401C0B49CF
:104BF000888111E099200A49087008488089401C82
:104C00000649888108E0FCF7B9FC05E00348808983
:104C1000401C0249888100BF00BF10BDE80B002086
:104C20001F02002010B5FE48008D37287ED00DDC15
:104C300021287CD005DCC0B105281ED01E2877D1E4
:104C40004BE0242875D02828F9D1E8E0732871D0EA
:104C500006DC46286FD055286ED06428EFD195E148
:104C60008C286AD09128EAD111E2FCF7ABFCEC4821
:104C7000008D401CEA49088512E20320E9490870CA
:104C8000FF20E94908808020E8490870F020E849C1
:104C900008701420E74908708020E7490870F02068
:104CA000E64908701420E64908708020E54908703C
:104CB000F020E54908701420E44908708020E44998
:104CC0000870F020E34908701420E3490870D448C4
:104CD000008D401CD2490885E2E10020D2490880BD
:104CE0000320D04908700020CF4908808020CF4998
:104CF0000870AA20CE490870EB20CE4908708020A9
:104D0000CD490870AA20CD490870EB20CC49087025
:104D10008020CC4908708C20CB490870DC20CB491E
:104D200008708020CA4908708C2007E0A7E010E0D6
:104D3000B0E141E057E1CFE0FBE0A0E1C5490870F8
:104D4000DC20C5490870B648008D401CB449088570
:104D5000A6E10020B44908800320B2490870002071
:104D6000B14908808020B1490870AA20B049087074
:104D7000EB20B04908708020AF490870AA20AF49E5
:104D80000870EB20AE4908708020AE490870BE2044
:104D9000AD490870C820AD4908708020AC49087042
:104DA000BE20AC490870C820AB4908709C48008DF3
:104DB000401C9B49088573E100209B490880032023
:104DC0009849087000209849088080209749087009
:104DD000AA2097490870EB209649087080209649D0
:104DE0000870AA2095490870EB209549087080202A
:104DF00094490870DC2094490870AA2093490870EF
:104E0000802093490870DC2092490870AA209249BA
:104E100008708348008D401C8149088540E1FF20CF
:104E20008149088003207F4908702D207F49087040
:104E3000A0207F490870EB207E4908702D207E4914
:104E40000870A0207D490870EB207D490870802003
:104E50007C490870E6207C490870AA207B490870CC
:104E600080207B490870E6207A490870AA207A4998
:104E700008706B48008D401C6949088510E10320CB
:104E8000684908702D2069490870A0206849087099
:104E9000B420684908702D2067490870A020674930
:104EA0000870B42066490870802066490870E620C2
:104EB00065490870AA206549087080206449087017
:104EC000E62064490870AA20634908705448008DA0
:104ED000401C53490885E3E00320524908702D2007
:104EE00052490870A02052490870EB2051490870BF
:104EF0002D2051490870A02050490870EB205049DE
:104F0000087080204F490870E6204F490870AA2099
:104F10004E49087080204E490870E6204D490870BF
:104F2000AA204D4908703E48008D401C3C49088528
:104F3000B6E003203B4908702D203C490870A020B2
:104F40003B490870B4203B4908702D203A4908704D
:104F5000A0203A490870B4203949087080203949A6
:104F60000870E62038490870AA2038490870802067
:104F700037490870E62037490870AA20364908707A
:104F80002748008D401C2649088589E003202549D3
:104F900008702D2025490870A02025490870EB20B5
:104FA000244908702D2024490870A0202349087046
:104FB000EB2023490870802022490870E62022490E
:104FC0000870AA2021490870802021490870E62035
:104FD00020490870AA20204908701148008D401C03
:104FE0000F4908855CE003200E4908702D200F4909
:104FF0000870A0200E490870EB200E4908702D2083
:105000000D490870A0200D490870EB200C4908706C
:1050100080200C490870E6200B490870AA201DE08A
:10502000E80B0020F8010020680200204502002063
:1050300044020020430200204802002047020020D2
:10504000460200204B0200204A02002049020020B4
:105050004E0200204D0200204C0200201149087031
:10506000802011490870E62010490870AA201049D4
:1050700008701048008D401C0E49088510E0FEF7AE
:10508000FDFF0C48008D401C0A49088508E0FCF72C
:1050900075FA05E00748008D401C0649088500BFE9
:1050A00000BF10BD490200204E0200204D0200202A
:1050B0004C020020E80B002010B56448808B822849
:1050C00075D007DC68B1052813D00A2842D06E28B5
:1050D0006ED170E0B4286CD0BC286BD0BE28F7D15C
:1050E000A9E0FCF76FFA5948808B401C5749888328
:1050F000AAE05748007857490880032056490870AD
:10510000802056490870232055490870FA205549D7
:105110000870802054490870232054490870FA20F0
:1051200053490870802053490870BE2052490870C6
:10513000A02052490870802051490870BE20514972
:105140000870A020504908704048808B401C3F499F
:10515000888379E003204049087080203F49087027
:1051600023203F490870FA203E49087080203E49BC
:10517000087023203D490870FA203D4908708020BE
:105180003C490870BE203C490870A0203B4908708B
:1051900080203B490870BE203A490870A0203A4957
:1051A00008702A48808B401C284988834CE01AE00C
:1051B00044E030E037E0802028490870A0202849EA
:1051C0000870E12027490870802027490870A02036
:1051D00026490870E120264908701C48808B401C35
:1051E0001A49888330E0802022490870FF20224934
:1051F0000870EB2021490870802021490870FF20A9
:1052000020490870EB20204908701048808B401C12
:105210000E49888318E00CF075FB0C48808B401C0D
:105220000A49888310E0FEF729FF0848808B401C5C
:105230000649888308E0FCF7A1F905E00348808B64
:10524000401C0249888300BF00BF10BDE80B00204E
:10525000F605002068020020F80100204502002029
:1052600044020020430200204802002047020020A0
:10527000460200204B0200204A0200204902002082
:105280004E0200204D0200204C02002010B55C4868
:10529000C08B20B17E2811D080281AD116E0FCF7EF
:1052A00091F94FF448700CF0C3FD01205549087086
:1052B0005348C08B401C5249C8839EE0FEF7DEFE77
:1052C0004F48C08B401C4E49C88396E0FCF756F906
:1052D00093E04B49C88BC11700EBD1614911A0EB9A
:1052E000411101F00300002816D1881008287DD252
:1052F000DFE800F004132231404F5E6D8C204249FC
:105300000870322041490870FA20414908703C4831
:10531000C08B401C3A49C88368E0B4203A49087001
:1053200064203A490870BE20394908703448C08B5F
:10533000401C3349C88359E0DC203349087096206B
:10534000324908708020324908702D48C08B401CBB
:105350002B49C8834AE0B4202B49087096202B497A
:10536000087041202A4908702548C08B401C2449F8
:10537000C8833BE08C20244908709620234908709C
:105380000020234908701E48C08B401C1C49C8835C
:105390002CE050201C49087096201C4908704120C0
:1053A0001B4908701648C08B401C1549C8831DE076
:1053B0001E20154908709620144908708020144951
:1053C00008700F48C08B401C0D49C8830EE0502068
:1053D0000D49087064200D490870BE200C49087002
:1053E0000748C08B401C0649C88300BF00BF044863
:1053F000C08B401C0249C88300BF00BF10BD000025
:10540000E80B00206B0300201D0200201F0200207B
:105410002102002010B55E48008C20B1BE2811D0BA
:10542000C0281AD116E0FCF7CDF84FF4E1700CF06B
:10543000FFFC0120574908705548008C401C544916
:105440000884A2E0FEF71AFE5148008C401C504927
:1054500008849AE0FCF792F897E04D48008C3021E0
:1054600090FBF1F201FB120018284BD007DC68B169
:1054700006281AD00C2827D012287FD133E01E2806
:105480004FD024285CD02A2878D168E08020424977
:105490000870902041490870FF20414908703C483D
:1054A000008C401C3A49088468E0BE203A490870E4
:1054B0003C203A4908708020394908703448008CF3
:1054C000401C3349088459E0FF203349087090207C
:1054D000324908700020324908702D48008C401C69
:1054E0002B4908844AE0BE202B490870C8202B496C
:1054F000087080202A4908702548008C401C2449E7
:1055000008843BE0802024490870902023490870DB
:105510000020234908701E48008C401C1C49088448
:105520002CE040201C4908703C201C490870802059
:105530001B4908701648008C401C154908841DE062
:10554000002015490870902014490870FF20144964
:1055500008700F48008C401C0D4908840EE0402064
:105560000D490870C8200D49087080200C4908704A
:105570000748008C401C0649088400BF00BF04484F
:10558000008C401C0249088400BF00BF10BD000011
:10559000E80B00206B0300201E0200201F020020E9
:1055A000200200202DE9FE4304460D46164698468B
:1055B0000A9F324601A9481CFDF7A4FA00220DF10A
:1055C0000601481CFDF79EFA3A4602A9481CFDF761
:1055D00099FA062001AB2A222946009020460EF0B7
:1055E00077FABDE8FE83000030B5164800684FF436
:1055F0007A72B0FBF2F1481EB0F1807F01D3012036
:105600001BE0481E4FF0E022506150170F22002887
:1056100007DA13071D0E0C4B00F00F04241F1D5555
:1056200003E013071C0E094B1C5400BF00204FF071
:10563000E022906107201061002008B100BFFEE762
:1056400030BD00002807002018ED00E000E400E075
:1056500010B545480088401C80B2434908800328A3
:1056600005D101204149087000203F490880404889
:105670000088401C80B23E490880142807D1FDF7FD
:10568000CBFB01203B4908700020394908803A488B
:105690000088401C80B238490880322805D101209A
:1056A0003649087000203449088035480088401C7D
:1056B00080B233490880B0F5FA7F05D10120314925
:1056C000087000202E4908802F480078002846D016
:1056D0002E480088401C80B22C490880052805D13E
:1056E00001202B490870002028490880294800889B
:1056F000401C80B227490880322805D10120264964
:10570000087000202349088024480088401C234951
:10571000088008460088B0F57A7F14DD00211F4A12
:1057200011801F4909881F4A118000211C4A1180DD
:10573000002000BF04E000211B4A22F81010401C8A
:105740000C28F8DB00BF194800680021401C894183
:1057500008DA16480068401C1449086002E000207E
:105760001249086010BD0000800200207102002074
:1057700084020020700200208802002076020020AF
:105780008A020020750200206E02002082020020A2
:1057900072020020860200206F0200207A020020A0
:1057A0007C0200207E020020D00B0020B0050020EB
:1057B00010B51248006840F0010010490860002050
:1057C0000E49083108600D4800680D4908400B4932
:1057D00008600C48091D0860081F006820F480203C
:1057E000091F0860002005490C310860FFF7A4F884
:1057F0004FF000600449086010BD0000003802400E
:10580000FFFFF6FE1030002408ED00E010B5012186
:10581000880700F009F818B10121880700F001F8A5
:1058200010BDCA430282704730B5024600200023F3
:105830000024158A05EA0103958905EA010413B1DC
:105840000CB1012000E0002030BD000010B50F4871
:10585000008910B1962810D10CE0FBF7B3FE9FED44
:105860000C0A0C4880ED000A08480089401C0749D2
:10587000088108E0FBF782FE05E004480089401C2F
:105880000249088100BF00BF10BD0000E80B0020E6
:105890009A99193FBC02002010B51348008A20B124
:1058A0003A280DD03C2816D112E0FBF78BFEB5202C
:1058B0000E4908700C48008A401C0B49088210E011
:1058C000FEF7DCFB0848008A401C0749088208E014
:1058D000FBF754FE05E00448008A401C0249088298
:1058E00000BF00BF10BD0000E80B00202402002014
:1058F00010B52448808A3C2825D003DC38B11E2806
:1059000038D114E058282AD05A2833D12FE0FBF799
:1059100059FEB5201C49087000201C4908701C491C
:1059200008701848808A401C1649888228E00020A8
:1059300015490870B520154908701248808A401C26
:10594000104988821CE0002010490870B5201049D9
:1059500008700C48808A401C0A49888210E0FEF7D3
:105960008DFB0848808A401C0649888208E0FBF7C6
:1059700005FE05E00348808A401C0249888200BF7A
:1059800000BF10BDE80B00202302002024020020ED
:105990002502002010B51348C08920B13A280DD047
:1059A0003C2816D112E0FBF70DFEB5200E49087019
:1059B0000C48C089401C0B49C88110E0FEF75EFB13
:1059C0000848C089401C0749C88108E0FBF7D6FD9C
:1059D00005E00448C089401C0249C88100BF00BFDF
:1059E00010BD0000E80B00202302002010B5134872
:1059F000408A20B13A280DD03C2816D112E0FBF79E
:105A0000E1FDB5200E4908700C48408A401C0B4946
:105A1000488210E0FEF732FB0848408A401C0749E4
:105A2000488208E0FBF7AAFD05E00448408A401CD4
:105A30000249488200BF00BF10BD0000E80B0020F3
:105A40002502002000B587B001210846FDF78EFD34
:105A500001211020FDF7BAFD072209212748FCF794
:105A6000E3FC07220A212548FCF7DEFC00208DF824
:105A70000A0001208DF80B0002208DF808004FF479
:105A8000C060019002208DF8090001A91B48FCF7B5
:105A900083FC1B4800F09AFB1A4803900020ADF8E5
:105AA0001000ADF81200ADF81400ADF818000C208D
:105AB000ADF8160003A9124800F04AFC0121104875
:105AC00000F015FC01210E4800F06BFB012240F2B2
:105AD00025510B4800F017FC25208DF80000002010
